{
  "_format": "hh-sol-artifact-1",
  "contractName": "F1_NFT",
  "sourceName": "contracts/F1_NFT.sol",
  "abi": [
    {
      "inputs": [
        {
          "internalType": "string",
          "name": "_newBaseURI",
          "type": "string"
        },
        {
          "internalType": "uint256",
          "name": "_maxMintAmount",
          "type": "uint256"
        }
      ],
      "stateMutability": "nonpayable",
      "type": "constructor"
    },
    {
      "anonymous": false,
      "inputs": [
        {
          "indexed": true,
          "internalType": "address",
          "name": "owner",
          "type": "address"
        },
        {
          "indexed": true,
          "internalType": "address",
          "name": "approved",
          "type": "address"
        },
        {
          "indexed": true,
          "internalType": "uint256",
          "name": "tokenId",
          "type": "uint256"
        }
      ],
      "name": "Approval",
      "type": "event"
    },
    {
      "anonymous": false,
      "inputs": [
        {
          "indexed": true,
          "internalType": "address",
          "name": "owner",
          "type": "address"
        },
        {
          "indexed": true,
          "internalType": "address",
          "name": "operator",
          "type": "address"
        },
        {
          "indexed": false,
          "internalType": "bool",
          "name": "approved",
          "type": "bool"
        }
      ],
      "name": "ApprovalForAll",
      "type": "event"
    },
    {
      "anonymous": false,
      "inputs": [
        {
          "indexed": true,
          "internalType": "address",
          "name": "from",
          "type": "address"
        },
        {
          "indexed": true,
          "internalType": "address",
          "name": "to",
          "type": "address"
        },
        {
          "indexed": true,
          "internalType": "uint256",
          "name": "tokenId",
          "type": "uint256"
        }
      ],
      "name": "Transfer",
      "type": "event"
    },
    {
      "inputs": [],
      "name": "active",
      "outputs": [
        {
          "internalType": "bool",
          "name": "",
          "type": "bool"
        }
      ],
      "stateMutability": "view",
      "type": "function"
    },
    {
      "inputs": [
        {
          "internalType": "address[]",
          "name": "addresses",
          "type": "address[]"
        }
      ],
      "name": "addToWhiteList",
      "outputs": [],
      "stateMutability": "nonpayable",
      "type": "function"
    },
    {
      "inputs": [
        {
          "internalType": "address",
          "name": "",
          "type": "address"
        }
      ],
      "name": "addressTokenCount",
      "outputs": [
        {
          "internalType": "uint256",
          "name": "",
          "type": "uint256"
        }
      ],
      "stateMutability": "view",
      "type": "function"
    },
    {
      "inputs": [
        {
          "internalType": "address",
          "name": "to",
          "type": "address"
        },
        {
          "internalType": "uint256",
          "name": "tokenId",
          "type": "uint256"
        }
      ],
      "name": "approve",
      "outputs": [],
      "stateMutability": "nonpayable",
      "type": "function"
    },
    {
      "inputs": [
        {
          "internalType": "address",
          "name": "owner",
          "type": "address"
        }
      ],
      "name": "balanceOf",
      "outputs": [
        {
          "internalType": "uint256",
          "name": "",
          "type": "uint256"
        }
      ],
      "stateMutability": "view",
      "type": "function"
    },
    {
      "inputs": [],
      "name": "baseExtension",
      "outputs": [
        {
          "internalType": "string",
          "name": "",
          "type": "string"
        }
      ],
      "stateMutability": "view",
      "type": "function"
    },
    {
      "inputs": [],
      "name": "baseURI",
      "outputs": [
        {
          "internalType": "string",
          "name": "",
          "type": "string"
        }
      ],
      "stateMutability": "view",
      "type": "function"
    },
    {
      "inputs": [
        {
          "internalType": "uint256",
          "name": "amount",
          "type": "uint256"
        }
      ],
      "name": "changeMintAmount",
      "outputs": [],
      "stateMutability": "nonpayable",
      "type": "function"
    },
    {
      "inputs": [
        {
          "internalType": "uint256",
          "name": "tokenId",
          "type": "uint256"
        }
      ],
      "name": "getApproved",
      "outputs": [
        {
          "internalType": "address",
          "name": "",
          "type": "address"
        }
      ],
      "stateMutability": "view",
      "type": "function"
    },
    {
      "inputs": [
        {
          "internalType": "address",
          "name": "owner",
          "type": "address"
        },
        {
          "internalType": "address",
          "name": "operator",
          "type": "address"
        }
      ],
      "name": "isApprovedForAll",
      "outputs": [
        {
          "internalType": "bool",
          "name": "",
          "type": "bool"
        }
      ],
      "stateMutability": "view",
      "type": "function"
    },
    {
      "inputs": [],
      "name": "maxMintAmount",
      "outputs": [
        {
          "internalType": "uint256",
          "name": "",
          "type": "uint256"
        }
      ],
      "stateMutability": "view",
      "type": "function"
    },
    {
      "inputs": [
        {
          "internalType": "uint256",
          "name": "nftAmountToMint",
          "type": "uint256"
        }
      ],
      "name": "mint",
      "outputs": [],
      "stateMutability": "payable",
      "type": "function"
    },
    {
      "inputs": [],
      "name": "mintForGiveAway",
      "outputs": [],
      "stateMutability": "nonpayable",
      "type": "function"
    },
    {
      "inputs": [],
      "name": "name",
      "outputs": [
        {
          "internalType": "string",
          "name": "",
          "type": "string"
        }
      ],
      "stateMutability": "view",
      "type": "function"
    },
    {
      "inputs": [],
      "name": "owner",
      "outputs": [
        {
          "internalType": "address",
          "name": "",
          "type": "address"
        }
      ],
      "stateMutability": "view",
      "type": "function"
    },
    {
      "inputs": [
        {
          "internalType": "uint256",
          "name": "tokenId",
          "type": "uint256"
        }
      ],
      "name": "ownerOf",
      "outputs": [
        {
          "internalType": "address",
          "name": "",
          "type": "address"
        }
      ],
      "stateMutability": "view",
      "type": "function"
    },
    {
      "inputs": [
        {
          "internalType": "address",
          "name": "from",
          "type": "address"
        },
        {
          "internalType": "address",
          "name": "to",
          "type": "address"
        },
        {
          "internalType": "uint256",
          "name": "tokenId",
          "type": "uint256"
        }
      ],
      "name": "safeTransferFrom",
      "outputs": [],
      "stateMutability": "nonpayable",
      "type": "function"
    },
    {
      "inputs": [
        {
          "internalType": "address",
          "name": "from",
          "type": "address"
        },
        {
          "internalType": "address",
          "name": "to",
          "type": "address"
        },
        {
          "internalType": "uint256",
          "name": "tokenId",
          "type": "uint256"
        },
        {
          "internalType": "bytes",
          "name": "_data",
          "type": "bytes"
        }
      ],
      "name": "safeTransferFrom",
      "outputs": [],
      "stateMutability": "nonpayable",
      "type": "function"
    },
    {
      "inputs": [
        {
          "internalType": "address",
          "name": "operator",
          "type": "address"
        },
        {
          "internalType": "bool",
          "name": "approved",
          "type": "bool"
        }
      ],
      "name": "setApprovalForAll",
      "outputs": [],
      "stateMutability": "nonpayable",
      "type": "function"
    },
    {
      "inputs": [
        {
          "internalType": "string",
          "name": "_newBaseURI",
          "type": "string"
        }
      ],
      "name": "setBaseURI",
      "outputs": [],
      "stateMutability": "nonpayable",
      "type": "function"
    },
    {
      "inputs": [
        {
          "internalType": "bytes4",
          "name": "interfaceId",
          "type": "bytes4"
        }
      ],
      "name": "supportsInterface",
      "outputs": [
        {
          "internalType": "bool",
          "name": "",
          "type": "bool"
        }
      ],
      "stateMutability": "view",
      "type": "function"
    },
    {
      "inputs": [],
      "name": "symbol",
      "outputs": [
        {
          "internalType": "string",
          "name": "",
          "type": "string"
        }
      ],
      "stateMutability": "view",
      "type": "function"
    },
    {
      "inputs": [],
      "name": "toggleOff",
      "outputs": [],
      "stateMutability": "nonpayable",
      "type": "function"
    },
    {
      "inputs": [],
      "name": "toggleOn",
      "outputs": [],
      "stateMutability": "nonpayable",
      "type": "function"
    },
    {
      "inputs": [],
      "name": "tokenID",
      "outputs": [
        {
          "internalType": "uint256",
          "name": "",
          "type": "uint256"
        }
      ],
      "stateMutability": "view",
      "type": "function"
    },
    {
      "inputs": [
        {
          "internalType": "uint256",
          "name": "tokenId",
          "type": "uint256"
        }
      ],
      "name": "tokenURI",
      "outputs": [
        {
          "internalType": "string",
          "name": "",
          "type": "string"
        }
      ],
      "stateMutability": "view",
      "type": "function"
    },
    {
      "inputs": [
        {
          "internalType": "address",
          "name": "from",
          "type": "address"
        },
        {
          "internalType": "address",
          "name": "to",
          "type": "address"
        },
        {
          "internalType": "uint256",
          "name": "tokenId",
          "type": "uint256"
        }
      ],
      "name": "transferFrom",
      "outputs": [],
      "stateMutability": "nonpayable",
      "type": "function"
    },
    {
      "inputs": [
        {
          "internalType": "uint256",
          "name": "",
          "type": "uint256"
        }
      ],
      "name": "uriMap",
      "outputs": [
        {
          "internalType": "string",
          "name": "",
          "type": "string"
        }
      ],
      "stateMutability": "view",
      "type": "function"
    },
    {
      "inputs": [
        {
          "internalType": "address",
          "name": "",
          "type": "address"
        }
      ],
      "name": "whiteListAddresses",
      "outputs": [
        {
          "internalType": "bool",
          "name": "",
          "type": "bool"
        }
      ],
      "stateMutability": "view",
      "type": "function"
    },
    {
      "inputs": [],
      "name": "withdraw",
      "outputs": [],
      "stateMutability": "nonpayable",
      "type": "function"
    }
  ],
  "bytecode": "0x60806040526040518060400160405280600581526020017f2e6a736f6e00000000000000000000000000000000000000000000000000000081525060089080519060200190620000519291906200023a565b506001600d553480156200006457600080fd5b50604051620043203803806200432083398181016040528101906200008a9190620004c2565b6040518060400160405280600681526020017f66315f44414f00000000000000000000000000000000000000000000000000008152506040518060400160405280600281526020017f663100000000000000000000000000000000000000000000000000000000000081525081600090805190602001906200010e9291906200023a565b508060019080519060200190620001279291906200023a565b50505033600660006101000a81548173ffffffffffffffffffffffffffffffffffffffff021916908373ffffffffffffffffffffffffffffffffffffffff1602179055508060098190555062000183826200018b60201b60201c565b505062000636565b600660009054906101000a900473ffffffffffffffffffffffffffffffffffffffff1673ffffffffffffffffffffffffffffffffffffffff163373ffffffffffffffffffffffffffffffffffffffff16146200021e576040517f08c379a00000000000000000000000000000000000000000000000000000000081526004016200021590620005af565b60405180910390fd5b8060079080519060200190620002369291906200023a565b5050565b828054620002489062000600565b90600052602060002090601f0160209004810192826200026c5760008555620002b8565b82601f106200028757805160ff1916838001178555620002b8565b82800160010185558215620002b8579182015b82811115620002b75782518255916020019190600101906200029a565b5b509050620002c79190620002cb565b5090565b5b80821115620002e6576000816000905550600101620002cc565b5090565b6000604051905090565b600080fd5b600080fd5b600080fd5b600080fd5b6000601f19601f8301169050919050565b7f4e487b7100000000000000000000000000000000000000000000000000000000600052604160045260246000fd5b620003538262000308565b810181811067ffffffffffffffff8211171562000375576200037462000319565b5b80604052505050565b60006200038a620002ea565b905062000398828262000348565b919050565b600067ffffffffffffffff821115620003bb57620003ba62000319565b5b620003c68262000308565b9050602081019050919050565b60005b83811015620003f3578082015181840152602081019050620003d6565b8381111562000403576000848401525b50505050565b6000620004206200041a846200039d565b6200037e565b9050828152602081018484840111156200043f576200043e62000303565b5b6200044c848285620003d3565b509392505050565b600082601f8301126200046c576200046b620002fe565b5b81516200047e84826020860162000409565b91505092915050565b6000819050919050565b6200049c8162000487565b8114620004a857600080fd5b50565b600081519050620004bc8162000491565b92915050565b60008060408385031215620004dc57620004db620002f4565b5b600083015167ffffffffffffffff811115620004fd57620004fc620002f9565b5b6200050b8582860162000454565b92505060206200051e85828601620004ab565b9150509250929050565b600082825260208201905092915050565b7f6f6e6c79206f776e65722063616e20706572666f726d2074686973206163746960008201527f6f6e000000000000000000000000000000000000000000000000000000000000602082015250565b60006200059760228362000528565b9150620005a48262000539565b604082019050919050565b60006020820190508181036000830152620005ca8162000588565b9050919050565b7f4e487b7100000000000000000000000000000000000000000000000000000000600052602260045260246000fd5b600060028204905060018216806200061957607f821691505b6020821081141562000630576200062f620005d1565b5b50919050565b613cda80620006466000396000f3fe6080604052600436106101cd5760003560e01c806370a08231116100f7578063a22cb46511610095578063c87b56dd11610064578063c87b56dd14610641578063dd2eb9f31461067e578063e985e9c5146106bb578063f4c23667146106f8576101cd565b8063a22cb46514610599578063a5c42ef1146105c2578063b88d4fde146105ed578063c668286214610616576101cd565b80638da5cb5b116100d15780638da5cb5b146104ea578063920674dc1461051557806395d89b4114610552578063a0712d681461057d576101cd565b806370a082311461045b578063740d73f3146104985780637d5092c9146104c1576101cd565b8063267bcabd1161016f578063546408131161013e57806354640813146103b357806355f804b3146103ca5780636352211e146103f35780636c0360eb14610430576101cd565b8063267bcabd1461031f5780633ccfd60b1461033657806342842e0e1461034d578063474dd97d14610376576101cd565b8063081812fc116101ab578063081812fc14610265578063095ea7b3146102a2578063239c70ae146102cb57806323b872dd146102f6576101cd565b806301ffc9a7146101d257806302fb0c5e1461020f57806306fdde031461023a575b600080fd5b3480156101de57600080fd5b506101f960048036038101906101f491906126a3565b61070f565b60405161020691906126eb565b60405180910390f35b34801561021b57600080fd5b506102246107f1565b60405161023191906126eb565b60405180910390f35b34801561024657600080fd5b5061024f610804565b60405161025c919061279f565b60405180910390f35b34801561027157600080fd5b5061028c600480360381019061028791906127f7565b610896565b6040516102999190612865565b60405180910390f35b3480156102ae57600080fd5b506102c960048036038101906102c491906128ac565b61091b565b005b3480156102d757600080fd5b506102e0610a33565b6040516102ed91906128fb565b60405180910390f35b34801561030257600080fd5b5061031d60048036038101906103189190612916565b610a39565b005b34801561032b57600080fd5b50610334610a99565b005b34801561034257600080fd5b5061034b610b46565b005b34801561035957600080fd5b50610374600480360381019061036f9190612916565b610c77565b005b34801561038257600080fd5b5061039d60048036038101906103989190612969565b610c97565b6040516103aa91906128fb565b60405180910390f35b3480156103bf57600080fd5b506103c8610caf565b005b3480156103d657600080fd5b506103f160048036038101906103ec9190612acb565b610d41565b005b3480156103ff57600080fd5b5061041a600480360381019061041591906127f7565b610deb565b6040516104279190612865565b60405180910390f35b34801561043c57600080fd5b50610445610e9d565b604051610452919061279f565b60405180910390f35b34801561046757600080fd5b50610482600480360381019061047d9190612969565b610f2b565b60405161048f91906128fb565b60405180910390f35b3480156104a457600080fd5b506104bf60048036038101906104ba9190612b74565b610fe3565b005b3480156104cd57600080fd5b506104e860048036038101906104e391906127f7565b611118565b005b3480156104f657600080fd5b506104ff6111b2565b60405161050c9190612865565b60405180910390f35b34801561052157600080fd5b5061053c60048036038101906105379190612969565b6111d8565b60405161054991906126eb565b60405180910390f35b34801561055e57600080fd5b506105676111f8565b604051610574919061279f565b60405180910390f35b610597600480360381019061059291906127f7565b61128a565b005b3480156105a557600080fd5b506105c060048036038101906105bb9190612bed565b6113aa565b005b3480156105ce57600080fd5b506105d76113c0565b6040516105e491906128fb565b60405180910390f35b3480156105f957600080fd5b50610614600480360381019061060f9190612cce565b6113c6565b005b34801561062257600080fd5b5061062b611428565b604051610638919061279f565b60405180910390f35b34801561064d57600080fd5b50610668600480360381019061066391906127f7565b6114b6565b604051610675919061279f565b60405180910390f35b34801561068a57600080fd5b506106a560048036038101906106a091906127f7565b611560565b6040516106b2919061279f565b60405180910390f35b3480156106c757600080fd5b506106e260048036038101906106dd9190612d51565b611600565b6040516106ef91906126eb565b60405180910390f35b34801561070457600080fd5b5061070d611694565b005b60007f80ac58cd000000000000000000000000000000000000000000000000000000007bffffffffffffffffffffffffffffffffffffffffffffffffffffffff1916827bffffffffffffffffffffffffffffffffffffffffffffffffffffffff191614806107da57507f5b5e139f000000000000000000000000000000000000000000000000000000007bffffffffffffffffffffffffffffffffffffffffffffffffffffffff1916827bffffffffffffffffffffffffffffffffffffffffffffffffffffffff1916145b806107ea57506107e982611741565b5b9050919050565b600e60009054906101000a900460ff1681565b60606000805461081390612dc0565b80601f016020809104026020016040519081016040528092919081815260200182805461083f90612dc0565b801561088c5780601f106108615761010080835404028352916020019161088c565b820191906000526020600020905b81548152906001019060200180831161086f57829003601f168201915b5050505050905090565b60006108a1826117ab565b6108e0576040517f08c379a00000000000000000000000000000000000000000000000000000000081526004016108d790612e64565b60405180910390fd5b6004600083815260200190815260200160002060009054906101000a900473ffffffffffffffffffffffffffffffffffffffff169050919050565b600061092682610deb565b90508073ffffffffffffffffffffffffffffffffffffffff168373ffffffffffffffffffffffffffffffffffffffff161415610997576040517f08c379a000000000000000000000000000000000000000000000000000000000815260040161098e90612ef6565b60405180910390fd5b8073ffffffffffffffffffffffffffffffffffffffff166109b6611817565b73ffffffffffffffffffffffffffffffffffffffff1614806109e557506109e4816109df611817565b611600565b5b610a24576040517f08c379a0000000000000000000000000000000000000000000000000000000008152600401610a1b90612f88565b60405180910390fd5b610a2e838361181f565b505050565b60095481565b610a4a610a44611817565b826118d8565b610a89576040517f08c379a0000000000000000000000000000000000000000000000000000000008152600401610a809061301a565b60405180910390fd5b610a948383836119b6565b505050565b600660009054906101000a900473ffffffffffffffffffffffffffffffffffffffff1673ffffffffffffffffffffffffffffffffffffffff163373ffffffffffffffffffffffffffffffffffffffff1614610b29576040517f08c379a0000000000000000000000000000000000000000000000000000000008152600401610b20906130ac565b60405180910390fd5b6001600e60006101000a81548160ff021916908315150217905550565b600660009054906101000a900473ffffffffffffffffffffffffffffffffffffffff1673ffffffffffffffffffffffffffffffffffffffff163373ffffffffffffffffffffffffffffffffffffffff1614610bd6576040517f08c379a0000000000000000000000000000000000000000000000000000000008152600401610bcd906130ac565b60405180910390fd5b60004790506000600660009054906101000a900473ffffffffffffffffffffffffffffffffffffffff1673ffffffffffffffffffffffffffffffffffffffff1682604051610c23906130fd565b60006040518083038185875af1925050503d8060008114610c60576040519150601f19603f3d011682016040523d82523d6000602084013e610c65565b606091505b5050905080610c7357600080fd5b5050565b610c92838383604051806020016040528060008152506113c6565b505050565b600b6020528060005260406000206000915090505481565b600660009054906101000a900473ffffffffffffffffffffffffffffffffffffffff1673ffffffffffffffffffffffffffffffffffffffff163373ffffffffffffffffffffffffffffffffffffffff1614610d3f576040517f08c379a0000000000000000000000000000000000000000000000000000000008152600401610d36906130ac565b60405180910390fd5b565b600660009054906101000a900473ffffffffffffffffffffffffffffffffffffffff1673ffffffffffffffffffffffffffffffffffffffff163373ffffffffffffffffffffffffffffffffffffffff1614610dd1576040517f08c379a0000000000000000000000000000000000000000000000000000000008152600401610dc8906130ac565b60405180910390fd5b8060079080519060200190610de7929190612594565b5050565b6000806002600084815260200190815260200160002060009054906101000a900473ffffffffffffffffffffffffffffffffffffffff169050600073ffffffffffffffffffffffffffffffffffffffff168173ffffffffffffffffffffffffffffffffffffffff161415610e94576040517f08c379a0000000000000000000000000000000000000000000000000000000008152600401610e8b90613184565b60405180910390fd5b80915050919050565b60078054610eaa90612dc0565b80601f0160208091040260200160405190810160405280929190818152602001828054610ed690612dc0565b8015610f235780601f10610ef857610100808354040283529160200191610f23565b820191906000526020600020905b815481529060010190602001808311610f0657829003601f168201915b505050505081565b60008073ffffffffffffffffffffffffffffffffffffffff168273ffffffffffffffffffffffffffffffffffffffff161415610f9c576040517f08c379a0000000000000000000000000000000000000000000000000000000008152600401610f9390613216565b60405180910390fd5b600360008373ffffffffffffffffffffffffffffffffffffffff1673ffffffffffffffffffffffffffffffffffffffff168152602001908152602001600020549050919050565b600660009054906101000a900473ffffffffffffffffffffffffffffffffffffffff1673ffffffffffffffffffffffffffffffffffffffff163373ffffffffffffffffffffffffffffffffffffffff1614611073576040517f08c379a000000000000000000000000000000000000000000000000000000000815260040161106a906130ac565b60405180910390fd5b60005b82829050811015611113576001600a600085858581811061109a57611099613236565b5b90506020020160208101906110af9190612969565b73ffffffffffffffffffffffffffffffffffffffff1673ffffffffffffffffffffffffffffffffffffffff16815260200190815260200160002060006101000a81548160ff021916908315150217905550808061110b90613294565b915050611076565b505050565b600660009054906101000a900473ffffffffffffffffffffffffffffffffffffffff1673ffffffffffffffffffffffffffffffffffffffff163373ffffffffffffffffffffffffffffffffffffffff16146111a8576040517f08c379a000000000000000000000000000000000000000000000000000000000815260040161119f906130ac565b60405180910390fd5b8060098190555050565b600660009054906101000a900473ffffffffffffffffffffffffffffffffffffffff1681565b600a6020528060005260406000206000915054906101000a900460ff1681565b60606001805461120790612dc0565b80601f016020809104026020016040519081016040528092919081815260200182805461123390612dc0565b80156112805780601f1061125557610100808354040283529160200191611280565b820191906000526020600020905b81548152906001019060200180831161126357829003601f168201915b5050505050905090565b612710600d5411156112d1576040517f08c379a00000000000000000000000000000000000000000000000000000000081526004016112c890613329565b60405180910390fd5b6112db8133611c12565b60005b818110156113a6576112f233600d54611e5b565b6112fd600d546114b6565b600c6000600d5481526020019081526020016000209080519060200190611325929190612594565b50600b60003373ffffffffffffffffffffffffffffffffffffffff1673ffffffffffffffffffffffffffffffffffffffff168152602001908152602001600020600081548092919061137690613294565b9190505550600d600081548092919061138e90613294565b9190505550808061139e90613294565b9150506112de565b5050565b6113bc6113b5611817565b8383612029565b5050565b600d5481565b6113d76113d1611817565b836118d8565b611416576040517f08c379a000000000000000000000000000000000000000000000000000000000815260040161140d9061301a565b60405180910390fd5b61142284848484612196565b50505050565b6008805461143590612dc0565b80601f016020809104026020016040519081016040528092919081815260200182805461146190612dc0565b80156114ae5780601f10611483576101008083540402835291602001916114ae565b820191906000526020600020905b81548152906001019060200180831161149157829003601f168201915b505050505081565b60606114c1826117ab565b611500576040517f08c379a00000000000000000000000000000000000000000000000000000000081526004016114f7906133bb565b60405180910390fd5b600061150a6121f2565b9050600081511161152a5760405180602001604052806000815250611558565b8061153484612284565b6008604051602001611548939291906134ab565b6040516020818303038152906040525b915050919050565b600c602052806000526040600020600091509050805461157f90612dc0565b80601f01602080910402602001604051908101604052809291908181526020018280546115ab90612dc0565b80156115f85780601f106115cd576101008083540402835291602001916115f8565b820191906000526020600020905b8154815290600101906020018083116115db57829003601f168201915b505050505081565b6000600560008473ffffffffffffffffffffffffffffffffffffffff1673ffffffffffffffffffffffffffffffffffffffff16815260200190815260200160002060008373ffffffffffffffffffffffffffffffffffffffff1673ffffffffffffffffffffffffffffffffffffffff16815260200190815260200160002060009054906101000a900460ff16905092915050565b600660009054906101000a900473ffffffffffffffffffffffffffffffffffffffff1673ffffffffffffffffffffffffffffffffffffffff163373ffffffffffffffffffffffffffffffffffffffff1614611724576040517f08c379a000000000000000000000000000000000000000000000000000000000815260040161171b906130ac565b60405180910390fd5b6000600e60006101000a81548160ff021916908315150217905550565b60007f01ffc9a7000000000000000000000000000000000000000000000000000000007bffffffffffffffffffffffffffffffffffffffffffffffffffffffff1916827bffffffffffffffffffffffffffffffffffffffffffffffffffffffff1916149050919050565b60008073ffffffffffffffffffffffffffffffffffffffff166002600084815260200190815260200160002060009054906101000a900473ffffffffffffffffffffffffffffffffffffffff1673ffffffffffffffffffffffffffffffffffffffff1614159050919050565b600033905090565b816004600083815260200190815260200160002060006101000a81548173ffffffffffffffffffffffffffffffffffffffff021916908373ffffffffffffffffffffffffffffffffffffffff160217905550808273ffffffffffffffffffffffffffffffffffffffff1661189283610deb565b73ffffffffffffffffffffffffffffffffffffffff167f8c5be1e5ebec7d5bd14f71427d1e84f3dd0314c0f7b2291e5b200ac8c7c3b92560405160405180910390a45050565b60006118e3826117ab565b611922576040517f08c379a00000000000000000000000000000000000000000000000000000000081526004016119199061354e565b60405180910390fd5b600061192d83610deb565b90508073ffffffffffffffffffffffffffffffffffffffff168473ffffffffffffffffffffffffffffffffffffffff16148061199c57508373ffffffffffffffffffffffffffffffffffffffff1661198484610896565b73ffffffffffffffffffffffffffffffffffffffff16145b806119ad57506119ac8185611600565b5b91505092915050565b8273ffffffffffffffffffffffffffffffffffffffff166119d682610deb565b73ffffffffffffffffffffffffffffffffffffffff1614611a2c576040517f08c379a0000000000000000000000000000000000000000000000000000000008152600401611a23906135e0565b60405180910390fd5b600073ffffffffffffffffffffffffffffffffffffffff168273ffffffffffffffffffffffffffffffffffffffff161415611a9c576040517f08c379a0000000000000000000000000000000000000000000000000000000008152600401611a9390613672565b60405180910390fd5b611aa78383836123e5565b611ab260008261181f565b6001600360008573ffffffffffffffffffffffffffffffffffffffff1673ffffffffffffffffffffffffffffffffffffffff1681526020019081526020016000206000828254611b029190613692565b925050819055506001600360008473ffffffffffffffffffffffffffffffffffffffff1673ffffffffffffffffffffffffffffffffffffffff1681526020019081526020016000206000828254611b5991906136c6565b92505081905550816002600083815260200190815260200160002060006101000a81548173ffffffffffffffffffffffffffffffffffffffff021916908373ffffffffffffffffffffffffffffffffffffffff160217905550808273ffffffffffffffffffffffffffffffffffffffff168473ffffffffffffffffffffffffffffffffffffffff167fddf252ad1be2c89b69c2b068fc378daa952ba7f163c4a11628f55a4df523b3ef60405160405180910390a4505050565b60011515600e60009054906101000a900460ff16151514611c68576040517f08c379a0000000000000000000000000000000000000000000000000000000008152600401611c5f90613768565b60405180910390fd5b60011515600a60008373ffffffffffffffffffffffffffffffffffffffff1673ffffffffffffffffffffffffffffffffffffffff16815260200190815260200160002060009054906101000a900460ff16151514611cfb576040517f08c379a0000000000000000000000000000000000000000000000000000000008152600401611cf2906137d4565b60405180910390fd5b60095482600b60008473ffffffffffffffffffffffffffffffffffffffff1673ffffffffffffffffffffffffffffffffffffffff16815260200190815260200160002054611d4991906136c6565b1115611d8a576040517f08c379a0000000000000000000000000000000000000000000000000000000008152600401611d8190613866565b60405180910390fd5b6009543073ffffffffffffffffffffffffffffffffffffffff166370a08231836040518263ffffffff1660e01b8152600401611dc69190612865565b60206040518083038186803b158015611dde57600080fd5b505afa158015611df2573d6000803e3d6000fd5b505050506040513d601f19601f82011682018060405250810190611e16919061389b565b1115611e57576040517f08c379a0000000000000000000000000000000000000000000000000000000008152600401611e4e9061393a565b60405180910390fd5b5050565b600073ffffffffffffffffffffffffffffffffffffffff168273ffffffffffffffffffffffffffffffffffffffff161415611ecb576040517f08c379a0000000000000000000000000000000000000000000000000000000008152600401611ec2906139a6565b60405180910390fd5b611ed4816117ab565b15611f14576040517f08c379a0000000000000000000000000000000000000000000000000000000008152600401611f0b90613a12565b60405180910390fd5b611f20600083836123e5565b6001600360008473ffffffffffffffffffffffffffffffffffffffff1673ffffffffffffffffffffffffffffffffffffffff1681526020019081526020016000206000828254611f7091906136c6565b92505081905550816002600083815260200190815260200160002060006101000a81548173ffffffffffffffffffffffffffffffffffffffff021916908373ffffffffffffffffffffffffffffffffffffffff160217905550808273ffffffffffffffffffffffffffffffffffffffff16600073ffffffffffffffffffffffffffffffffffffffff167fddf252ad1be2c89b69c2b068fc378daa952ba7f163c4a11628f55a4df523b3ef60405160405180910390a45050565b8173ffffffffffffffffffffffffffffffffffffffff168373ffffffffffffffffffffffffffffffffffffffff161415612098576040517f08c379a000000000000000000000000000000000000000000000000000000000815260040161208f90613a7e565b60405180910390fd5b80600560008573ffffffffffffffffffffffffffffffffffffffff1673ffffffffffffffffffffffffffffffffffffffff16815260200190815260200160002060008473ffffffffffffffffffffffffffffffffffffffff1673ffffffffffffffffffffffffffffffffffffffff16815260200190815260200160002060006101000a81548160ff0219169083151502179055508173ffffffffffffffffffffffffffffffffffffffff168373ffffffffffffffffffffffffffffffffffffffff167f17307eab39ab6107e8899845ad3d59bd9653f200f220920489ca2b5937696c318360405161218991906126eb565b60405180910390a3505050565b6121a18484846119b6565b6121ad848484846123ea565b6121ec576040517f08c379a00000000000000000000000000000000000000000000000000000000081526004016121e390613b10565b60405180910390fd5b50505050565b60606007805461220190612dc0565b80601f016020809104026020016040519081016040528092919081815260200182805461222d90612dc0565b801561227a5780601f1061224f5761010080835404028352916020019161227a565b820191906000526020600020905b81548152906001019060200180831161225d57829003601f168201915b5050505050905090565b606060008214156122cc576040518060400160405280600181526020017f300000000000000000000000000000000000000000000000000000000000000081525090506123e0565b600082905060005b600082146122fe5780806122e790613294565b915050600a826122f79190613b5f565b91506122d4565b60008167ffffffffffffffff81111561231a576123196129a0565b5b6040519080825280601f01601f19166020018201604052801561234c5781602001600182028036833780820191505090505b5090505b600085146123d9576001826123659190613692565b9150600a856123749190613b90565b603061238091906136c6565b60f81b81838151811061239657612395613236565b5b60200101907effffffffffffffffffffffffffffffffffffffffffffffffffffffffffffff1916908160001a905350600a856123d29190613b5f565b9450612350565b8093505050505b919050565b505050565b600061240b8473ffffffffffffffffffffffffffffffffffffffff16612581565b15612574578373ffffffffffffffffffffffffffffffffffffffff1663150b7a02612434611817565b8786866040518563ffffffff1660e01b81526004016124569493929190613c16565b602060405180830381600087803b15801561247057600080fd5b505af19250505080156124a157506040513d601f19601f8201168201806040525081019061249e9190613c77565b60015b612524573d80600081146124d1576040519150601f19603f3d011682016040523d82523d6000602084013e6124d6565b606091505b5060008151141561251c576040517f08c379a000000000000000000000000000000000000000000000000000000000815260040161251390613b10565b60405180910390fd5b805181602001fd5b63150b7a0260e01b7bffffffffffffffffffffffffffffffffffffffffffffffffffffffff1916817bffffffffffffffffffffffffffffffffffffffffffffffffffffffff191614915050612579565b600190505b949350505050565b600080823b905060008111915050919050565b8280546125a090612dc0565b90600052602060002090601f0160209004810192826125c25760008555612609565b82601f106125db57805160ff1916838001178555612609565b82800160010185558215612609579182015b828111156126085782518255916020019190600101906125ed565b5b509050612616919061261a565b5090565b5b8082111561263357600081600090555060010161261b565b5090565b6000604051905090565b600080fd5b600080fd5b60007fffffffff0000000000000000000000000000000000000000000000000000000082169050919050565b6126808161264b565b811461268b57600080fd5b50565b60008135905061269d81612677565b92915050565b6000602082840312156126b9576126b8612641565b5b60006126c78482850161268e565b91505092915050565b60008115159050919050565b6126e5816126d0565b82525050565b600060208201905061270060008301846126dc565b92915050565b600081519050919050565b600082825260208201905092915050565b60005b83811015612740578082015181840152602081019050612725565b8381111561274f576000848401525b50505050565b6000601f19601f8301169050919050565b600061277182612706565b61277b8185612711565b935061278b818560208601612722565b61279481612755565b840191505092915050565b600060208201905081810360008301526127b98184612766565b905092915050565b6000819050919050565b6127d4816127c1565b81146127df57600080fd5b50565b6000813590506127f1816127cb565b92915050565b60006020828403121561280d5761280c612641565b5b600061281b848285016127e2565b91505092915050565b600073ffffffffffffffffffffffffffffffffffffffff82169050919050565b600061284f82612824565b9050919050565b61285f81612844565b82525050565b600060208201905061287a6000830184612856565b92915050565b61288981612844565b811461289457600080fd5b50565b6000813590506128a681612880565b92915050565b600080604083850312156128c3576128c2612641565b5b60006128d185828601612897565b92505060206128e2858286016127e2565b9150509250929050565b6128f5816127c1565b82525050565b600060208201905061291060008301846128ec565b92915050565b60008060006060848603121561292f5761292e612641565b5b600061293d86828701612897565b935050602061294e86828701612897565b925050604061295f868287016127e2565b9150509250925092565b60006020828403121561297f5761297e612641565b5b600061298d84828501612897565b91505092915050565b600080fd5b600080fd5b7f4e487b7100000000000000000000000000000000000000000000000000000000600052604160045260246000fd5b6129d882612755565b810181811067ffffffffffffffff821117156129f7576129f66129a0565b5b80604052505050565b6000612a0a612637565b9050612a1682826129cf565b919050565b600067ffffffffffffffff821115612a3657612a356129a0565b5b612a3f82612755565b9050602081019050919050565b82818337600083830152505050565b6000612a6e612a6984612a1b565b612a00565b905082815260208101848484011115612a8a57612a8961299b565b5b612a95848285612a4c565b509392505050565b600082601f830112612ab257612ab1612996565b5b8135612ac2848260208601612a5b565b91505092915050565b600060208284031215612ae157612ae0612641565b5b600082013567ffffffffffffffff811115612aff57612afe612646565b5b612b0b84828501612a9d565b91505092915050565b600080fd5b600080fd5b60008083601f840112612b3457612b33612996565b5b8235905067ffffffffffffffff811115612b5157612b50612b14565b5b602083019150836020820283011115612b6d57612b6c612b19565b5b9250929050565b60008060208385031215612b8b57612b8a612641565b5b600083013567ffffffffffffffff811115612ba957612ba8612646565b5b612bb585828601612b1e565b92509250509250929050565b612bca816126d0565b8114612bd557600080fd5b50565b600081359050612be781612bc1565b92915050565b60008060408385031215612c0457612c03612641565b5b6000612c1285828601612897565b9250506020612c2385828601612bd8565b9150509250929050565b600067ffffffffffffffff821115612c4857612c476129a0565b5b612c5182612755565b9050602081019050919050565b6000612c71612c6c84612c2d565b612a00565b905082815260208101848484011115612c8d57612c8c61299b565b5b612c98848285612a4c565b509392505050565b600082601f830112612cb557612cb4612996565b5b8135612cc5848260208601612c5e565b91505092915050565b60008060008060808587031215612ce857612ce7612641565b5b6000612cf687828801612897565b9450506020612d0787828801612897565b9350506040612d18878288016127e2565b925050606085013567ffffffffffffffff811115612d3957612d38612646565b5b612d4587828801612ca0565b91505092959194509250565b60008060408385031215612d6857612d67612641565b5b6000612d7685828601612897565b9250506020612d8785828601612897565b9150509250929050565b7f4e487b7100000000000000000000000000000000000000000000000000000000600052602260045260246000fd5b60006002820490506001821680612dd857607f821691505b60208210811415612dec57612deb612d91565b5b50919050565b7f4552433732313a20617070726f76656420717565727920666f72206e6f6e657860008201527f697374656e7420746f6b656e0000000000000000000000000000000000000000602082015250565b6000612e4e602c83612711565b9150612e5982612df2565b604082019050919050565b60006020820190508181036000830152612e7d81612e41565b9050919050565b7f4552433732313a20617070726f76616c20746f2063757272656e74206f776e6560008201527f7200000000000000000000000000000000000000000000000000000000000000602082015250565b6000612ee0602183612711565b9150612eeb82612e84565b604082019050919050565b60006020820190508181036000830152612f0f81612ed3565b9050919050565b7f4552433732313a20617070726f76652063616c6c6572206973206e6f74206f7760008201527f6e6572206e6f7220617070726f76656420666f7220616c6c0000000000000000602082015250565b6000612f72603883612711565b9150612f7d82612f16565b604082019050919050565b60006020820190508181036000830152612fa181612f65565b9050919050565b7f4552433732313a207472616e736665722063616c6c6572206973206e6f74206f60008201527f776e6572206e6f7220617070726f766564000000000000000000000000000000602082015250565b6000613004603183612711565b915061300f82612fa8565b604082019050919050565b6000602082019050818103600083015261303381612ff7565b9050919050565b7f6f6e6c79206f776e65722063616e20706572666f726d2074686973206163746960008201527f6f6e000000000000000000000000000000000000000000000000000000000000602082015250565b6000613096602283612711565b91506130a18261303a565b604082019050919050565b600060208201905081810360008301526130c581613089565b9050919050565b600081905092915050565b50565b60006130e76000836130cc565b91506130f2826130d7565b600082019050919050565b6000613108826130da565b9150819050919050565b7f4552433732313a206f776e657220717565727920666f72206e6f6e657869737460008201527f656e7420746f6b656e0000000000000000000000000000000000000000000000602082015250565b600061316e602983612711565b915061317982613112565b604082019050919050565b6000602082019050818103600083015261319d81613161565b9050919050565b7f4552433732313a2062616c616e636520717565727920666f7220746865207a6560008201527f726f206164647265737300000000000000000000000000000000000000000000602082015250565b6000613200602a83612711565b915061320b826131a4565b604082019050919050565b6000602082019050818103600083015261322f816131f3565b9050919050565b7f4e487b7100000000000000000000000000000000000000000000000000000000600052603260045260246000fd5b7f4e487b7100000000000000000000000000000000000000000000000000000000600052601160045260246000fd5b600061329f826127c1565b91507fffffffffffffffffffffffffffffffffffffffffffffffffffffffffffffffff8214156132d2576132d1613265565b5b600182019050919050565b7f4e6f206d6f7265206e66747320617661696c61626c6520746f206d696e740000600082015250565b6000613313601e83612711565b915061331e826132dd565b602082019050919050565b6000602082019050818103600083015261334281613306565b9050919050565b7f4552433732314d657461646174613a2055524920717565727920666f72206e6f60008201527f6e6578697374656e7420746f6b656e0000000000000000000000000000000000602082015250565b60006133a5602f83612711565b91506133b082613349565b604082019050919050565b600060208201905081810360008301526133d481613398565b9050919050565b600081905092915050565b60006133f182612706565b6133fb81856133db565b935061340b818560208601612722565b80840191505092915050565b60008190508160005260206000209050919050565b6000815461343981612dc0565b61344381866133db565b9450600182166000811461345e576001811461346f576134a2565b60ff198316865281860193506134a2565b61347885613417565b60005b8381101561349a5781548189015260018201915060208101905061347b565b838801955050505b50505092915050565b60006134b782866133e6565b91506134c382856133e6565b91506134cf828461342c565b9150819050949350505050565b7f4552433732313a206f70657261746f7220717565727920666f72206e6f6e657860008201527f697374656e7420746f6b656e0000000000000000000000000000000000000000602082015250565b6000613538602c83612711565b9150613543826134dc565b604082019050919050565b600060208201905081810360008301526135678161352b565b9050919050565b7f4552433732313a207472616e73666572206f6620746f6b656e2074686174206960008201527f73206e6f74206f776e0000000000000000000000000000000000000000000000602082015250565b60006135ca602983612711565b91506135d58261356e565b604082019050919050565b600060208201905081810360008301526135f9816135bd565b9050919050565b7f4552433732313a207472616e7366657220746f20746865207a65726f2061646460008201527f7265737300000000000000000000000000000000000000000000000000000000602082015250565b600061365c602483612711565b915061366782613600565b604082019050919050565b6000602082019050818103600083015261368b8161364f565b9050919050565b600061369d826127c1565b91506136a8836127c1565b9250828210156136bb576136ba613265565b5b828203905092915050565b60006136d1826127c1565b91506136dc836127c1565b9250827fffffffffffffffffffffffffffffffffffffffffffffffffffffffffffffffff0382111561371157613710613265565b5b828201905092915050565b7f4d696e74206973206e6f74206f6e000000000000000000000000000000000000600082015250565b6000613752600e83612711565b915061375d8261371c565b602082019050919050565b6000602082019050818103600083015261378181613745565b9050919050565b7f757365722061646472657373206973206e6f74206f6e2077686974656c697374600082015250565b60006137be602083612711565b91506137c982613788565b602082019050919050565b600060208201905081810360008301526137ed816137b1565b9050919050565b7f4163636f756e7420416464726573732072656163686564206c696d6974206f6e60008201527f20546f6b656e7300000000000000000000000000000000000000000000000000602082015250565b6000613850602783612711565b915061385b826137f4565b604082019050919050565b6000602082019050818103600083015261387f81613843565b9050919050565b600081519050613895816127cb565b92915050565b6000602082840312156138b1576138b0612641565b5b60006138bf84828501613886565b91505092915050565b7f6d617820616d6f756e7420796f752063616e20686176652069732032206e667460008201527f7300000000000000000000000000000000000000000000000000000000000000602082015250565b6000613924602183612711565b915061392f826138c8565b604082019050919050565b6000602082019050818103600083015261395381613917565b9050919050565b7f4552433732313a206d696e7420746f20746865207a65726f2061646472657373600082015250565b6000613990602083612711565b915061399b8261395a565b602082019050919050565b600060208201905081810360008301526139bf81613983565b9050919050565b7f4552433732313a20746f6b656e20616c7265616479206d696e74656400000000600082015250565b60006139fc601c83612711565b9150613a07826139c6565b602082019050919050565b60006020820190508181036000830152613a2b816139ef565b9050919050565b7f4552433732313a20617070726f766520746f2063616c6c657200000000000000600082015250565b6000613a68601983612711565b9150613a7382613a32565b602082019050919050565b60006020820190508181036000830152613a9781613a5b565b9050919050565b7f4552433732313a207472616e7366657220746f206e6f6e20455243373231526560008201527f63656976657220696d706c656d656e7465720000000000000000000000000000602082015250565b6000613afa603283612711565b9150613b0582613a9e565b604082019050919050565b60006020820190508181036000830152613b2981613aed565b9050919050565b7f4e487b7100000000000000000000000000000000000000000000000000000000600052601260045260246000fd5b6000613b6a826127c1565b9150613b75836127c1565b925082613b8557613b84613b30565b5b828204905092915050565b6000613b9b826127c1565b9150613ba6836127c1565b925082613bb657613bb5613b30565b5b828206905092915050565b600081519050919050565b600082825260208201905092915050565b6000613be882613bc1565b613bf28185613bcc565b9350613c02818560208601612722565b613c0b81612755565b840191505092915050565b6000608082019050613c2b6000830187612856565b613c386020830186612856565b613c4560408301856128ec565b8181036060830152613c578184613bdd565b905095945050505050565b600081519050613c7181612677565b92915050565b600060208284031215613c8d57613c8c612641565b5b6000613c9b84828501613c62565b9150509291505056fea26469706673582212202e604c8f34dcd2dcddfa487fd5abde052163e967b0a534bdd069386a26575bce64736f6c63430008090033",
  "linkReferences": {},
  "deployedLinkReferences": {}
}