{
  "_format": "hh-sol-artifact-1",
  "contractName": "F1_NFT",
  "sourceName": "contracts/F1_NFT.sol",
  "abi": [
    {
      "inputs": [
        {
          "internalType": "uint256",
          "name": "_whiteListPrice",
          "type": "uint256"
        },
        {
          "internalType": "uint256",
          "name": "_mainSalePrice",
          "type": "uint256"
        },
        {
          "internalType": "string",
          "name": "_newBaseURI",
          "type": "string"
        }
      ],
      "stateMutability": "nonpayable",
      "type": "constructor"
    },
    {
      "anonymous": false,
      "inputs": [
        {
          "indexed": true,
          "internalType": "address",
          "name": "owner",
          "type": "address"
        },
        {
          "indexed": true,
          "internalType": "address",
          "name": "approved",
          "type": "address"
        },
        {
          "indexed": true,
          "internalType": "uint256",
          "name": "tokenId",
          "type": "uint256"
        }
      ],
      "name": "Approval",
      "type": "event"
    },
    {
      "anonymous": false,
      "inputs": [
        {
          "indexed": true,
          "internalType": "address",
          "name": "owner",
          "type": "address"
        },
        {
          "indexed": true,
          "internalType": "address",
          "name": "operator",
          "type": "address"
        },
        {
          "indexed": false,
          "internalType": "bool",
          "name": "approved",
          "type": "bool"
        }
      ],
      "name": "ApprovalForAll",
      "type": "event"
    },
    {
      "anonymous": false,
      "inputs": [
        {
          "indexed": true,
          "internalType": "address",
          "name": "from",
          "type": "address"
        },
        {
          "indexed": true,
          "internalType": "address",
          "name": "to",
          "type": "address"
        },
        {
          "indexed": true,
          "internalType": "uint256",
          "name": "tokenId",
          "type": "uint256"
        }
      ],
      "name": "Transfer",
      "type": "event"
    },
    {
      "inputs": [],
      "name": "MAIN_SALE_NFT_LIMIT",
      "outputs": [
        {
          "internalType": "uint256",
          "name": "",
          "type": "uint256"
        }
      ],
      "stateMutability": "view",
      "type": "function"
    },
    {
      "inputs": [],
      "name": "MAX_MAIN_MINT_AMOUNT",
      "outputs": [
        {
          "internalType": "uint256",
          "name": "",
          "type": "uint256"
        }
      ],
      "stateMutability": "view",
      "type": "function"
    },
    {
      "inputs": [],
      "name": "MAX_WHITELIST_MINT_AMOUNT",
      "outputs": [
        {
          "internalType": "uint256",
          "name": "",
          "type": "uint256"
        }
      ],
      "stateMutability": "view",
      "type": "function"
    },
    {
      "inputs": [],
      "name": "WHITELIST_NFT_LIMIT",
      "outputs": [
        {
          "internalType": "uint256",
          "name": "",
          "type": "uint256"
        }
      ],
      "stateMutability": "view",
      "type": "function"
    },
    {
      "inputs": [
        {
          "internalType": "address[]",
          "name": "addresses",
          "type": "address[]"
        }
      ],
      "name": "addToWhiteList",
      "outputs": [],
      "stateMutability": "nonpayable",
      "type": "function"
    },
    {
      "inputs": [
        {
          "internalType": "address",
          "name": "",
          "type": "address"
        }
      ],
      "name": "addressTokenCount",
      "outputs": [
        {
          "internalType": "uint256",
          "name": "",
          "type": "uint256"
        }
      ],
      "stateMutability": "view",
      "type": "function"
    },
    {
      "inputs": [],
      "name": "advancePhase",
      "outputs": [],
      "stateMutability": "nonpayable",
      "type": "function"
    },
    {
      "inputs": [
        {
          "internalType": "address",
          "name": "to",
          "type": "address"
        },
        {
          "internalType": "uint256",
          "name": "tokenId",
          "type": "uint256"
        }
      ],
      "name": "approve",
      "outputs": [],
      "stateMutability": "nonpayable",
      "type": "function"
    },
    {
      "inputs": [
        {
          "internalType": "address",
          "name": "owner",
          "type": "address"
        }
      ],
      "name": "balanceOf",
      "outputs": [
        {
          "internalType": "uint256",
          "name": "",
          "type": "uint256"
        }
      ],
      "stateMutability": "view",
      "type": "function"
    },
    {
      "inputs": [],
      "name": "baseExtension",
      "outputs": [
        {
          "internalType": "string",
          "name": "",
          "type": "string"
        }
      ],
      "stateMutability": "view",
      "type": "function"
    },
    {
      "inputs": [],
      "name": "baseURI",
      "outputs": [
        {
          "internalType": "string",
          "name": "",
          "type": "string"
        }
      ],
      "stateMutability": "view",
      "type": "function"
    },
    {
      "inputs": [
        {
          "internalType": "uint256",
          "name": "tokenId",
          "type": "uint256"
        }
      ],
      "name": "getApproved",
      "outputs": [
        {
          "internalType": "address",
          "name": "",
          "type": "address"
        }
      ],
      "stateMutability": "view",
      "type": "function"
    },
    {
      "inputs": [
        {
          "internalType": "address",
          "name": "owner",
          "type": "address"
        },
        {
          "internalType": "address",
          "name": "operator",
          "type": "address"
        }
      ],
      "name": "isApprovedForAll",
      "outputs": [
        {
          "internalType": "bool",
          "name": "",
          "type": "bool"
        }
      ],
      "stateMutability": "view",
      "type": "function"
    },
    {
      "inputs": [],
      "name": "mainSalePrice",
      "outputs": [
        {
          "internalType": "uint256",
          "name": "",
          "type": "uint256"
        }
      ],
      "stateMutability": "view",
      "type": "function"
    },
    {
      "inputs": [
        {
          "internalType": "uint256",
          "name": "nftAmountToMint",
          "type": "uint256"
        }
      ],
      "name": "mint",
      "outputs": [],
      "stateMutability": "payable",
      "type": "function"
    },
    {
      "inputs": [],
      "name": "name",
      "outputs": [
        {
          "internalType": "string",
          "name": "",
          "type": "string"
        }
      ],
      "stateMutability": "view",
      "type": "function"
    },
    {
      "inputs": [],
      "name": "owner",
      "outputs": [
        {
          "internalType": "address",
          "name": "",
          "type": "address"
        }
      ],
      "stateMutability": "view",
      "type": "function"
    },
    {
      "inputs": [
        {
          "internalType": "uint256",
          "name": "tokenId",
          "type": "uint256"
        }
      ],
      "name": "ownerOf",
      "outputs": [
        {
          "internalType": "address",
          "name": "",
          "type": "address"
        }
      ],
      "stateMutability": "view",
      "type": "function"
    },
    {
      "inputs": [
        {
          "internalType": "address",
          "name": "from",
          "type": "address"
        },
        {
          "internalType": "address",
          "name": "to",
          "type": "address"
        },
        {
          "internalType": "uint256",
          "name": "tokenId",
          "type": "uint256"
        }
      ],
      "name": "safeTransferFrom",
      "outputs": [],
      "stateMutability": "nonpayable",
      "type": "function"
    },
    {
      "inputs": [
        {
          "internalType": "address",
          "name": "from",
          "type": "address"
        },
        {
          "internalType": "address",
          "name": "to",
          "type": "address"
        },
        {
          "internalType": "uint256",
          "name": "tokenId",
          "type": "uint256"
        },
        {
          "internalType": "bytes",
          "name": "_data",
          "type": "bytes"
        }
      ],
      "name": "safeTransferFrom",
      "outputs": [],
      "stateMutability": "nonpayable",
      "type": "function"
    },
    {
      "inputs": [
        {
          "internalType": "address",
          "name": "operator",
          "type": "address"
        },
        {
          "internalType": "bool",
          "name": "approved",
          "type": "bool"
        }
      ],
      "name": "setApprovalForAll",
      "outputs": [],
      "stateMutability": "nonpayable",
      "type": "function"
    },
    {
      "inputs": [
        {
          "internalType": "string",
          "name": "_newBaseURI",
          "type": "string"
        }
      ],
      "name": "setBaseURI",
      "outputs": [],
      "stateMutability": "nonpayable",
      "type": "function"
    },
    {
      "inputs": [
        {
          "internalType": "uint256",
          "name": "price",
          "type": "uint256"
        }
      ],
      "name": "setMainSalePrice",
      "outputs": [],
      "stateMutability": "nonpayable",
      "type": "function"
    },
    {
      "inputs": [
        {
          "internalType": "bytes4",
          "name": "interfaceId",
          "type": "bytes4"
        }
      ],
      "name": "supportsInterface",
      "outputs": [
        {
          "internalType": "bool",
          "name": "",
          "type": "bool"
        }
      ],
      "stateMutability": "view",
      "type": "function"
    },
    {
      "inputs": [],
      "name": "symbol",
      "outputs": [
        {
          "internalType": "string",
          "name": "",
          "type": "string"
        }
      ],
      "stateMutability": "view",
      "type": "function"
    },
    {
      "inputs": [],
      "name": "tokenID",
      "outputs": [
        {
          "internalType": "uint256",
          "name": "",
          "type": "uint256"
        }
      ],
      "stateMutability": "view",
      "type": "function"
    },
    {
      "inputs": [
        {
          "internalType": "uint256",
          "name": "tokenId",
          "type": "uint256"
        }
      ],
      "name": "tokenURI",
      "outputs": [
        {
          "internalType": "string",
          "name": "",
          "type": "string"
        }
      ],
      "stateMutability": "view",
      "type": "function"
    },
    {
      "inputs": [
        {
          "internalType": "address",
          "name": "from",
          "type": "address"
        },
        {
          "internalType": "address",
          "name": "to",
          "type": "address"
        },
        {
          "internalType": "uint256",
          "name": "tokenId",
          "type": "uint256"
        }
      ],
      "name": "transferFrom",
      "outputs": [],
      "stateMutability": "nonpayable",
      "type": "function"
    },
    {
      "inputs": [
        {
          "internalType": "uint256",
          "name": "",
          "type": "uint256"
        }
      ],
      "name": "uriMap",
      "outputs": [
        {
          "internalType": "string",
          "name": "",
          "type": "string"
        }
      ],
      "stateMutability": "view",
      "type": "function"
    },
    {
      "inputs": [
        {
          "internalType": "address",
          "name": "",
          "type": "address"
        }
      ],
      "name": "whiteListAddresses",
      "outputs": [
        {
          "internalType": "bool",
          "name": "",
          "type": "bool"
        }
      ],
      "stateMutability": "view",
      "type": "function"
    },
    {
      "inputs": [],
      "name": "whiteListPrice",
      "outputs": [
        {
          "internalType": "uint256",
          "name": "",
          "type": "uint256"
        }
      ],
      "stateMutability": "view",
      "type": "function"
    }
  ],
  "bytecode": "0x60806040526040518060400160405280600581526020017f2e6a736f6e00000000000000000000000000000000000000000000000000000081525060089080519060200190620000519291906200023d565b503480156200005f57600080fd5b5060405162004549380380620045498339818101604052810190620000859190620004c5565b6040518060400160405280600681526020017f66315f44414f00000000000000000000000000000000000000000000000000008152506040518060400160405280600281526020017f66310000000000000000000000000000000000000000000000000000000000008152508160009080519060200190620001099291906200023d565b508060019080519060200190620001229291906200023d565b50505033600660006101000a81548173ffffffffffffffffffffffffffffffffffffffff021916908373ffffffffffffffffffffffffffffffffffffffff1602179055508260098190555081600a8190555062000185816200018e60201b60201c565b5050506200064e565b600660009054906101000a900473ffffffffffffffffffffffffffffffffffffffff1673ffffffffffffffffffffffffffffffffffffffff163373ffffffffffffffffffffffffffffffffffffffff161462000221576040517f08c379a00000000000000000000000000000000000000000000000000000000081526004016200021890620005c7565b60405180910390fd5b8060079080519060200190620002399291906200023d565b5050565b8280546200024b9062000618565b90600052602060002090601f0160209004810192826200026f5760008555620002bb565b82601f106200028a57805160ff1916838001178555620002bb565b82800160010185558215620002bb579182015b82811115620002ba5782518255916020019190600101906200029d565b5b509050620002ca9190620002ce565b5090565b5b80821115620002e9576000816000905550600101620002cf565b5090565b6000604051905090565b600080fd5b600080fd5b6000819050919050565b620003168162000301565b81146200032257600080fd5b50565b60008151905062000336816200030b565b92915050565b600080fd5b600080fd5b6000601f19601f8301169050919050565b7f4e487b7100000000000000000000000000000000000000000000000000000000600052604160045260246000fd5b620003918262000346565b810181811067ffffffffffffffff82111715620003b357620003b262000357565b5b80604052505050565b6000620003c8620002ed565b9050620003d6828262000386565b919050565b600067ffffffffffffffff821115620003f957620003f862000357565b5b620004048262000346565b9050602081019050919050565b60005b838110156200043157808201518184015260208101905062000414565b8381111562000441576000848401525b50505050565b60006200045e6200045884620003db565b620003bc565b9050828152602081018484840111156200047d576200047c62000341565b5b6200048a84828562000411565b509392505050565b600082601f830112620004aa57620004a96200033c565b5b8151620004bc84826020860162000447565b91505092915050565b600080600060608486031215620004e157620004e0620002f7565b5b6000620004f18682870162000325565b9350506020620005048682870162000325565b925050604084015167ffffffffffffffff811115620005285762000527620002fc565b5b620005368682870162000492565b9150509250925092565b600082825260208201905092915050565b7f6f6e6c79206f776e65722063616e20706572666f726d2074686973206163746960008201527f6f6e000000000000000000000000000000000000000000000000000000000000602082015250565b6000620005af60228362000540565b9150620005bc8262000551565b604082019050919050565b60006020820190508181036000830152620005e281620005a0565b9050919050565b7f4e487b7100000000000000000000000000000000000000000000000000000000600052602260045260246000fd5b600060028204905060018216806200063157607f821691505b60208210811415620006485762000647620005e9565b5b50919050565b613eeb806200065e6000396000f3fe6080604052600436106101d85760003560e01c80638da5cb5b11610102578063b88d4fde11610095578063dd2eb9f311610064578063dd2eb9f3146106b3578063e985e9c5146106f0578063f07bba651461072d578063fd0e68fd14610756576101d8565b8063b88d4fde1461060b578063be25a71814610634578063c66828621461064b578063c87b56dd14610676576101d8565b8063a22cb465116100d1578063a22cb46514610561578063a5c42ef11461058a578063aa143023146105b5578063aef19d2f146105e0576101d8565b80638da5cb5b146104b2578063920674dc146104dd57806395d89b411461051a578063a0712d6814610545576101d8565b806342842e0e1161017a578063685756851161014957806368575685146103f65780636c0360eb1461042157806370a082311461044c578063740d73f314610489576101d8565b806342842e0e1461032a578063474dd97d1461035357806355f804b3146103905780636352211e146103b9576101d8565b8063081812fc116101b6578063081812fc14610270578063095ea7b3146102ad5780631f9d8783146102d657806323b872dd14610301576101d8565b806301ffc9a7146101dd578063040c2fc31461021a57806306fdde0314610245575b600080fd5b3480156101e957600080fd5b5061020460048036038101906101ff91906126cf565b610781565b6040516102119190612717565b60405180910390f35b34801561022657600080fd5b5061022f610863565b60405161023c919061274b565b60405180910390f35b34801561025157600080fd5b5061025a610868565b60405161026791906127ff565b60405180910390f35b34801561027c57600080fd5b506102976004803603810190610292919061284d565b6108fa565b6040516102a491906128bb565b60405180910390f35b3480156102b957600080fd5b506102d460048036038101906102cf9190612902565b61097f565b005b3480156102e257600080fd5b506102eb610a97565b6040516102f8919061274b565b60405180910390f35b34801561030d57600080fd5b5061032860048036038101906103239190612942565b610a9d565b005b34801561033657600080fd5b50610351600480360381019061034c9190612942565b610afd565b005b34801561035f57600080fd5b5061037a60048036038101906103759190612995565b610b1d565b604051610387919061274b565b60405180910390f35b34801561039c57600080fd5b506103b760048036038101906103b29190612af7565b610b35565b005b3480156103c557600080fd5b506103e060048036038101906103db919061284d565b610bdf565b6040516103ed91906128bb565b60405180910390f35b34801561040257600080fd5b5061040b610c91565b604051610418919061274b565b60405180910390f35b34801561042d57600080fd5b50610436610c97565b60405161044391906127ff565b60405180910390f35b34801561045857600080fd5b50610473600480360381019061046e9190612995565b610d25565b604051610480919061274b565b60405180910390f35b34801561049557600080fd5b506104b060048036038101906104ab9190612ba0565b610ddd565b005b3480156104be57600080fd5b506104c7610f12565b6040516104d491906128bb565b60405180910390f35b3480156104e957600080fd5b5061050460048036038101906104ff9190612995565b610f38565b6040516105119190612717565b60405180910390f35b34801561052657600080fd5b5061052f610f58565b60405161053c91906127ff565b60405180910390f35b61055f600480360381019061055a919061284d565b610fea565b005b34801561056d57600080fd5b5061058860048036038101906105839190612c19565b6111ee565b005b34801561059657600080fd5b5061059f611204565b6040516105ac919061274b565b60405180910390f35b3480156105c157600080fd5b506105ca61120a565b6040516105d7919061274b565b60405180910390f35b3480156105ec57600080fd5b506105f561120f565b604051610602919061274b565b60405180910390f35b34801561061757600080fd5b50610632600480360381019061062d9190612cfa565b611215565b005b34801561064057600080fd5b50610649611277565b005b34801561065757600080fd5b50610660611372565b60405161066d91906127ff565b60405180910390f35b34801561068257600080fd5b5061069d6004803603810190610698919061284d565b611400565b6040516106aa91906127ff565b60405180910390f35b3480156106bf57600080fd5b506106da60048036038101906106d5919061284d565b6114aa565b6040516106e791906127ff565b60405180910390f35b3480156106fc57600080fd5b5061071760048036038101906107129190612d7d565b61154a565b6040516107249190612717565b60405180910390f35b34801561073957600080fd5b50610754600480360381019061074f919061284d565b6115de565b005b34801561076257600080fd5b5061076b611678565b604051610778919061274b565b60405180910390f35b60007f80ac58cd000000000000000000000000000000000000000000000000000000007bffffffffffffffffffffffffffffffffffffffffffffffffffffffff1916827bffffffffffffffffffffffffffffffffffffffffffffffffffffffff1916148061084c57507f5b5e139f000000000000000000000000000000000000000000000000000000007bffffffffffffffffffffffffffffffffffffffffffffffffffffffff1916827bffffffffffffffffffffffffffffffffffffffffffffffffffffffff1916145b8061085c575061085b8261167e565b5b9050919050565b600581565b60606000805461087790612dec565b80601f01602080910402602001604051908101604052809291908181526020018280546108a390612dec565b80156108f05780601f106108c5576101008083540402835291602001916108f0565b820191906000526020600020905b8154815290600101906020018083116108d357829003601f168201915b5050505050905090565b6000610905826116e8565b610944576040517f08c379a000000000000000000000000000000000000000000000000000000000815260040161093b90612e90565b60405180910390fd5b6004600083815260200190815260200160002060009054906101000a900473ffffffffffffffffffffffffffffffffffffffff169050919050565b600061098a82610bdf565b90508073ffffffffffffffffffffffffffffffffffffffff168373ffffffffffffffffffffffffffffffffffffffff1614156109fb576040517f08c379a00000000000000000000000000000000000000000000000000000000081526004016109f290612f22565b60405180910390fd5b8073ffffffffffffffffffffffffffffffffffffffff16610a1a611754565b73ffffffffffffffffffffffffffffffffffffffff161480610a495750610a4881610a43611754565b61154a565b5b610a88576040517f08c379a0000000000000000000000000000000000000000000000000000000008152600401610a7f90612fb4565b60405180910390fd5b610a92838361175c565b505050565b61251c81565b610aae610aa8611754565b82611815565b610aed576040517f08c379a0000000000000000000000000000000000000000000000000000000008152600401610ae490613046565b60405180910390fd5b610af88383836118f3565b505050565b610b1883838360405180602001604052806000815250611215565b505050565b600c6020528060005260406000206000915090505481565b600660009054906101000a900473ffffffffffffffffffffffffffffffffffffffff1673ffffffffffffffffffffffffffffffffffffffff163373ffffffffffffffffffffffffffffffffffffffff1614610bc5576040517f08c379a0000000000000000000000000000000000000000000000000000000008152600401610bbc906130d8565b60405180910390fd5b8060079080519060200190610bdb9291906125c0565b5050565b6000806002600084815260200190815260200160002060009054906101000a900473ffffffffffffffffffffffffffffffffffffffff169050600073ffffffffffffffffffffffffffffffffffffffff168173ffffffffffffffffffffffffffffffffffffffff161415610c88576040517f08c379a0000000000000000000000000000000000000000000000000000000008152600401610c7f9061316a565b60405180910390fd5b80915050919050565b60095481565b60078054610ca490612dec565b80601f0160208091040260200160405190810160405280929190818152602001828054610cd090612dec565b8015610d1d5780601f10610cf257610100808354040283529160200191610d1d565b820191906000526020600020905b815481529060010190602001808311610d0057829003601f168201915b505050505081565b60008073ffffffffffffffffffffffffffffffffffffffff168273ffffffffffffffffffffffffffffffffffffffff161415610d96576040517f08c379a0000000000000000000000000000000000000000000000000000000008152600401610d8d906131fc565b60405180910390fd5b600360008373ffffffffffffffffffffffffffffffffffffffff1673ffffffffffffffffffffffffffffffffffffffff168152602001908152602001600020549050919050565b600660009054906101000a900473ffffffffffffffffffffffffffffffffffffffff1673ffffffffffffffffffffffffffffffffffffffff163373ffffffffffffffffffffffffffffffffffffffff1614610e6d576040517f08c379a0000000000000000000000000000000000000000000000000000000008152600401610e64906130d8565b60405180910390fd5b60005b82829050811015610f0d576001600b6000858585818110610e9457610e9361321c565b5b9050602002016020810190610ea99190612995565b73ffffffffffffffffffffffffffffffffffffffff1673ffffffffffffffffffffffffffffffffffffffff16815260200190815260200160002060006101000a81548160ff0219169083151502179055508080610f059061327a565b915050610e70565b505050565b600660009054906101000a900473ffffffffffffffffffffffffffffffffffffffff1681565b600b6020528060005260406000206000915054906101000a900460ff1681565b606060018054610f6790612dec565b80601f0160208091040260200160405190810160405280929190818152602001828054610f9390612dec565b8015610fe05780601f10610fb557610100808354040283529160200191610fe0565b820191906000526020600020905b815481529060010190602001808311610fc357829003601f168201915b5050505050905090565b60006003811115610ffe57610ffd6132c3565b5b600f60009054906101000a900460ff1660038111156110205761101f6132c3565b5b1415611061576040517f08c379a00000000000000000000000000000000000000000000000000000000081526004016110589061333e565b60405180910390fd5b600380811115611074576110736132c3565b5b600f60009054906101000a900460ff166003811115611096576110956132c3565b5b14156110d7576040517f08c379a00000000000000000000000000000000000000000000000000000000081526004016110ce906133aa565b60405180910390fd5b600160038111156110eb576110ea6132c3565b5b600f60009054906101000a900460ff16600381111561110d5761110c6132c3565b5b141561111f5761111e813433611b4f565b5b60005b818110156111ea5761113633600e54611e87565b611141600e54611400565b600d6000600e54815260200190815260200160002090805190602001906111699291906125c0565b50600c60003373ffffffffffffffffffffffffffffffffffffffff1673ffffffffffffffffffffffffffffffffffffffff16815260200190815260200160002060008154809291906111ba9061327a565b9190505550600e60008154809291906111d29061327a565b919050555080806111e29061327a565b915050611122565b5050565b6112006111f9611754565b8383612055565b5050565b600e5481565b600881565b600a5481565b611226611220611754565b83611815565b611265576040517f08c379a000000000000000000000000000000000000000000000000000000000815260040161125c90613046565b60405180910390fd5b611271848484846121c2565b50505050565b600660009054906101000a900473ffffffffffffffffffffffffffffffffffffffff1673ffffffffffffffffffffffffffffffffffffffff163373ffffffffffffffffffffffffffffffffffffffff1614611307576040517f08c379a00000000000000000000000000000000000000000000000000000000081526004016112fe906130d8565b60405180910390fd5b6001600f60009054906101000a900460ff16600381111561132b5761132a6132c3565b5b61133591906133ca565b6003811115611347576113466132c3565b5b600f60006101000a81548160ff0219169083600381111561136b5761136a6132c3565b5b0217905550565b6008805461137f90612dec565b80601f01602080910402602001604051908101604052809291908181526020018280546113ab90612dec565b80156113f85780601f106113cd576101008083540402835291602001916113f8565b820191906000526020600020905b8154815290600101906020018083116113db57829003601f168201915b505050505081565b606061140b826116e8565b61144a576040517f08c379a000000000000000000000000000000000000000000000000000000000815260040161144190613492565b60405180910390fd5b600061145461221e565b9050600081511161147457604051806020016040528060008152506114a2565b8061147e846122b0565b600860405160200161149293929190613582565b6040516020818303038152906040525b915050919050565b600d60205280600052604060002060009150905080546114c990612dec565b80601f01602080910402602001604051908101604052809291908181526020018280546114f590612dec565b80156115425780601f1061151757610100808354040283529160200191611542565b820191906000526020600020905b81548152906001019060200180831161152557829003601f168201915b505050505081565b6000600560008473ffffffffffffffffffffffffffffffffffffffff1673ffffffffffffffffffffffffffffffffffffffff16815260200190815260200160002060008373ffffffffffffffffffffffffffffffffffffffff1673ffffffffffffffffffffffffffffffffffffffff16815260200190815260200160002060009054906101000a900460ff16905092915050565b600660009054906101000a900473ffffffffffffffffffffffffffffffffffffffff1673ffffffffffffffffffffffffffffffffffffffff163373ffffffffffffffffffffffffffffffffffffffff161461166e576040517f08c379a0000000000000000000000000000000000000000000000000000000008152600401611665906130d8565b60405180910390fd5b80600a8190555050565b6101f481565b60007f01ffc9a7000000000000000000000000000000000000000000000000000000007bffffffffffffffffffffffffffffffffffffffffffffffffffffffff1916827bffffffffffffffffffffffffffffffffffffffffffffffffffffffff1916149050919050565b60008073ffffffffffffffffffffffffffffffffffffffff166002600084815260200190815260200160002060009054906101000a900473ffffffffffffffffffffffffffffffffffffffff1673ffffffffffffffffffffffffffffffffffffffff1614159050919050565b600033905090565b816004600083815260200190815260200160002060006101000a81548173ffffffffffffffffffffffffffffffffffffffff021916908373ffffffffffffffffffffffffffffffffffffffff160217905550808273ffffffffffffffffffffffffffffffffffffffff166117cf83610bdf565b73ffffffffffffffffffffffffffffffffffffffff167f8c5be1e5ebec7d5bd14f71427d1e84f3dd0314c0f7b2291e5b200ac8c7c3b92560405160405180910390a45050565b6000611820826116e8565b61185f576040517f08c379a000000000000000000000000000000000000000000000000000000000815260040161185690613625565b60405180910390fd5b600061186a83610bdf565b90508073ffffffffffffffffffffffffffffffffffffffff168473ffffffffffffffffffffffffffffffffffffffff1614806118d957508373ffffffffffffffffffffffffffffffffffffffff166118c1846108fa565b73ffffffffffffffffffffffffffffffffffffffff16145b806118ea57506118e9818561154a565b5b91505092915050565b8273ffffffffffffffffffffffffffffffffffffffff1661191382610bdf565b73ffffffffffffffffffffffffffffffffffffffff1614611969576040517f08c379a0000000000000000000000000000000000000000000000000000000008152600401611960906136b7565b60405180910390fd5b600073ffffffffffffffffffffffffffffffffffffffff168273ffffffffffffffffffffffffffffffffffffffff1614156119d9576040517f08c379a00000000000000000000000000000000000000000000000000000000081526004016119d090613749565b60405180910390fd5b6119e4838383612411565b6119ef60008261175c565b6001600360008573ffffffffffffffffffffffffffffffffffffffff1673ffffffffffffffffffffffffffffffffffffffff1681526020019081526020016000206000828254611a3f9190613769565b925050819055506001600360008473ffffffffffffffffffffffffffffffffffffffff1673ffffffffffffffffffffffffffffffffffffffff1681526020019081526020016000206000828254611a9691906133ca565b92505081905550816002600083815260200190815260200160002060006101000a81548173ffffffffffffffffffffffffffffffffffffffff021916908373ffffffffffffffffffffffffffffffffffffffff160217905550808273ffffffffffffffffffffffffffffffffffffffff168473ffffffffffffffffffffffffffffffffffffffff167fddf252ad1be2c89b69c2b068fc378daa952ba7f163c4a11628f55a4df523b3ef60405160405180910390a4505050565b60016003811115611b6357611b626132c3565b5b600f60009054906101000a900460ff166003811115611b8557611b846132c3565b5b14611bc5576040517f08c379a0000000000000000000000000000000000000000000000000000000008152600401611bbc906137e9565b60405180910390fd5b60011515600b60008373ffffffffffffffffffffffffffffffffffffffff1673ffffffffffffffffffffffffffffffffffffffff16815260200190815260200160002060009054906101000a900460ff16151514611c58576040517f08c379a0000000000000000000000000000000000000000000000000000000008152600401611c4f90613855565b60405180910390fd5b600583600c60008473ffffffffffffffffffffffffffffffffffffffff1673ffffffffffffffffffffffffffffffffffffffff16815260200190815260200160002054611ca591906133ca565b1115611ce6576040517f08c379a0000000000000000000000000000000000000000000000000000000008152600401611cdd906138e7565b60405180910390fd5b600954821015611d2b576040517f08c379a0000000000000000000000000000000000000000000000000000000008152600401611d2290613953565b60405180910390fd5b6005831115611d6f576040517f08c379a0000000000000000000000000000000000000000000000000000000008152600401611d66906139e5565b60405180910390fd5b6101f4600e541115611db6576040517f08c379a0000000000000000000000000000000000000000000000000000000008152600401611dad90613a77565b60405180910390fd5b60053073ffffffffffffffffffffffffffffffffffffffff166370a08231836040518263ffffffff1660e01b8152600401611df191906128bb565b60206040518083038186803b158015611e0957600080fd5b505afa158015611e1d573d6000803e3d6000fd5b505050506040513d601f19601f82011682018060405250810190611e419190613aac565b1115611e82576040517f08c379a0000000000000000000000000000000000000000000000000000000008152600401611e7990613b4b565b60405180910390fd5b505050565b600073ffffffffffffffffffffffffffffffffffffffff168273ffffffffffffffffffffffffffffffffffffffff161415611ef7576040517f08c379a0000000000000000000000000000000000000000000000000000000008152600401611eee90613bb7565b60405180910390fd5b611f00816116e8565b15611f40576040517f08c379a0000000000000000000000000000000000000000000000000000000008152600401611f3790613c23565b60405180910390fd5b611f4c60008383612411565b6001600360008473ffffffffffffffffffffffffffffffffffffffff1673ffffffffffffffffffffffffffffffffffffffff1681526020019081526020016000206000828254611f9c91906133ca565b92505081905550816002600083815260200190815260200160002060006101000a81548173ffffffffffffffffffffffffffffffffffffffff021916908373ffffffffffffffffffffffffffffffffffffffff160217905550808273ffffffffffffffffffffffffffffffffffffffff16600073ffffffffffffffffffffffffffffffffffffffff167fddf252ad1be2c89b69c2b068fc378daa952ba7f163c4a11628f55a4df523b3ef60405160405180910390a45050565b8173ffffffffffffffffffffffffffffffffffffffff168373ffffffffffffffffffffffffffffffffffffffff1614156120c4576040517f08c379a00000000000000000000000000000000000000000000000000000000081526004016120bb90613c8f565b60405180910390fd5b80600560008573ffffffffffffffffffffffffffffffffffffffff1673ffffffffffffffffffffffffffffffffffffffff16815260200190815260200160002060008473ffffffffffffffffffffffffffffffffffffffff1673ffffffffffffffffffffffffffffffffffffffff16815260200190815260200160002060006101000a81548160ff0219169083151502179055508173ffffffffffffffffffffffffffffffffffffffff168373ffffffffffffffffffffffffffffffffffffffff167f17307eab39ab6107e8899845ad3d59bd9653f200f220920489ca2b5937696c31836040516121b59190612717565b60405180910390a3505050565b6121cd8484846118f3565b6121d984848484612416565b612218576040517f08c379a000000000000000000000000000000000000000000000000000000000815260040161220f90613d21565b60405180910390fd5b50505050565b60606007805461222d90612dec565b80601f016020809104026020016040519081016040528092919081815260200182805461225990612dec565b80156122a65780601f1061227b576101008083540402835291602001916122a6565b820191906000526020600020905b81548152906001019060200180831161228957829003601f168201915b5050505050905090565b606060008214156122f8576040518060400160405280600181526020017f3000000000000000000000000000000000000000000000000000000000000000815250905061240c565b600082905060005b6000821461232a5780806123139061327a565b915050600a826123239190613d70565b9150612300565b60008167ffffffffffffffff811115612346576123456129cc565b5b6040519080825280601f01601f1916602001820160405280156123785781602001600182028036833780820191505090505b5090505b60008514612405576001826123919190613769565b9150600a856123a09190613da1565b60306123ac91906133ca565b60f81b8183815181106123c2576123c161321c565b5b60200101907effffffffffffffffffffffffffffffffffffffffffffffffffffffffffffff1916908160001a905350600a856123fe9190613d70565b945061237c565b8093505050505b919050565b505050565b60006124378473ffffffffffffffffffffffffffffffffffffffff166125ad565b156125a0578373ffffffffffffffffffffffffffffffffffffffff1663150b7a02612460611754565b8786866040518563ffffffff1660e01b81526004016124829493929190613e27565b602060405180830381600087803b15801561249c57600080fd5b505af19250505080156124cd57506040513d601f19601f820116820180604052508101906124ca9190613e88565b60015b612550573d80600081146124fd576040519150601f19603f3d011682016040523d82523d6000602084013e612502565b606091505b50600081511415612548576040517f08c379a000000000000000000000000000000000000000000000000000000000815260040161253f90613d21565b60405180910390fd5b805181602001fd5b63150b7a0260e01b7bffffffffffffffffffffffffffffffffffffffffffffffffffffffff1916817bffffffffffffffffffffffffffffffffffffffffffffffffffffffff1916149150506125a5565b600190505b949350505050565b600080823b905060008111915050919050565b8280546125cc90612dec565b90600052602060002090601f0160209004810192826125ee5760008555612635565b82601f1061260757805160ff1916838001178555612635565b82800160010185558215612635579182015b82811115612634578251825591602001919060010190612619565b5b5090506126429190612646565b5090565b5b8082111561265f576000816000905550600101612647565b5090565b6000604051905090565b600080fd5b600080fd5b60007fffffffff0000000000000000000000000000000000000000000000000000000082169050919050565b6126ac81612677565b81146126b757600080fd5b50565b6000813590506126c9816126a3565b92915050565b6000602082840312156126e5576126e461266d565b5b60006126f3848285016126ba565b91505092915050565b60008115159050919050565b612711816126fc565b82525050565b600060208201905061272c6000830184612708565b92915050565b6000819050919050565b61274581612732565b82525050565b6000602082019050612760600083018461273c565b92915050565b600081519050919050565b600082825260208201905092915050565b60005b838110156127a0578082015181840152602081019050612785565b838111156127af576000848401525b50505050565b6000601f19601f8301169050919050565b60006127d182612766565b6127db8185612771565b93506127eb818560208601612782565b6127f4816127b5565b840191505092915050565b6000602082019050818103600083015261281981846127c6565b905092915050565b61282a81612732565b811461283557600080fd5b50565b60008135905061284781612821565b92915050565b6000602082840312156128635761286261266d565b5b600061287184828501612838565b91505092915050565b600073ffffffffffffffffffffffffffffffffffffffff82169050919050565b60006128a58261287a565b9050919050565b6128b58161289a565b82525050565b60006020820190506128d060008301846128ac565b92915050565b6128df8161289a565b81146128ea57600080fd5b50565b6000813590506128fc816128d6565b92915050565b600080604083850312156129195761291861266d565b5b6000612927858286016128ed565b925050602061293885828601612838565b9150509250929050565b60008060006060848603121561295b5761295a61266d565b5b6000612969868287016128ed565b935050602061297a868287016128ed565b925050604061298b86828701612838565b9150509250925092565b6000602082840312156129ab576129aa61266d565b5b60006129b9848285016128ed565b91505092915050565b600080fd5b600080fd5b7f4e487b7100000000000000000000000000000000000000000000000000000000600052604160045260246000fd5b612a04826127b5565b810181811067ffffffffffffffff82111715612a2357612a226129cc565b5b80604052505050565b6000612a36612663565b9050612a4282826129fb565b919050565b600067ffffffffffffffff821115612a6257612a616129cc565b5b612a6b826127b5565b9050602081019050919050565b82818337600083830152505050565b6000612a9a612a9584612a47565b612a2c565b905082815260208101848484011115612ab657612ab56129c7565b5b612ac1848285612a78565b509392505050565b600082601f830112612ade57612add6129c2565b5b8135612aee848260208601612a87565b91505092915050565b600060208284031215612b0d57612b0c61266d565b5b600082013567ffffffffffffffff811115612b2b57612b2a612672565b5b612b3784828501612ac9565b91505092915050565b600080fd5b600080fd5b60008083601f840112612b6057612b5f6129c2565b5b8235905067ffffffffffffffff811115612b7d57612b7c612b40565b5b602083019150836020820283011115612b9957612b98612b45565b5b9250929050565b60008060208385031215612bb757612bb661266d565b5b600083013567ffffffffffffffff811115612bd557612bd4612672565b5b612be185828601612b4a565b92509250509250929050565b612bf6816126fc565b8114612c0157600080fd5b50565b600081359050612c1381612bed565b92915050565b60008060408385031215612c3057612c2f61266d565b5b6000612c3e858286016128ed565b9250506020612c4f85828601612c04565b9150509250929050565b600067ffffffffffffffff821115612c7457612c736129cc565b5b612c7d826127b5565b9050602081019050919050565b6000612c9d612c9884612c59565b612a2c565b905082815260208101848484011115612cb957612cb86129c7565b5b612cc4848285612a78565b509392505050565b600082601f830112612ce157612ce06129c2565b5b8135612cf1848260208601612c8a565b91505092915050565b60008060008060808587031215612d1457612d1361266d565b5b6000612d22878288016128ed565b9450506020612d33878288016128ed565b9350506040612d4487828801612838565b925050606085013567ffffffffffffffff811115612d6557612d64612672565b5b612d7187828801612ccc565b91505092959194509250565b60008060408385031215612d9457612d9361266d565b5b6000612da2858286016128ed565b9250506020612db3858286016128ed565b9150509250929050565b7f4e487b7100000000000000000000000000000000000000000000000000000000600052602260045260246000fd5b60006002820490506001821680612e0457607f821691505b60208210811415612e1857612e17612dbd565b5b50919050565b7f4552433732313a20617070726f76656420717565727920666f72206e6f6e657860008201527f697374656e7420746f6b656e0000000000000000000000000000000000000000602082015250565b6000612e7a602c83612771565b9150612e8582612e1e565b604082019050919050565b60006020820190508181036000830152612ea981612e6d565b9050919050565b7f4552433732313a20617070726f76616c20746f2063757272656e74206f776e6560008201527f7200000000000000000000000000000000000000000000000000000000000000602082015250565b6000612f0c602183612771565b9150612f1782612eb0565b604082019050919050565b60006020820190508181036000830152612f3b81612eff565b9050919050565b7f4552433732313a20617070726f76652063616c6c6572206973206e6f74206f7760008201527f6e6572206e6f7220617070726f76656420666f7220616c6c0000000000000000602082015250565b6000612f9e603883612771565b9150612fa982612f42565b604082019050919050565b60006020820190508181036000830152612fcd81612f91565b9050919050565b7f4552433732313a207472616e736665722063616c6c6572206973206e6f74206f60008201527f776e6572206e6f7220617070726f766564000000000000000000000000000000602082015250565b6000613030603183612771565b915061303b82612fd4565b604082019050919050565b6000602082019050818103600083015261305f81613023565b9050919050565b7f6f6e6c79206f776e65722063616e20706572666f726d2074686973206163746960008201527f6f6e000000000000000000000000000000000000000000000000000000000000602082015250565b60006130c2602283612771565b91506130cd82613066565b604082019050919050565b600060208201905081810360008301526130f1816130b5565b9050919050565b7f4552433732313a206f776e657220717565727920666f72206e6f6e657869737460008201527f656e7420746f6b656e0000000000000000000000000000000000000000000000602082015250565b6000613154602983612771565b915061315f826130f8565b604082019050919050565b6000602082019050818103600083015261318381613147565b9050919050565b7f4552433732313a2062616c616e636520717565727920666f7220746865207a6560008201527f726f206164647265737300000000000000000000000000000000000000000000602082015250565b60006131e6602a83612771565b91506131f18261318a565b604082019050919050565b60006020820190508181036000830152613215816131d9565b9050919050565b7f4e487b7100000000000000000000000000000000000000000000000000000000600052603260045260246000fd5b7f4e487b7100000000000000000000000000000000000000000000000000000000600052601160045260246000fd5b600061328582612732565b91507fffffffffffffffffffffffffffffffffffffffffffffffffffffffffffffffff8214156132b8576132b761324b565b5b600182019050919050565b7f4e487b7100000000000000000000000000000000000000000000000000000000600052602160045260246000fd5b7f4d696e74696e67206973206e6f74206f70656e00000000000000000000000000600082015250565b6000613328601383612771565b9150613333826132f2565b602082019050919050565b600060208201905081810360008301526133578161331b565b9050919050565b7f4d696e74696e6720697320636c6f736564000000000000000000000000000000600082015250565b6000613394601183612771565b915061339f8261335e565b602082019050919050565b600060208201905081810360008301526133c381613387565b9050919050565b60006133d582612732565b91506133e083612732565b9250827fffffffffffffffffffffffffffffffffffffffffffffffffffffffffffffffff038211156134155761341461324b565b5b828201905092915050565b7f4552433732314d657461646174613a2055524920717565727920666f72206e6f60008201527f6e6578697374656e7420746f6b656e0000000000000000000000000000000000602082015250565b600061347c602f83612771565b915061348782613420565b604082019050919050565b600060208201905081810360008301526134ab8161346f565b9050919050565b600081905092915050565b60006134c882612766565b6134d281856134b2565b93506134e2818560208601612782565b80840191505092915050565b60008190508160005260206000209050919050565b6000815461351081612dec565b61351a81866134b2565b94506001821660008114613535576001811461354657613579565b60ff19831686528186019350613579565b61354f856134ee565b60005b8381101561357157815481890152600182019150602081019050613552565b838801955050505b50505092915050565b600061358e82866134bd565b915061359a82856134bd565b91506135a68284613503565b9150819050949350505050565b7f4552433732313a206f70657261746f7220717565727920666f72206e6f6e657860008201527f697374656e7420746f6b656e0000000000000000000000000000000000000000602082015250565b600061360f602c83612771565b915061361a826135b3565b604082019050919050565b6000602082019050818103600083015261363e81613602565b9050919050565b7f4552433732313a207472616e73666572206f6620746f6b656e2074686174206960008201527f73206e6f74206f776e0000000000000000000000000000000000000000000000602082015250565b60006136a1602983612771565b91506136ac82613645565b604082019050919050565b600060208201905081810360008301526136d081613694565b9050919050565b7f4552433732313a207472616e7366657220746f20746865207a65726f2061646460008201527f7265737300000000000000000000000000000000000000000000000000000000602082015250565b6000613733602483612771565b915061373e826136d7565b604082019050919050565b6000602082019050818103600083015261376281613726565b9050919050565b600061377482612732565b915061377f83612732565b9250828210156137925761379161324b565b5b828203905092915050565b7f4d696e74206e6f7420696e2057686974656c6973742070686173650000000000600082015250565b60006137d3601b83612771565b91506137de8261379d565b602082019050919050565b60006020820190508181036000830152613802816137c6565b9050919050565b7f757365722061646472657373206973206e6f74206f6e2077686974656c697374600082015250565b600061383f602083612771565b915061384a82613809565b602082019050919050565b6000602082019050818103600083015261386e81613832565b9050919050565b7f4163636f756e7420416464726573732072656163686564206c696d6974206f6e60008201527f20546f6b656e7300000000000000000000000000000000000000000000000000602082015250565b60006138d1602783612771565b91506138dc82613875565b604082019050919050565b60006020820190508181036000830152613900816138c4565b9050919050565b7f6e6f7420656e6f75676874206574682073656e74000000000000000000000000600082015250565b600061393d601483612771565b915061394882613907565b602082019050919050565b6000602082019050818103600083015261396c81613930565b9050919050565b7f63616e2774206d696e74206d6f7265207468616e2035206e667473206475726960008201527f6e67207072652d73616c65000000000000000000000000000000000000000000602082015250565b60006139cf602b83612771565b91506139da82613973565b604082019050919050565b600060208201905081810360008301526139fe816139c2565b9050919050565b7f6e6f206d6f7265206e66747320617661696c61626c6520666f72207072652d7360008201527f616c650000000000000000000000000000000000000000000000000000000000602082015250565b6000613a61602383612771565b9150613a6c82613a05565b604082019050919050565b60006020820190508181036000830152613a9081613a54565b9050919050565b600081519050613aa681612821565b92915050565b600060208284031215613ac257613ac161266d565b5b6000613ad084828501613a97565b91505092915050565b7f6d617820616d6f756e7420796f752063616e20686176652069732035206e667460008201527f7320647572696e67207072652d73616c65000000000000000000000000000000602082015250565b6000613b35603183612771565b9150613b4082613ad9565b604082019050919050565b60006020820190508181036000830152613b6481613b28565b9050919050565b7f4552433732313a206d696e7420746f20746865207a65726f2061646472657373600082015250565b6000613ba1602083612771565b9150613bac82613b6b565b602082019050919050565b60006020820190508181036000830152613bd081613b94565b9050919050565b7f4552433732313a20746f6b656e20616c7265616479206d696e74656400000000600082015250565b6000613c0d601c83612771565b9150613c1882613bd7565b602082019050919050565b60006020820190508181036000830152613c3c81613c00565b9050919050565b7f4552433732313a20617070726f766520746f2063616c6c657200000000000000600082015250565b6000613c79601983612771565b9150613c8482613c43565b602082019050919050565b60006020820190508181036000830152613ca881613c6c565b9050919050565b7f4552433732313a207472616e7366657220746f206e6f6e20455243373231526560008201527f63656976657220696d706c656d656e7465720000000000000000000000000000602082015250565b6000613d0b603283612771565b9150613d1682613caf565b604082019050919050565b60006020820190508181036000830152613d3a81613cfe565b9050919050565b7f4e487b7100000000000000000000000000000000000000000000000000000000600052601260045260246000fd5b6000613d7b82612732565b9150613d8683612732565b925082613d9657613d95613d41565b5b828204905092915050565b6000613dac82612732565b9150613db783612732565b925082613dc757613dc6613d41565b5b828206905092915050565b600081519050919050565b600082825260208201905092915050565b6000613df982613dd2565b613e038185613ddd565b9350613e13818560208601612782565b613e1c816127b5565b840191505092915050565b6000608082019050613e3c60008301876128ac565b613e4960208301866128ac565b613e56604083018561273c565b8181036060830152613e688184613dee565b905095945050505050565b600081519050613e82816126a3565b92915050565b600060208284031215613e9e57613e9d61266d565b5b6000613eac84828501613e73565b9150509291505056fea2646970667358221220c7b0859dea26fb1d7e17724168849d31a4b6406242ed31d9dac6fcfb5e2339f964736f6c63430008090033",
  "linkReferences": {},
  "deployedLinkReferences": {}
}