{
  "_format": "hh-sol-artifact-1",
  "contractName": "F1_NFT",
  "sourceName": "contracts/F1_NFT.sol",
  "abi": [
    {
      "inputs": [
        {
          "internalType": "uint256",
          "name": "_whiteListPrice",
          "type": "uint256"
        },
        {
          "internalType": "uint256",
          "name": "_mainSalePrice",
          "type": "uint256"
        },
        {
          "internalType": "string",
          "name": "_newBaseURI",
          "type": "string"
        }
      ],
      "stateMutability": "nonpayable",
      "type": "constructor"
    },
    {
      "anonymous": false,
      "inputs": [
        {
          "indexed": true,
          "internalType": "address",
          "name": "owner",
          "type": "address"
        },
        {
          "indexed": true,
          "internalType": "address",
          "name": "approved",
          "type": "address"
        },
        {
          "indexed": true,
          "internalType": "uint256",
          "name": "tokenId",
          "type": "uint256"
        }
      ],
      "name": "Approval",
      "type": "event"
    },
    {
      "anonymous": false,
      "inputs": [
        {
          "indexed": true,
          "internalType": "address",
          "name": "owner",
          "type": "address"
        },
        {
          "indexed": true,
          "internalType": "address",
          "name": "operator",
          "type": "address"
        },
        {
          "indexed": false,
          "internalType": "bool",
          "name": "approved",
          "type": "bool"
        }
      ],
      "name": "ApprovalForAll",
      "type": "event"
    },
    {
      "anonymous": false,
      "inputs": [
        {
          "indexed": true,
          "internalType": "address",
          "name": "from",
          "type": "address"
        },
        {
          "indexed": true,
          "internalType": "address",
          "name": "to",
          "type": "address"
        },
        {
          "indexed": true,
          "internalType": "uint256",
          "name": "tokenId",
          "type": "uint256"
        }
      ],
      "name": "Transfer",
      "type": "event"
    },
    {
      "inputs": [],
      "name": "MAIN_SALE_NFT_LIMIT",
      "outputs": [
        {
          "internalType": "uint256",
          "name": "",
          "type": "uint256"
        }
      ],
      "stateMutability": "view",
      "type": "function"
    },
    {
      "inputs": [],
      "name": "MAX_MAIN_MINT_AMOUNT",
      "outputs": [
        {
          "internalType": "uint256",
          "name": "",
          "type": "uint256"
        }
      ],
      "stateMutability": "view",
      "type": "function"
    },
    {
      "inputs": [],
      "name": "MAX_WHITELIST_MINT_AMOUNT",
      "outputs": [
        {
          "internalType": "uint256",
          "name": "",
          "type": "uint256"
        }
      ],
      "stateMutability": "view",
      "type": "function"
    },
    {
      "inputs": [],
      "name": "WHITELIST_NFT_LIMIT",
      "outputs": [
        {
          "internalType": "uint256",
          "name": "",
          "type": "uint256"
        }
      ],
      "stateMutability": "view",
      "type": "function"
    },
    {
      "inputs": [
        {
          "internalType": "address[]",
          "name": "addresses",
          "type": "address[]"
        }
      ],
      "name": "addToWhiteList",
      "outputs": [],
      "stateMutability": "nonpayable",
      "type": "function"
    },
    {
      "inputs": [
        {
          "internalType": "address",
          "name": "",
          "type": "address"
        }
      ],
      "name": "addressTokenCount",
      "outputs": [
        {
          "internalType": "uint256",
          "name": "",
          "type": "uint256"
        }
      ],
      "stateMutability": "view",
      "type": "function"
    },
    {
      "inputs": [],
      "name": "advancePhase",
      "outputs": [],
      "stateMutability": "nonpayable",
      "type": "function"
    },
    {
      "inputs": [
        {
          "internalType": "address",
          "name": "to",
          "type": "address"
        },
        {
          "internalType": "uint256",
          "name": "tokenId",
          "type": "uint256"
        }
      ],
      "name": "approve",
      "outputs": [],
      "stateMutability": "nonpayable",
      "type": "function"
    },
    {
      "inputs": [
        {
          "internalType": "address",
          "name": "owner",
          "type": "address"
        }
      ],
      "name": "balanceOf",
      "outputs": [
        {
          "internalType": "uint256",
          "name": "",
          "type": "uint256"
        }
      ],
      "stateMutability": "view",
      "type": "function"
    },
    {
      "inputs": [],
      "name": "baseExtension",
      "outputs": [
        {
          "internalType": "string",
          "name": "",
          "type": "string"
        }
      ],
      "stateMutability": "view",
      "type": "function"
    },
    {
      "inputs": [],
      "name": "baseURI",
      "outputs": [
        {
          "internalType": "string",
          "name": "",
          "type": "string"
        }
      ],
      "stateMutability": "view",
      "type": "function"
    },
    {
      "inputs": [
        {
          "internalType": "uint256",
          "name": "tokenId",
          "type": "uint256"
        }
      ],
      "name": "getApproved",
      "outputs": [
        {
          "internalType": "address",
          "name": "",
          "type": "address"
        }
      ],
      "stateMutability": "view",
      "type": "function"
    },
    {
      "inputs": [
        {
          "internalType": "address",
          "name": "owner",
          "type": "address"
        },
        {
          "internalType": "address",
          "name": "operator",
          "type": "address"
        }
      ],
      "name": "isApprovedForAll",
      "outputs": [
        {
          "internalType": "bool",
          "name": "",
          "type": "bool"
        }
      ],
      "stateMutability": "view",
      "type": "function"
    },
    {
      "inputs": [],
      "name": "mainSalePrice",
      "outputs": [
        {
          "internalType": "uint256",
          "name": "",
          "type": "uint256"
        }
      ],
      "stateMutability": "view",
      "type": "function"
    },
    {
      "inputs": [
        {
          "internalType": "uint256",
          "name": "nftAmountToMint",
          "type": "uint256"
        }
      ],
      "name": "mint",
      "outputs": [],
      "stateMutability": "payable",
      "type": "function"
    },
    {
      "inputs": [],
      "name": "name",
      "outputs": [
        {
          "internalType": "string",
          "name": "",
          "type": "string"
        }
      ],
      "stateMutability": "view",
      "type": "function"
    },
    {
      "inputs": [],
      "name": "owner",
      "outputs": [
        {
          "internalType": "address",
          "name": "",
          "type": "address"
        }
      ],
      "stateMutability": "view",
      "type": "function"
    },
    {
      "inputs": [
        {
          "internalType": "uint256",
          "name": "tokenId",
          "type": "uint256"
        }
      ],
      "name": "ownerOf",
      "outputs": [
        {
          "internalType": "address",
          "name": "",
          "type": "address"
        }
      ],
      "stateMutability": "view",
      "type": "function"
    },
    {
      "inputs": [
        {
          "internalType": "address",
          "name": "from",
          "type": "address"
        },
        {
          "internalType": "address",
          "name": "to",
          "type": "address"
        },
        {
          "internalType": "uint256",
          "name": "tokenId",
          "type": "uint256"
        }
      ],
      "name": "safeTransferFrom",
      "outputs": [],
      "stateMutability": "nonpayable",
      "type": "function"
    },
    {
      "inputs": [
        {
          "internalType": "address",
          "name": "from",
          "type": "address"
        },
        {
          "internalType": "address",
          "name": "to",
          "type": "address"
        },
        {
          "internalType": "uint256",
          "name": "tokenId",
          "type": "uint256"
        },
        {
          "internalType": "bytes",
          "name": "_data",
          "type": "bytes"
        }
      ],
      "name": "safeTransferFrom",
      "outputs": [],
      "stateMutability": "nonpayable",
      "type": "function"
    },
    {
      "inputs": [
        {
          "internalType": "address",
          "name": "operator",
          "type": "address"
        },
        {
          "internalType": "bool",
          "name": "approved",
          "type": "bool"
        }
      ],
      "name": "setApprovalForAll",
      "outputs": [],
      "stateMutability": "nonpayable",
      "type": "function"
    },
    {
      "inputs": [
        {
          "internalType": "string",
          "name": "_newBaseURI",
          "type": "string"
        }
      ],
      "name": "setBaseURI",
      "outputs": [],
      "stateMutability": "nonpayable",
      "type": "function"
    },
    {
      "inputs": [
        {
          "internalType": "uint256",
          "name": "price",
          "type": "uint256"
        }
      ],
      "name": "setMainSalePrice",
      "outputs": [],
      "stateMutability": "nonpayable",
      "type": "function"
    },
    {
      "inputs": [
        {
          "internalType": "bytes4",
          "name": "interfaceId",
          "type": "bytes4"
        }
      ],
      "name": "supportsInterface",
      "outputs": [
        {
          "internalType": "bool",
          "name": "",
          "type": "bool"
        }
      ],
      "stateMutability": "view",
      "type": "function"
    },
    {
      "inputs": [],
      "name": "symbol",
      "outputs": [
        {
          "internalType": "string",
          "name": "",
          "type": "string"
        }
      ],
      "stateMutability": "view",
      "type": "function"
    },
    {
      "inputs": [],
      "name": "tokenID",
      "outputs": [
        {
          "internalType": "uint256",
          "name": "",
          "type": "uint256"
        }
      ],
      "stateMutability": "view",
      "type": "function"
    },
    {
      "inputs": [
        {
          "internalType": "uint256",
          "name": "tokenId",
          "type": "uint256"
        }
      ],
      "name": "tokenURI",
      "outputs": [
        {
          "internalType": "string",
          "name": "",
          "type": "string"
        }
      ],
      "stateMutability": "view",
      "type": "function"
    },
    {
      "inputs": [],
      "name": "tokensMinted",
      "outputs": [
        {
          "internalType": "uint256",
          "name": "_tokens",
          "type": "uint256"
        }
      ],
      "stateMutability": "view",
      "type": "function"
    },
    {
      "inputs": [
        {
          "internalType": "address",
          "name": "from",
          "type": "address"
        },
        {
          "internalType": "address",
          "name": "to",
          "type": "address"
        },
        {
          "internalType": "uint256",
          "name": "tokenId",
          "type": "uint256"
        }
      ],
      "name": "transferFrom",
      "outputs": [],
      "stateMutability": "nonpayable",
      "type": "function"
    },
    {
      "inputs": [
        {
          "internalType": "uint256",
          "name": "",
          "type": "uint256"
        }
      ],
      "name": "uriMap",
      "outputs": [
        {
          "internalType": "string",
          "name": "",
          "type": "string"
        }
      ],
      "stateMutability": "view",
      "type": "function"
    },
    {
      "inputs": [
        {
          "internalType": "address",
          "name": "",
          "type": "address"
        }
      ],
      "name": "whiteListAddresses",
      "outputs": [
        {
          "internalType": "bool",
          "name": "",
          "type": "bool"
        }
      ],
      "stateMutability": "view",
      "type": "function"
    },
    {
      "inputs": [],
      "name": "whiteListPrice",
      "outputs": [
        {
          "internalType": "uint256",
          "name": "",
          "type": "uint256"
        }
      ],
      "stateMutability": "view",
      "type": "function"
    }
  ],
  "bytecode": "0x60806040526040518060400160405280600581526020017f2e6a736f6e00000000000000000000000000000000000000000000000000000081525060089080519060200190620000519291906200023d565b503480156200005f57600080fd5b5060405162004589380380620045898339818101604052810190620000859190620004c5565b6040518060400160405280600681526020017f66315f44414f00000000000000000000000000000000000000000000000000008152506040518060400160405280600281526020017f66310000000000000000000000000000000000000000000000000000000000008152508160009080519060200190620001099291906200023d565b508060019080519060200190620001229291906200023d565b50505033600660006101000a81548173ffffffffffffffffffffffffffffffffffffffff021916908373ffffffffffffffffffffffffffffffffffffffff1602179055508260098190555081600a8190555062000185816200018e60201b60201c565b5050506200064e565b600660009054906101000a900473ffffffffffffffffffffffffffffffffffffffff1673ffffffffffffffffffffffffffffffffffffffff163373ffffffffffffffffffffffffffffffffffffffff161462000221576040517f08c379a00000000000000000000000000000000000000000000000000000000081526004016200021890620005c7565b60405180910390fd5b8060079080519060200190620002399291906200023d565b5050565b8280546200024b9062000618565b90600052602060002090601f0160209004810192826200026f5760008555620002bb565b82601f106200028a57805160ff1916838001178555620002bb565b82800160010185558215620002bb579182015b82811115620002ba5782518255916020019190600101906200029d565b5b509050620002ca9190620002ce565b5090565b5b80821115620002e9576000816000905550600101620002cf565b5090565b6000604051905090565b600080fd5b600080fd5b6000819050919050565b620003168162000301565b81146200032257600080fd5b50565b60008151905062000336816200030b565b92915050565b600080fd5b600080fd5b6000601f19601f8301169050919050565b7f4e487b7100000000000000000000000000000000000000000000000000000000600052604160045260246000fd5b620003918262000346565b810181811067ffffffffffffffff82111715620003b357620003b262000357565b5b80604052505050565b6000620003c8620002ed565b9050620003d6828262000386565b919050565b600067ffffffffffffffff821115620003f957620003f862000357565b5b620004048262000346565b9050602081019050919050565b60005b838110156200043157808201518184015260208101905062000414565b8381111562000441576000848401525b50505050565b60006200045e6200045884620003db565b620003bc565b9050828152602081018484840111156200047d576200047c62000341565b5b6200048a84828562000411565b509392505050565b600082601f830112620004aa57620004a96200033c565b5b8151620004bc84826020860162000447565b91505092915050565b600080600060608486031215620004e157620004e0620002f7565b5b6000620004f18682870162000325565b9350506020620005048682870162000325565b925050604084015167ffffffffffffffff811115620005285762000527620002fc565b5b620005368682870162000492565b9150509250925092565b600082825260208201905092915050565b7f6f6e6c79206f776e65722063616e20706572666f726d2074686973206163746960008201527f6f6e000000000000000000000000000000000000000000000000000000000000602082015250565b6000620005af60228362000540565b9150620005bc8262000551565b604082019050919050565b60006020820190508181036000830152620005e281620005a0565b9050919050565b7f4e487b7100000000000000000000000000000000000000000000000000000000600052602260045260246000fd5b600060028204905060018216806200063157607f821691505b60208210811415620006485762000647620005e9565b5b50919050565b613f2b806200065e6000396000f3fe6080604052600436106101e35760003560e01c80638da5cb5b11610102578063b88d4fde11610095578063dd2eb9f311610064578063dd2eb9f3146106e9578063e985e9c514610726578063f07bba6514610763578063fd0e68fd1461078c576101e3565b8063b88d4fde14610641578063be25a7181461066a578063c668286214610681578063c87b56dd146106ac576101e3565b8063a22cb465116100d1578063a22cb46514610597578063a5c42ef1146105c0578063aa143023146105eb578063aef19d2f14610616576101e3565b80638da5cb5b146104e8578063920674dc1461051357806395d89b4114610550578063a0712d681461057b576101e3565b8063474dd97d1161017a5780636c0360eb116101495780636c0360eb1461042c5780636de9f32b1461045757806370a0823114610482578063740d73f3146104bf576101e3565b8063474dd97d1461035e57806355f804b31461039b5780636352211e146103c45780636857568514610401576101e3565b8063095ea7b3116101b6578063095ea7b3146102b85780631f9d8783146102e157806323b872dd1461030c57806342842e0e14610335576101e3565b806301ffc9a7146101e8578063040c2fc31461022557806306fdde0314610250578063081812fc1461027b575b600080fd5b3480156101f457600080fd5b5061020f600480360381019061020a919061270f565b6107b7565b60405161021c9190612757565b60405180910390f35b34801561023157600080fd5b5061023a610899565b604051610247919061278b565b60405180910390f35b34801561025c57600080fd5b5061026561089e565b604051610272919061283f565b60405180910390f35b34801561028757600080fd5b506102a2600480360381019061029d919061288d565b610930565b6040516102af91906128fb565b60405180910390f35b3480156102c457600080fd5b506102df60048036038101906102da9190612942565b6109b5565b005b3480156102ed57600080fd5b506102f6610acd565b604051610303919061278b565b60405180910390f35b34801561031857600080fd5b50610333600480360381019061032e9190612982565b610ad3565b005b34801561034157600080fd5b5061035c60048036038101906103579190612982565b610b33565b005b34801561036a57600080fd5b50610385600480360381019061038091906129d5565b610b53565b604051610392919061278b565b60405180910390f35b3480156103a757600080fd5b506103c260048036038101906103bd9190612b37565b610b6b565b005b3480156103d057600080fd5b506103eb60048036038101906103e6919061288d565b610c15565b6040516103f891906128fb565b60405180910390f35b34801561040d57600080fd5b50610416610cc7565b604051610423919061278b565b60405180910390f35b34801561043857600080fd5b50610441610ccd565b60405161044e919061283f565b60405180910390f35b34801561046357600080fd5b5061046c610d5b565b604051610479919061278b565b60405180910390f35b34801561048e57600080fd5b506104a960048036038101906104a491906129d5565b610d65565b6040516104b6919061278b565b60405180910390f35b3480156104cb57600080fd5b506104e660048036038101906104e19190612be0565b610e1d565b005b3480156104f457600080fd5b506104fd610f52565b60405161050a91906128fb565b60405180910390f35b34801561051f57600080fd5b5061053a600480360381019061053591906129d5565b610f78565b6040516105479190612757565b60405180910390f35b34801561055c57600080fd5b50610565610f98565b604051610572919061283f565b60405180910390f35b6105956004803603810190610590919061288d565b61102a565b005b3480156105a357600080fd5b506105be60048036038101906105b99190612c59565b61122e565b005b3480156105cc57600080fd5b506105d5611244565b6040516105e2919061278b565b60405180910390f35b3480156105f757600080fd5b5061060061124a565b60405161060d919061278b565b60405180910390f35b34801561062257600080fd5b5061062b61124f565b604051610638919061278b565b60405180910390f35b34801561064d57600080fd5b5061066860048036038101906106639190612d3a565b611255565b005b34801561067657600080fd5b5061067f6112b7565b005b34801561068d57600080fd5b506106966113b2565b6040516106a3919061283f565b60405180910390f35b3480156106b857600080fd5b506106d360048036038101906106ce919061288d565b611440565b6040516106e0919061283f565b60405180910390f35b3480156106f557600080fd5b50610710600480360381019061070b919061288d565b6114ea565b60405161071d919061283f565b60405180910390f35b34801561073257600080fd5b5061074d60048036038101906107489190612dbd565b61158a565b60405161075a9190612757565b60405180910390f35b34801561076f57600080fd5b5061078a6004803603810190610785919061288d565b61161e565b005b34801561079857600080fd5b506107a16116b8565b6040516107ae919061278b565b60405180910390f35b60007f80ac58cd000000000000000000000000000000000000000000000000000000007bffffffffffffffffffffffffffffffffffffffffffffffffffffffff1916827bffffffffffffffffffffffffffffffffffffffffffffffffffffffff1916148061088257507f5b5e139f000000000000000000000000000000000000000000000000000000007bffffffffffffffffffffffffffffffffffffffffffffffffffffffff1916827bffffffffffffffffffffffffffffffffffffffffffffffffffffffff1916145b806108925750610891826116be565b5b9050919050565b600581565b6060600080546108ad90612e2c565b80601f01602080910402602001604051908101604052809291908181526020018280546108d990612e2c565b80156109265780601f106108fb57610100808354040283529160200191610926565b820191906000526020600020905b81548152906001019060200180831161090957829003601f168201915b5050505050905090565b600061093b82611728565b61097a576040517f08c379a000000000000000000000000000000000000000000000000000000000815260040161097190612ed0565b60405180910390fd5b6004600083815260200190815260200160002060009054906101000a900473ffffffffffffffffffffffffffffffffffffffff169050919050565b60006109c082610c15565b90508073ffffffffffffffffffffffffffffffffffffffff168373ffffffffffffffffffffffffffffffffffffffff161415610a31576040517f08c379a0000000000000000000000000000000000000000000000000000000008152600401610a2890612f62565b60405180910390fd5b8073ffffffffffffffffffffffffffffffffffffffff16610a50611794565b73ffffffffffffffffffffffffffffffffffffffff161480610a7f5750610a7e81610a79611794565b61158a565b5b610abe576040517f08c379a0000000000000000000000000000000000000000000000000000000008152600401610ab590612ff4565b60405180910390fd5b610ac8838361179c565b505050565b61251c81565b610ae4610ade611794565b82611855565b610b23576040517f08c379a0000000000000000000000000000000000000000000000000000000008152600401610b1a90613086565b60405180910390fd5b610b2e838383611933565b505050565b610b4e83838360405180602001604052806000815250611255565b505050565b600c6020528060005260406000206000915090505481565b600660009054906101000a900473ffffffffffffffffffffffffffffffffffffffff1673ffffffffffffffffffffffffffffffffffffffff163373ffffffffffffffffffffffffffffffffffffffff1614610bfb576040517f08c379a0000000000000000000000000000000000000000000000000000000008152600401610bf290613118565b60405180910390fd5b8060079080519060200190610c11929190612600565b5050565b6000806002600084815260200190815260200160002060009054906101000a900473ffffffffffffffffffffffffffffffffffffffff169050600073ffffffffffffffffffffffffffffffffffffffff168173ffffffffffffffffffffffffffffffffffffffff161415610cbe576040517f08c379a0000000000000000000000000000000000000000000000000000000008152600401610cb5906131aa565b60405180910390fd5b80915050919050565b60095481565b60078054610cda90612e2c565b80601f0160208091040260200160405190810160405280929190818152602001828054610d0690612e2c565b8015610d535780601f10610d2857610100808354040283529160200191610d53565b820191906000526020600020905b815481529060010190602001808311610d3657829003601f168201915b505050505081565b6000600e54905090565b60008073ffffffffffffffffffffffffffffffffffffffff168273ffffffffffffffffffffffffffffffffffffffff161415610dd6576040517f08c379a0000000000000000000000000000000000000000000000000000000008152600401610dcd9061323c565b60405180910390fd5b600360008373ffffffffffffffffffffffffffffffffffffffff1673ffffffffffffffffffffffffffffffffffffffff168152602001908152602001600020549050919050565b600660009054906101000a900473ffffffffffffffffffffffffffffffffffffffff1673ffffffffffffffffffffffffffffffffffffffff163373ffffffffffffffffffffffffffffffffffffffff1614610ead576040517f08c379a0000000000000000000000000000000000000000000000000000000008152600401610ea490613118565b60405180910390fd5b60005b82829050811015610f4d576001600b6000858585818110610ed457610ed361325c565b5b9050602002016020810190610ee991906129d5565b73ffffffffffffffffffffffffffffffffffffffff1673ffffffffffffffffffffffffffffffffffffffff16815260200190815260200160002060006101000a81548160ff0219169083151502179055508080610f45906132ba565b915050610eb0565b505050565b600660009054906101000a900473ffffffffffffffffffffffffffffffffffffffff1681565b600b6020528060005260406000206000915054906101000a900460ff1681565b606060018054610fa790612e2c565b80601f0160208091040260200160405190810160405280929190818152602001828054610fd390612e2c565b80156110205780601f10610ff557610100808354040283529160200191611020565b820191906000526020600020905b81548152906001019060200180831161100357829003601f168201915b5050505050905090565b6000600381111561103e5761103d613303565b5b600f60009054906101000a900460ff1660038111156110605761105f613303565b5b14156110a1576040517f08c379a00000000000000000000000000000000000000000000000000000000081526004016110989061337e565b60405180910390fd5b6003808111156110b4576110b3613303565b5b600f60009054906101000a900460ff1660038111156110d6576110d5613303565b5b1415611117576040517f08c379a000000000000000000000000000000000000000000000000000000000815260040161110e906133ea565b60405180910390fd5b6001600381111561112b5761112a613303565b5b600f60009054906101000a900460ff16600381111561114d5761114c613303565b5b141561115f5761115e813433611b8f565b5b60005b8181101561122a5761117633600e54611ec7565b611181600e54611440565b600d6000600e54815260200190815260200160002090805190602001906111a9929190612600565b50600c60003373ffffffffffffffffffffffffffffffffffffffff1673ffffffffffffffffffffffffffffffffffffffff16815260200190815260200160002060008154809291906111fa906132ba565b9190505550600e6000815480929190611212906132ba565b91905055508080611222906132ba565b915050611162565b5050565b611240611239611794565b8383612095565b5050565b600e5481565b600881565b600a5481565b611266611260611794565b83611855565b6112a5576040517f08c379a000000000000000000000000000000000000000000000000000000000815260040161129c90613086565b60405180910390fd5b6112b184848484612202565b50505050565b600660009054906101000a900473ffffffffffffffffffffffffffffffffffffffff1673ffffffffffffffffffffffffffffffffffffffff163373ffffffffffffffffffffffffffffffffffffffff1614611347576040517f08c379a000000000000000000000000000000000000000000000000000000000815260040161133e90613118565b60405180910390fd5b6001600f60009054906101000a900460ff16600381111561136b5761136a613303565b5b611375919061340a565b600381111561138757611386613303565b5b600f60006101000a81548160ff021916908360038111156113ab576113aa613303565b5b0217905550565b600880546113bf90612e2c565b80601f01602080910402602001604051908101604052809291908181526020018280546113eb90612e2c565b80156114385780601f1061140d57610100808354040283529160200191611438565b820191906000526020600020905b81548152906001019060200180831161141b57829003601f168201915b505050505081565b606061144b82611728565b61148a576040517f08c379a0000000000000000000000000000000000000000000000000000000008152600401611481906134d2565b60405180910390fd5b600061149461225e565b905060008151116114b457604051806020016040528060008152506114e2565b806114be846122f0565b60086040516020016114d2939291906135c2565b6040516020818303038152906040525b915050919050565b600d602052806000526040600020600091509050805461150990612e2c565b80601f016020809104026020016040519081016040528092919081815260200182805461153590612e2c565b80156115825780601f1061155757610100808354040283529160200191611582565b820191906000526020600020905b81548152906001019060200180831161156557829003601f168201915b505050505081565b6000600560008473ffffffffffffffffffffffffffffffffffffffff1673ffffffffffffffffffffffffffffffffffffffff16815260200190815260200160002060008373ffffffffffffffffffffffffffffffffffffffff1673ffffffffffffffffffffffffffffffffffffffff16815260200190815260200160002060009054906101000a900460ff16905092915050565b600660009054906101000a900473ffffffffffffffffffffffffffffffffffffffff1673ffffffffffffffffffffffffffffffffffffffff163373ffffffffffffffffffffffffffffffffffffffff16146116ae576040517f08c379a00000000000000000000000000000000000000000000000000000000081526004016116a590613118565b60405180910390fd5b80600a8190555050565b6101f481565b60007f01ffc9a7000000000000000000000000000000000000000000000000000000007bffffffffffffffffffffffffffffffffffffffffffffffffffffffff1916827bffffffffffffffffffffffffffffffffffffffffffffffffffffffff1916149050919050565b60008073ffffffffffffffffffffffffffffffffffffffff166002600084815260200190815260200160002060009054906101000a900473ffffffffffffffffffffffffffffffffffffffff1673ffffffffffffffffffffffffffffffffffffffff1614159050919050565b600033905090565b816004600083815260200190815260200160002060006101000a81548173ffffffffffffffffffffffffffffffffffffffff021916908373ffffffffffffffffffffffffffffffffffffffff160217905550808273ffffffffffffffffffffffffffffffffffffffff1661180f83610c15565b73ffffffffffffffffffffffffffffffffffffffff167f8c5be1e5ebec7d5bd14f71427d1e84f3dd0314c0f7b2291e5b200ac8c7c3b92560405160405180910390a45050565b600061186082611728565b61189f576040517f08c379a000000000000000000000000000000000000000000000000000000000815260040161189690613665565b60405180910390fd5b60006118aa83610c15565b90508073ffffffffffffffffffffffffffffffffffffffff168473ffffffffffffffffffffffffffffffffffffffff16148061191957508373ffffffffffffffffffffffffffffffffffffffff1661190184610930565b73ffffffffffffffffffffffffffffffffffffffff16145b8061192a5750611929818561158a565b5b91505092915050565b8273ffffffffffffffffffffffffffffffffffffffff1661195382610c15565b73ffffffffffffffffffffffffffffffffffffffff16146119a9576040517f08c379a00000000000000000000000000000000000000000000000000000000081526004016119a0906136f7565b60405180910390fd5b600073ffffffffffffffffffffffffffffffffffffffff168273ffffffffffffffffffffffffffffffffffffffff161415611a19576040517f08c379a0000000000000000000000000000000000000000000000000000000008152600401611a1090613789565b60405180910390fd5b611a24838383612451565b611a2f60008261179c565b6001600360008573ffffffffffffffffffffffffffffffffffffffff1673ffffffffffffffffffffffffffffffffffffffff1681526020019081526020016000206000828254611a7f91906137a9565b925050819055506001600360008473ffffffffffffffffffffffffffffffffffffffff1673ffffffffffffffffffffffffffffffffffffffff1681526020019081526020016000206000828254611ad6919061340a565b92505081905550816002600083815260200190815260200160002060006101000a81548173ffffffffffffffffffffffffffffffffffffffff021916908373ffffffffffffffffffffffffffffffffffffffff160217905550808273ffffffffffffffffffffffffffffffffffffffff168473ffffffffffffffffffffffffffffffffffffffff167fddf252ad1be2c89b69c2b068fc378daa952ba7f163c4a11628f55a4df523b3ef60405160405180910390a4505050565b60016003811115611ba357611ba2613303565b5b600f60009054906101000a900460ff166003811115611bc557611bc4613303565b5b14611c05576040517f08c379a0000000000000000000000000000000000000000000000000000000008152600401611bfc90613829565b60405180910390fd5b60011515600b60008373ffffffffffffffffffffffffffffffffffffffff1673ffffffffffffffffffffffffffffffffffffffff16815260200190815260200160002060009054906101000a900460ff16151514611c98576040517f08c379a0000000000000000000000000000000000000000000000000000000008152600401611c8f90613895565b60405180910390fd5b600583600c60008473ffffffffffffffffffffffffffffffffffffffff1673ffffffffffffffffffffffffffffffffffffffff16815260200190815260200160002054611ce5919061340a565b1115611d26576040517f08c379a0000000000000000000000000000000000000000000000000000000008152600401611d1d90613927565b60405180910390fd5b600954821015611d6b576040517f08c379a0000000000000000000000000000000000000000000000000000000008152600401611d6290613993565b60405180910390fd5b6005831115611daf576040517f08c379a0000000000000000000000000000000000000000000000000000000008152600401611da690613a25565b60405180910390fd5b6101f4600e541115611df6576040517f08c379a0000000000000000000000000000000000000000000000000000000008152600401611ded90613ab7565b60405180910390fd5b60053073ffffffffffffffffffffffffffffffffffffffff166370a08231836040518263ffffffff1660e01b8152600401611e3191906128fb565b60206040518083038186803b158015611e4957600080fd5b505afa158015611e5d573d6000803e3d6000fd5b505050506040513d601f19601f82011682018060405250810190611e819190613aec565b1115611ec2576040517f08c379a0000000000000000000000000000000000000000000000000000000008152600401611eb990613b8b565b60405180910390fd5b505050565b600073ffffffffffffffffffffffffffffffffffffffff168273ffffffffffffffffffffffffffffffffffffffff161415611f37576040517f08c379a0000000000000000000000000000000000000000000000000000000008152600401611f2e90613bf7565b60405180910390fd5b611f4081611728565b15611f80576040517f08c379a0000000000000000000000000000000000000000000000000000000008152600401611f7790613c63565b60405180910390fd5b611f8c60008383612451565b6001600360008473ffffffffffffffffffffffffffffffffffffffff1673ffffffffffffffffffffffffffffffffffffffff1681526020019081526020016000206000828254611fdc919061340a565b92505081905550816002600083815260200190815260200160002060006101000a81548173ffffffffffffffffffffffffffffffffffffffff021916908373ffffffffffffffffffffffffffffffffffffffff160217905550808273ffffffffffffffffffffffffffffffffffffffff16600073ffffffffffffffffffffffffffffffffffffffff167fddf252ad1be2c89b69c2b068fc378daa952ba7f163c4a11628f55a4df523b3ef60405160405180910390a45050565b8173ffffffffffffffffffffffffffffffffffffffff168373ffffffffffffffffffffffffffffffffffffffff161415612104576040517f08c379a00000000000000000000000000000000000000000000000000000000081526004016120fb90613ccf565b60405180910390fd5b80600560008573ffffffffffffffffffffffffffffffffffffffff1673ffffffffffffffffffffffffffffffffffffffff16815260200190815260200160002060008473ffffffffffffffffffffffffffffffffffffffff1673ffffffffffffffffffffffffffffffffffffffff16815260200190815260200160002060006101000a81548160ff0219169083151502179055508173ffffffffffffffffffffffffffffffffffffffff168373ffffffffffffffffffffffffffffffffffffffff167f17307eab39ab6107e8899845ad3d59bd9653f200f220920489ca2b5937696c31836040516121f59190612757565b60405180910390a3505050565b61220d848484611933565b61221984848484612456565b612258576040517f08c379a000000000000000000000000000000000000000000000000000000000815260040161224f90613d61565b60405180910390fd5b50505050565b60606007805461226d90612e2c565b80601f016020809104026020016040519081016040528092919081815260200182805461229990612e2c565b80156122e65780601f106122bb576101008083540402835291602001916122e6565b820191906000526020600020905b8154815290600101906020018083116122c957829003601f168201915b5050505050905090565b60606000821415612338576040518060400160405280600181526020017f3000000000000000000000000000000000000000000000000000000000000000815250905061244c565b600082905060005b6000821461236a578080612353906132ba565b915050600a826123639190613db0565b9150612340565b60008167ffffffffffffffff81111561238657612385612a0c565b5b6040519080825280601f01601f1916602001820160405280156123b85781602001600182028036833780820191505090505b5090505b60008514612445576001826123d191906137a9565b9150600a856123e09190613de1565b60306123ec919061340a565b60f81b8183815181106124025761240161325c565b5b60200101907effffffffffffffffffffffffffffffffffffffffffffffffffffffffffffff1916908160001a905350600a8561243e9190613db0565b94506123bc565b8093505050505b919050565b505050565b60006124778473ffffffffffffffffffffffffffffffffffffffff166125ed565b156125e0578373ffffffffffffffffffffffffffffffffffffffff1663150b7a026124a0611794565b8786866040518563ffffffff1660e01b81526004016124c29493929190613e67565b602060405180830381600087803b1580156124dc57600080fd5b505af192505050801561250d57506040513d601f19601f8201168201806040525081019061250a9190613ec8565b60015b612590573d806000811461253d576040519150601f19603f3d011682016040523d82523d6000602084013e612542565b606091505b50600081511415612588576040517f08c379a000000000000000000000000000000000000000000000000000000000815260040161257f90613d61565b60405180910390fd5b805181602001fd5b63150b7a0260e01b7bffffffffffffffffffffffffffffffffffffffffffffffffffffffff1916817bffffffffffffffffffffffffffffffffffffffffffffffffffffffff1916149150506125e5565b600190505b949350505050565b600080823b905060008111915050919050565b82805461260c90612e2c565b90600052602060002090601f01602090048101928261262e5760008555612675565b82601f1061264757805160ff1916838001178555612675565b82800160010185558215612675579182015b82811115612674578251825591602001919060010190612659565b5b5090506126829190612686565b5090565b5b8082111561269f576000816000905550600101612687565b5090565b6000604051905090565b600080fd5b600080fd5b60007fffffffff0000000000000000000000000000000000000000000000000000000082169050919050565b6126ec816126b7565b81146126f757600080fd5b50565b600081359050612709816126e3565b92915050565b600060208284031215612725576127246126ad565b5b6000612733848285016126fa565b91505092915050565b60008115159050919050565b6127518161273c565b82525050565b600060208201905061276c6000830184612748565b92915050565b6000819050919050565b61278581612772565b82525050565b60006020820190506127a0600083018461277c565b92915050565b600081519050919050565b600082825260208201905092915050565b60005b838110156127e05780820151818401526020810190506127c5565b838111156127ef576000848401525b50505050565b6000601f19601f8301169050919050565b6000612811826127a6565b61281b81856127b1565b935061282b8185602086016127c2565b612834816127f5565b840191505092915050565b600060208201905081810360008301526128598184612806565b905092915050565b61286a81612772565b811461287557600080fd5b50565b60008135905061288781612861565b92915050565b6000602082840312156128a3576128a26126ad565b5b60006128b184828501612878565b91505092915050565b600073ffffffffffffffffffffffffffffffffffffffff82169050919050565b60006128e5826128ba565b9050919050565b6128f5816128da565b82525050565b600060208201905061291060008301846128ec565b92915050565b61291f816128da565b811461292a57600080fd5b50565b60008135905061293c81612916565b92915050565b60008060408385031215612959576129586126ad565b5b60006129678582860161292d565b925050602061297885828601612878565b9150509250929050565b60008060006060848603121561299b5761299a6126ad565b5b60006129a98682870161292d565b93505060206129ba8682870161292d565b92505060406129cb86828701612878565b9150509250925092565b6000602082840312156129eb576129ea6126ad565b5b60006129f98482850161292d565b91505092915050565b600080fd5b600080fd5b7f4e487b7100000000000000000000000000000000000000000000000000000000600052604160045260246000fd5b612a44826127f5565b810181811067ffffffffffffffff82111715612a6357612a62612a0c565b5b80604052505050565b6000612a766126a3565b9050612a828282612a3b565b919050565b600067ffffffffffffffff821115612aa257612aa1612a0c565b5b612aab826127f5565b9050602081019050919050565b82818337600083830152505050565b6000612ada612ad584612a87565b612a6c565b905082815260208101848484011115612af657612af5612a07565b5b612b01848285612ab8565b509392505050565b600082601f830112612b1e57612b1d612a02565b5b8135612b2e848260208601612ac7565b91505092915050565b600060208284031215612b4d57612b4c6126ad565b5b600082013567ffffffffffffffff811115612b6b57612b6a6126b2565b5b612b7784828501612b09565b91505092915050565b600080fd5b600080fd5b60008083601f840112612ba057612b9f612a02565b5b8235905067ffffffffffffffff811115612bbd57612bbc612b80565b5b602083019150836020820283011115612bd957612bd8612b85565b5b9250929050565b60008060208385031215612bf757612bf66126ad565b5b600083013567ffffffffffffffff811115612c1557612c146126b2565b5b612c2185828601612b8a565b92509250509250929050565b612c368161273c565b8114612c4157600080fd5b50565b600081359050612c5381612c2d565b92915050565b60008060408385031215612c7057612c6f6126ad565b5b6000612c7e8582860161292d565b9250506020612c8f85828601612c44565b9150509250929050565b600067ffffffffffffffff821115612cb457612cb3612a0c565b5b612cbd826127f5565b9050602081019050919050565b6000612cdd612cd884612c99565b612a6c565b905082815260208101848484011115612cf957612cf8612a07565b5b612d04848285612ab8565b509392505050565b600082601f830112612d2157612d20612a02565b5b8135612d31848260208601612cca565b91505092915050565b60008060008060808587031215612d5457612d536126ad565b5b6000612d628782880161292d565b9450506020612d738782880161292d565b9350506040612d8487828801612878565b925050606085013567ffffffffffffffff811115612da557612da46126b2565b5b612db187828801612d0c565b91505092959194509250565b60008060408385031215612dd457612dd36126ad565b5b6000612de28582860161292d565b9250506020612df38582860161292d565b9150509250929050565b7f4e487b7100000000000000000000000000000000000000000000000000000000600052602260045260246000fd5b60006002820490506001821680612e4457607f821691505b60208210811415612e5857612e57612dfd565b5b50919050565b7f4552433732313a20617070726f76656420717565727920666f72206e6f6e657860008201527f697374656e7420746f6b656e0000000000000000000000000000000000000000602082015250565b6000612eba602c836127b1565b9150612ec582612e5e565b604082019050919050565b60006020820190508181036000830152612ee981612ead565b9050919050565b7f4552433732313a20617070726f76616c20746f2063757272656e74206f776e6560008201527f7200000000000000000000000000000000000000000000000000000000000000602082015250565b6000612f4c6021836127b1565b9150612f5782612ef0565b604082019050919050565b60006020820190508181036000830152612f7b81612f3f565b9050919050565b7f4552433732313a20617070726f76652063616c6c6572206973206e6f74206f7760008201527f6e6572206e6f7220617070726f76656420666f7220616c6c0000000000000000602082015250565b6000612fde6038836127b1565b9150612fe982612f82565b604082019050919050565b6000602082019050818103600083015261300d81612fd1565b9050919050565b7f4552433732313a207472616e736665722063616c6c6572206973206e6f74206f60008201527f776e6572206e6f7220617070726f766564000000000000000000000000000000602082015250565b60006130706031836127b1565b915061307b82613014565b604082019050919050565b6000602082019050818103600083015261309f81613063565b9050919050565b7f6f6e6c79206f776e65722063616e20706572666f726d2074686973206163746960008201527f6f6e000000000000000000000000000000000000000000000000000000000000602082015250565b60006131026022836127b1565b915061310d826130a6565b604082019050919050565b60006020820190508181036000830152613131816130f5565b9050919050565b7f4552433732313a206f776e657220717565727920666f72206e6f6e657869737460008201527f656e7420746f6b656e0000000000000000000000000000000000000000000000602082015250565b60006131946029836127b1565b915061319f82613138565b604082019050919050565b600060208201905081810360008301526131c381613187565b9050919050565b7f4552433732313a2062616c616e636520717565727920666f7220746865207a6560008201527f726f206164647265737300000000000000000000000000000000000000000000602082015250565b6000613226602a836127b1565b9150613231826131ca565b604082019050919050565b6000602082019050818103600083015261325581613219565b9050919050565b7f4e487b7100000000000000000000000000000000000000000000000000000000600052603260045260246000fd5b7f4e487b7100000000000000000000000000000000000000000000000000000000600052601160045260246000fd5b60006132c582612772565b91507fffffffffffffffffffffffffffffffffffffffffffffffffffffffffffffffff8214156132f8576132f761328b565b5b600182019050919050565b7f4e487b7100000000000000000000000000000000000000000000000000000000600052602160045260246000fd5b7f4d696e74696e67206973206e6f74206f70656e00000000000000000000000000600082015250565b60006133686013836127b1565b915061337382613332565b602082019050919050565b600060208201905081810360008301526133978161335b565b9050919050565b7f4d696e74696e6720697320636c6f736564000000000000000000000000000000600082015250565b60006133d46011836127b1565b91506133df8261339e565b602082019050919050565b60006020820190508181036000830152613403816133c7565b9050919050565b600061341582612772565b915061342083612772565b9250827fffffffffffffffffffffffffffffffffffffffffffffffffffffffffffffffff038211156134555761345461328b565b5b828201905092915050565b7f4552433732314d657461646174613a2055524920717565727920666f72206e6f60008201527f6e6578697374656e7420746f6b656e0000000000000000000000000000000000602082015250565b60006134bc602f836127b1565b91506134c782613460565b604082019050919050565b600060208201905081810360008301526134eb816134af565b9050919050565b600081905092915050565b6000613508826127a6565b61351281856134f2565b93506135228185602086016127c2565b80840191505092915050565b60008190508160005260206000209050919050565b6000815461355081612e2c565b61355a81866134f2565b945060018216600081146135755760018114613586576135b9565b60ff198316865281860193506135b9565b61358f8561352e565b60005b838110156135b157815481890152600182019150602081019050613592565b838801955050505b50505092915050565b60006135ce82866134fd565b91506135da82856134fd565b91506135e68284613543565b9150819050949350505050565b7f4552433732313a206f70657261746f7220717565727920666f72206e6f6e657860008201527f697374656e7420746f6b656e0000000000000000000000000000000000000000602082015250565b600061364f602c836127b1565b915061365a826135f3565b604082019050919050565b6000602082019050818103600083015261367e81613642565b9050919050565b7f4552433732313a207472616e73666572206f6620746f6b656e2074686174206960008201527f73206e6f74206f776e0000000000000000000000000000000000000000000000602082015250565b60006136e16029836127b1565b91506136ec82613685565b604082019050919050565b60006020820190508181036000830152613710816136d4565b9050919050565b7f4552433732313a207472616e7366657220746f20746865207a65726f2061646460008201527f7265737300000000000000000000000000000000000000000000000000000000602082015250565b60006137736024836127b1565b915061377e82613717565b604082019050919050565b600060208201905081810360008301526137a281613766565b9050919050565b60006137b482612772565b91506137bf83612772565b9250828210156137d2576137d161328b565b5b828203905092915050565b7f4d696e74206e6f7420696e2057686974656c6973742070686173650000000000600082015250565b6000613813601b836127b1565b915061381e826137dd565b602082019050919050565b6000602082019050818103600083015261384281613806565b9050919050565b7f757365722061646472657373206973206e6f74206f6e2077686974656c697374600082015250565b600061387f6020836127b1565b915061388a82613849565b602082019050919050565b600060208201905081810360008301526138ae81613872565b9050919050565b7f4163636f756e7420416464726573732072656163686564206c696d6974206f6e60008201527f20546f6b656e7300000000000000000000000000000000000000000000000000602082015250565b60006139116027836127b1565b915061391c826138b5565b604082019050919050565b6000602082019050818103600083015261394081613904565b9050919050565b7f6e6f7420656e6f75676874206574682073656e74000000000000000000000000600082015250565b600061397d6014836127b1565b915061398882613947565b602082019050919050565b600060208201905081810360008301526139ac81613970565b9050919050565b7f63616e2774206d696e74206d6f7265207468616e2035206e667473206475726960008201527f6e67207072652d73616c65000000000000000000000000000000000000000000602082015250565b6000613a0f602b836127b1565b9150613a1a826139b3565b604082019050919050565b60006020820190508181036000830152613a3e81613a02565b9050919050565b7f6e6f206d6f7265206e66747320617661696c61626c6520666f72207072652d7360008201527f616c650000000000000000000000000000000000000000000000000000000000602082015250565b6000613aa16023836127b1565b9150613aac82613a45565b604082019050919050565b60006020820190508181036000830152613ad081613a94565b9050919050565b600081519050613ae681612861565b92915050565b600060208284031215613b0257613b016126ad565b5b6000613b1084828501613ad7565b91505092915050565b7f6d617820616d6f756e7420796f752063616e20686176652069732035206e667460008201527f7320647572696e67207072652d73616c65000000000000000000000000000000602082015250565b6000613b756031836127b1565b9150613b8082613b19565b604082019050919050565b60006020820190508181036000830152613ba481613b68565b9050919050565b7f4552433732313a206d696e7420746f20746865207a65726f2061646472657373600082015250565b6000613be16020836127b1565b9150613bec82613bab565b602082019050919050565b60006020820190508181036000830152613c1081613bd4565b9050919050565b7f4552433732313a20746f6b656e20616c7265616479206d696e74656400000000600082015250565b6000613c4d601c836127b1565b9150613c5882613c17565b602082019050919050565b60006020820190508181036000830152613c7c81613c40565b9050919050565b7f4552433732313a20617070726f766520746f2063616c6c657200000000000000600082015250565b6000613cb96019836127b1565b9150613cc482613c83565b602082019050919050565b60006020820190508181036000830152613ce881613cac565b9050919050565b7f4552433732313a207472616e7366657220746f206e6f6e20455243373231526560008201527f63656976657220696d706c656d656e7465720000000000000000000000000000602082015250565b6000613d4b6032836127b1565b9150613d5682613cef565b604082019050919050565b60006020820190508181036000830152613d7a81613d3e565b9050919050565b7f4e487b7100000000000000000000000000000000000000000000000000000000600052601260045260246000fd5b6000613dbb82612772565b9150613dc683612772565b925082613dd657613dd5613d81565b5b828204905092915050565b6000613dec82612772565b9150613df783612772565b925082613e0757613e06613d81565b5b828206905092915050565b600081519050919050565b600082825260208201905092915050565b6000613e3982613e12565b613e438185613e1d565b9350613e538185602086016127c2565b613e5c816127f5565b840191505092915050565b6000608082019050613e7c60008301876128ec565b613e8960208301866128ec565b613e96604083018561277c565b8181036060830152613ea88184613e2e565b905095945050505050565b600081519050613ec2816126e3565b92915050565b600060208284031215613ede57613edd6126ad565b5b6000613eec84828501613eb3565b9150509291505056fea26469706673582212207276fe004e906a56c40e56d27af57acd77ebddc01434f486ffe21efb061b217964736f6c63430008090033",
  "linkReferences": {},
  "deployedLinkReferences": {}
}