{
  "_format": "hh-sol-artifact-1",
  "contractName": "F1_NFT",
  "sourceName": "contracts/F1_NFT.sol",
  "abi": [
    {
      "inputs": [
        {
          "internalType": "string",
          "name": "_newBaseURI",
          "type": "string"
        },
        {
          "internalType": "uint256",
          "name": "_maxMintAmount",
          "type": "uint256"
        }
      ],
      "stateMutability": "nonpayable",
      "type": "constructor"
    },
    {
      "anonymous": false,
      "inputs": [
        {
          "indexed": true,
          "internalType": "address",
          "name": "owner",
          "type": "address"
        },
        {
          "indexed": true,
          "internalType": "address",
          "name": "approved",
          "type": "address"
        },
        {
          "indexed": true,
          "internalType": "uint256",
          "name": "tokenId",
          "type": "uint256"
        }
      ],
      "name": "Approval",
      "type": "event"
    },
    {
      "anonymous": false,
      "inputs": [
        {
          "indexed": true,
          "internalType": "address",
          "name": "owner",
          "type": "address"
        },
        {
          "indexed": true,
          "internalType": "address",
          "name": "operator",
          "type": "address"
        },
        {
          "indexed": false,
          "internalType": "bool",
          "name": "approved",
          "type": "bool"
        }
      ],
      "name": "ApprovalForAll",
      "type": "event"
    },
    {
      "anonymous": false,
      "inputs": [
        {
          "indexed": true,
          "internalType": "address",
          "name": "from",
          "type": "address"
        },
        {
          "indexed": true,
          "internalType": "address",
          "name": "to",
          "type": "address"
        },
        {
          "indexed": true,
          "internalType": "uint256",
          "name": "tokenId",
          "type": "uint256"
        }
      ],
      "name": "Transfer",
      "type": "event"
    },
    {
      "inputs": [],
      "name": "active",
      "outputs": [
        {
          "internalType": "bool",
          "name": "",
          "type": "bool"
        }
      ],
      "stateMutability": "view",
      "type": "function"
    },
    {
      "inputs": [
        {
          "internalType": "address[]",
          "name": "addresses",
          "type": "address[]"
        }
      ],
      "name": "addToWhiteList",
      "outputs": [],
      "stateMutability": "nonpayable",
      "type": "function"
    },
    {
      "inputs": [
        {
          "internalType": "address",
          "name": "",
          "type": "address"
        }
      ],
      "name": "addressTokenCount",
      "outputs": [
        {
          "internalType": "uint256",
          "name": "",
          "type": "uint256"
        }
      ],
      "stateMutability": "view",
      "type": "function"
    },
    {
      "inputs": [],
      "name": "amountMintedForGiveaways",
      "outputs": [
        {
          "internalType": "uint256",
          "name": "",
          "type": "uint256"
        }
      ],
      "stateMutability": "view",
      "type": "function"
    },
    {
      "inputs": [
        {
          "internalType": "address",
          "name": "to",
          "type": "address"
        },
        {
          "internalType": "uint256",
          "name": "tokenId",
          "type": "uint256"
        }
      ],
      "name": "approve",
      "outputs": [],
      "stateMutability": "nonpayable",
      "type": "function"
    },
    {
      "inputs": [
        {
          "internalType": "address",
          "name": "owner",
          "type": "address"
        }
      ],
      "name": "balanceOf",
      "outputs": [
        {
          "internalType": "uint256",
          "name": "",
          "type": "uint256"
        }
      ],
      "stateMutability": "view",
      "type": "function"
    },
    {
      "inputs": [],
      "name": "baseExtension",
      "outputs": [
        {
          "internalType": "string",
          "name": "",
          "type": "string"
        }
      ],
      "stateMutability": "view",
      "type": "function"
    },
    {
      "inputs": [],
      "name": "baseURI",
      "outputs": [
        {
          "internalType": "string",
          "name": "",
          "type": "string"
        }
      ],
      "stateMutability": "view",
      "type": "function"
    },
    {
      "inputs": [
        {
          "internalType": "uint256",
          "name": "amount",
          "type": "uint256"
        }
      ],
      "name": "changeMintAmount",
      "outputs": [],
      "stateMutability": "nonpayable",
      "type": "function"
    },
    {
      "inputs": [
        {
          "internalType": "uint256",
          "name": "tokenId",
          "type": "uint256"
        }
      ],
      "name": "getApproved",
      "outputs": [
        {
          "internalType": "address",
          "name": "",
          "type": "address"
        }
      ],
      "stateMutability": "view",
      "type": "function"
    },
    {
      "inputs": [
        {
          "internalType": "address",
          "name": "owner",
          "type": "address"
        },
        {
          "internalType": "address",
          "name": "operator",
          "type": "address"
        }
      ],
      "name": "isApprovedForAll",
      "outputs": [
        {
          "internalType": "bool",
          "name": "",
          "type": "bool"
        }
      ],
      "stateMutability": "view",
      "type": "function"
    },
    {
      "inputs": [],
      "name": "maxMintAmount",
      "outputs": [
        {
          "internalType": "uint256",
          "name": "",
          "type": "uint256"
        }
      ],
      "stateMutability": "view",
      "type": "function"
    },
    {
      "inputs": [
        {
          "internalType": "uint256",
          "name": "nftAmountToMint",
          "type": "uint256"
        }
      ],
      "name": "mint",
      "outputs": [],
      "stateMutability": "payable",
      "type": "function"
    },
    {
      "inputs": [
        {
          "internalType": "uint256",
          "name": "amount",
          "type": "uint256"
        }
      ],
      "name": "mintForGiveAway",
      "outputs": [],
      "stateMutability": "nonpayable",
      "type": "function"
    },
    {
      "inputs": [],
      "name": "name",
      "outputs": [
        {
          "internalType": "string",
          "name": "",
          "type": "string"
        }
      ],
      "stateMutability": "view",
      "type": "function"
    },
    {
      "inputs": [],
      "name": "owner",
      "outputs": [
        {
          "internalType": "address",
          "name": "",
          "type": "address"
        }
      ],
      "stateMutability": "view",
      "type": "function"
    },
    {
      "inputs": [
        {
          "internalType": "uint256",
          "name": "tokenId",
          "type": "uint256"
        }
      ],
      "name": "ownerOf",
      "outputs": [
        {
          "internalType": "address",
          "name": "",
          "type": "address"
        }
      ],
      "stateMutability": "view",
      "type": "function"
    },
    {
      "inputs": [
        {
          "internalType": "address",
          "name": "from",
          "type": "address"
        },
        {
          "internalType": "address",
          "name": "to",
          "type": "address"
        },
        {
          "internalType": "uint256",
          "name": "tokenId",
          "type": "uint256"
        }
      ],
      "name": "safeTransferFrom",
      "outputs": [],
      "stateMutability": "nonpayable",
      "type": "function"
    },
    {
      "inputs": [
        {
          "internalType": "address",
          "name": "from",
          "type": "address"
        },
        {
          "internalType": "address",
          "name": "to",
          "type": "address"
        },
        {
          "internalType": "uint256",
          "name": "tokenId",
          "type": "uint256"
        },
        {
          "internalType": "bytes",
          "name": "_data",
          "type": "bytes"
        }
      ],
      "name": "safeTransferFrom",
      "outputs": [],
      "stateMutability": "nonpayable",
      "type": "function"
    },
    {
      "inputs": [
        {
          "internalType": "address",
          "name": "operator",
          "type": "address"
        },
        {
          "internalType": "bool",
          "name": "approved",
          "type": "bool"
        }
      ],
      "name": "setApprovalForAll",
      "outputs": [],
      "stateMutability": "nonpayable",
      "type": "function"
    },
    {
      "inputs": [
        {
          "internalType": "string",
          "name": "_newBaseURI",
          "type": "string"
        }
      ],
      "name": "setBaseURI",
      "outputs": [],
      "stateMutability": "nonpayable",
      "type": "function"
    },
    {
      "inputs": [
        {
          "internalType": "bytes4",
          "name": "interfaceId",
          "type": "bytes4"
        }
      ],
      "name": "supportsInterface",
      "outputs": [
        {
          "internalType": "bool",
          "name": "",
          "type": "bool"
        }
      ],
      "stateMutability": "view",
      "type": "function"
    },
    {
      "inputs": [],
      "name": "symbol",
      "outputs": [
        {
          "internalType": "string",
          "name": "",
          "type": "string"
        }
      ],
      "stateMutability": "view",
      "type": "function"
    },
    {
      "inputs": [],
      "name": "toggleOff",
      "outputs": [],
      "stateMutability": "nonpayable",
      "type": "function"
    },
    {
      "inputs": [],
      "name": "toggleOn",
      "outputs": [],
      "stateMutability": "nonpayable",
      "type": "function"
    },
    {
      "inputs": [],
      "name": "tokenID",
      "outputs": [
        {
          "internalType": "uint256",
          "name": "",
          "type": "uint256"
        }
      ],
      "stateMutability": "view",
      "type": "function"
    },
    {
      "inputs": [
        {
          "internalType": "uint256",
          "name": "tokenId",
          "type": "uint256"
        }
      ],
      "name": "tokenURI",
      "outputs": [
        {
          "internalType": "string",
          "name": "",
          "type": "string"
        }
      ],
      "stateMutability": "view",
      "type": "function"
    },
    {
      "inputs": [
        {
          "internalType": "address",
          "name": "from",
          "type": "address"
        },
        {
          "internalType": "address",
          "name": "to",
          "type": "address"
        },
        {
          "internalType": "uint256",
          "name": "tokenId",
          "type": "uint256"
        }
      ],
      "name": "transferFrom",
      "outputs": [],
      "stateMutability": "nonpayable",
      "type": "function"
    },
    {
      "inputs": [
        {
          "internalType": "uint256",
          "name": "",
          "type": "uint256"
        }
      ],
      "name": "uriMap",
      "outputs": [
        {
          "internalType": "string",
          "name": "",
          "type": "string"
        }
      ],
      "stateMutability": "view",
      "type": "function"
    },
    {
      "inputs": [
        {
          "internalType": "address",
          "name": "",
          "type": "address"
        }
      ],
      "name": "whiteListAddresses",
      "outputs": [
        {
          "internalType": "bool",
          "name": "",
          "type": "bool"
        }
      ],
      "stateMutability": "view",
      "type": "function"
    },
    {
      "inputs": [],
      "name": "withdraw",
      "outputs": [],
      "stateMutability": "nonpayable",
      "type": "function"
    }
  ],
  "bytecode": "0x60806040526040518060400160405280600581526020017f2e6a736f6e00000000000000000000000000000000000000000000000000000081525060089080519060200190620000519291906200023a565b506001600d553480156200006457600080fd5b506040516200452c3803806200452c83398181016040528101906200008a9190620004c2565b6040518060400160405280600681526020017f66315f44414f00000000000000000000000000000000000000000000000000008152506040518060400160405280600281526020017f663100000000000000000000000000000000000000000000000000000000000081525081600090805190602001906200010e9291906200023a565b508060019080519060200190620001279291906200023a565b50505033600660006101000a81548173ffffffffffffffffffffffffffffffffffffffff021916908373ffffffffffffffffffffffffffffffffffffffff1602179055508060098190555062000183826200018b60201b60201c565b505062000636565b600660009054906101000a900473ffffffffffffffffffffffffffffffffffffffff1673ffffffffffffffffffffffffffffffffffffffff163373ffffffffffffffffffffffffffffffffffffffff16146200021e576040517f08c379a00000000000000000000000000000000000000000000000000000000081526004016200021590620005af565b60405180910390fd5b8060079080519060200190620002369291906200023a565b5050565b828054620002489062000600565b90600052602060002090601f0160209004810192826200026c5760008555620002b8565b82601f106200028757805160ff1916838001178555620002b8565b82800160010185558215620002b8579182015b82811115620002b75782518255916020019190600101906200029a565b5b509050620002c79190620002cb565b5090565b5b80821115620002e6576000816000905550600101620002cc565b5090565b6000604051905090565b600080fd5b600080fd5b600080fd5b600080fd5b6000601f19601f8301169050919050565b7f4e487b7100000000000000000000000000000000000000000000000000000000600052604160045260246000fd5b620003538262000308565b810181811067ffffffffffffffff8211171562000375576200037462000319565b5b80604052505050565b60006200038a620002ea565b905062000398828262000348565b919050565b600067ffffffffffffffff821115620003bb57620003ba62000319565b5b620003c68262000308565b9050602081019050919050565b60005b83811015620003f3578082015181840152602081019050620003d6565b8381111562000403576000848401525b50505050565b6000620004206200041a846200039d565b6200037e565b9050828152602081018484840111156200043f576200043e62000303565b5b6200044c848285620003d3565b509392505050565b600082601f8301126200046c576200046b620002fe565b5b81516200047e84826020860162000409565b91505092915050565b6000819050919050565b6200049c8162000487565b8114620004a857600080fd5b50565b600081519050620004bc8162000491565b92915050565b60008060408385031215620004dc57620004db620002f4565b5b600083015167ffffffffffffffff811115620004fd57620004fc620002f9565b5b6200050b8582860162000454565b92505060206200051e85828601620004ab565b9150509250929050565b600082825260208201905092915050565b7f6f6e6c79206f776e65722063616e20706572666f726d2074686973206163746960008201527f6f6e000000000000000000000000000000000000000000000000000000000000602082015250565b60006200059760228362000528565b9150620005a48262000539565b604082019050919050565b60006020820190508181036000830152620005ca8162000588565b9050919050565b7f4e487b7100000000000000000000000000000000000000000000000000000000600052602260045260246000fd5b600060028204905060018216806200061957607f821691505b6020821081141562000630576200062f620005d1565b5b50919050565b613ee680620006466000396000f3fe6080604052600436106101d85760003560e01c8063740d73f311610102578063b2a08be711610095578063dd2eb9f311610064578063dd2eb9f31461069b578063e784f4c2146106d8578063e985e9c514610703578063f4c2366714610740576101d8565b8063b2a08be7146105e1578063b88d4fde1461060a578063c668286214610633578063c87b56dd1461065e576101d8565b806395d89b41116100d157806395d89b4114610546578063a0712d6814610571578063a22cb4651461058d578063a5c42ef1146105b6576101d8565b8063740d73f31461048c5780637d5092c9146104b55780638da5cb5b146104de578063920674dc14610509576101d8565b8063267bcabd1161017a57806355f804b31161014957806355f804b3146103be5780636352211e146103e75780636c0360eb1461042457806370a082311461044f576101d8565b8063267bcabd1461032a5780633ccfd60b1461034157806342842e0e14610358578063474dd97d14610381576101d8565b8063081812fc116101b6578063081812fc14610270578063095ea7b3146102ad578063239c70ae146102d657806323b872dd14610301576101d8565b806301ffc9a7146101dd57806302fb0c5e1461021a57806306fdde0314610245575b600080fd5b3480156101e957600080fd5b5061020460048036038101906101ff919061281d565b610757565b6040516102119190612865565b60405180910390f35b34801561022657600080fd5b5061022f610839565b60405161023c9190612865565b60405180910390f35b34801561025157600080fd5b5061025a61084c565b6040516102679190612919565b60405180910390f35b34801561027c57600080fd5b5061029760048036038101906102929190612971565b6108de565b6040516102a491906129df565b60405180910390f35b3480156102b957600080fd5b506102d460048036038101906102cf9190612a26565b610963565b005b3480156102e257600080fd5b506102eb610a7b565b6040516102f89190612a75565b60405180910390f35b34801561030d57600080fd5b5061032860048036038101906103239190612a90565b610a81565b005b34801561033657600080fd5b5061033f610ae1565b005b34801561034d57600080fd5b50610356610b8e565b005b34801561036457600080fd5b5061037f600480360381019061037a9190612a90565b610cbf565b005b34801561038d57600080fd5b506103a860048036038101906103a39190612ae3565b610cdf565b6040516103b59190612a75565b60405180910390f35b3480156103ca57600080fd5b506103e560048036038101906103e09190612c45565b610cf7565b005b3480156103f357600080fd5b5061040e60048036038101906104099190612971565b610da1565b60405161041b91906129df565b60405180910390f35b34801561043057600080fd5b50610439610e53565b6040516104469190612919565b60405180910390f35b34801561045b57600080fd5b5061047660048036038101906104719190612ae3565b610ee1565b6040516104839190612a75565b60405180910390f35b34801561049857600080fd5b506104b360048036038101906104ae9190612cee565b610f99565b005b3480156104c157600080fd5b506104dc60048036038101906104d79190612971565b6110ce565b005b3480156104ea57600080fd5b506104f3611168565b60405161050091906129df565b60405180910390f35b34801561051557600080fd5b50610530600480360381019061052b9190612ae3565b61118e565b60405161053d9190612865565b60405180910390f35b34801561055257600080fd5b5061055b6111ae565b6040516105689190612919565b60405180910390f35b61058b60048036038101906105869190612971565b611240565b005b34801561059957600080fd5b506105b460048036038101906105af9190612d67565b611360565b005b3480156105c257600080fd5b506105cb611376565b6040516105d89190612a75565b60405180910390f35b3480156105ed57600080fd5b5061060860048036038101906106039190612971565b61137c565b005b34801561061657600080fd5b50610631600480360381019061062c9190612e48565b61153a565b005b34801561063f57600080fd5b5061064861159c565b6040516106559190612919565b60405180910390f35b34801561066a57600080fd5b5061068560048036038101906106809190612971565b61162a565b6040516106929190612919565b60405180910390f35b3480156106a757600080fd5b506106c260048036038101906106bd9190612971565b6116d4565b6040516106cf9190612919565b60405180910390f35b3480156106e457600080fd5b506106ed611774565b6040516106fa9190612a75565b60405180910390f35b34801561070f57600080fd5b5061072a60048036038101906107259190612ecb565b61177a565b6040516107379190612865565b60405180910390f35b34801561074c57600080fd5b5061075561180e565b005b60007f80ac58cd000000000000000000000000000000000000000000000000000000007bffffffffffffffffffffffffffffffffffffffffffffffffffffffff1916827bffffffffffffffffffffffffffffffffffffffffffffffffffffffff1916148061082257507f5b5e139f000000000000000000000000000000000000000000000000000000007bffffffffffffffffffffffffffffffffffffffffffffffffffffffff1916827bffffffffffffffffffffffffffffffffffffffffffffffffffffffff1916145b806108325750610831826118bb565b5b9050919050565b600f60009054906101000a900460ff1681565b60606000805461085b90612f3a565b80601f016020809104026020016040519081016040528092919081815260200182805461088790612f3a565b80156108d45780601f106108a9576101008083540402835291602001916108d4565b820191906000526020600020905b8154815290600101906020018083116108b757829003601f168201915b5050505050905090565b60006108e982611925565b610928576040517f08c379a000000000000000000000000000000000000000000000000000000000815260040161091f90612fde565b60405180910390fd5b6004600083815260200190815260200160002060009054906101000a900473ffffffffffffffffffffffffffffffffffffffff169050919050565b600061096e82610da1565b90508073ffffffffffffffffffffffffffffffffffffffff168373ffffffffffffffffffffffffffffffffffffffff1614156109df576040517f08c379a00000000000000000000000000000000000000000000000000000000081526004016109d690613070565b60405180910390fd5b8073ffffffffffffffffffffffffffffffffffffffff166109fe611991565b73ffffffffffffffffffffffffffffffffffffffff161480610a2d5750610a2c81610a27611991565b61177a565b5b610a6c576040517f08c379a0000000000000000000000000000000000000000000000000000000008152600401610a6390613102565b60405180910390fd5b610a768383611999565b505050565b60095481565b610a92610a8c611991565b82611a52565b610ad1576040517f08c379a0000000000000000000000000000000000000000000000000000000008152600401610ac890613194565b60405180910390fd5b610adc838383611b30565b505050565b600660009054906101000a900473ffffffffffffffffffffffffffffffffffffffff1673ffffffffffffffffffffffffffffffffffffffff163373ffffffffffffffffffffffffffffffffffffffff1614610b71576040517f08c379a0000000000000000000000000000000000000000000000000000000008152600401610b6890613226565b60405180910390fd5b6001600f60006101000a81548160ff021916908315150217905550565b600660009054906101000a900473ffffffffffffffffffffffffffffffffffffffff1673ffffffffffffffffffffffffffffffffffffffff163373ffffffffffffffffffffffffffffffffffffffff1614610c1e576040517f08c379a0000000000000000000000000000000000000000000000000000000008152600401610c1590613226565b60405180910390fd5b60004790506000600660009054906101000a900473ffffffffffffffffffffffffffffffffffffffff1673ffffffffffffffffffffffffffffffffffffffff1682604051610c6b90613277565b60006040518083038185875af1925050503d8060008114610ca8576040519150601f19603f3d011682016040523d82523d6000602084013e610cad565b606091505b5050905080610cbb57600080fd5b5050565b610cda8383836040518060200160405280600081525061153a565b505050565b600b6020528060005260406000206000915090505481565b600660009054906101000a900473ffffffffffffffffffffffffffffffffffffffff1673ffffffffffffffffffffffffffffffffffffffff163373ffffffffffffffffffffffffffffffffffffffff1614610d87576040517f08c379a0000000000000000000000000000000000000000000000000000000008152600401610d7e90613226565b60405180910390fd5b8060079080519060200190610d9d92919061270e565b5050565b6000806002600084815260200190815260200160002060009054906101000a900473ffffffffffffffffffffffffffffffffffffffff169050600073ffffffffffffffffffffffffffffffffffffffff168173ffffffffffffffffffffffffffffffffffffffff161415610e4a576040517f08c379a0000000000000000000000000000000000000000000000000000000008152600401610e41906132fe565b60405180910390fd5b80915050919050565b60078054610e6090612f3a565b80601f0160208091040260200160405190810160405280929190818152602001828054610e8c90612f3a565b8015610ed95780601f10610eae57610100808354040283529160200191610ed9565b820191906000526020600020905b815481529060010190602001808311610ebc57829003601f168201915b505050505081565b60008073ffffffffffffffffffffffffffffffffffffffff168273ffffffffffffffffffffffffffffffffffffffff161415610f52576040517f08c379a0000000000000000000000000000000000000000000000000000000008152600401610f4990613390565b60405180910390fd5b600360008373ffffffffffffffffffffffffffffffffffffffff1673ffffffffffffffffffffffffffffffffffffffff168152602001908152602001600020549050919050565b600660009054906101000a900473ffffffffffffffffffffffffffffffffffffffff1673ffffffffffffffffffffffffffffffffffffffff163373ffffffffffffffffffffffffffffffffffffffff1614611029576040517f08c379a000000000000000000000000000000000000000000000000000000000815260040161102090613226565b60405180910390fd5b60005b828290508110156110c9576001600a60008585858181106110505761104f6133b0565b5b90506020020160208101906110659190612ae3565b73ffffffffffffffffffffffffffffffffffffffff1673ffffffffffffffffffffffffffffffffffffffff16815260200190815260200160002060006101000a81548160ff02191690831515021790555080806110c19061340e565b91505061102c565b505050565b600660009054906101000a900473ffffffffffffffffffffffffffffffffffffffff1673ffffffffffffffffffffffffffffffffffffffff163373ffffffffffffffffffffffffffffffffffffffff161461115e576040517f08c379a000000000000000000000000000000000000000000000000000000000815260040161115590613226565b60405180910390fd5b8060098190555050565b600660009054906101000a900473ffffffffffffffffffffffffffffffffffffffff1681565b600a6020528060005260406000206000915054906101000a900460ff1681565b6060600180546111bd90612f3a565b80601f01602080910402602001604051908101604052809291908181526020018280546111e990612f3a565b80156112365780601f1061120b57610100808354040283529160200191611236565b820191906000526020600020905b81548152906001019060200180831161121957829003601f168201915b5050505050905090565b612328600d541115611287576040517f08c379a000000000000000000000000000000000000000000000000000000000815260040161127e906134a3565b60405180910390fd5b6112918133611d8c565b60005b8181101561135c576112a833600d54611fd5565b6112b3600d5461162a565b600c6000600d54815260200190815260200160002090805190602001906112db92919061270e565b50600b60003373ffffffffffffffffffffffffffffffffffffffff1673ffffffffffffffffffffffffffffffffffffffff168152602001908152602001600020600081548092919061132c9061340e565b9190505550600d60008154809291906113449061340e565b919050555080806113549061340e565b915050611294565b5050565b61137261136b611991565b83836121a3565b5050565b600d5481565b600660009054906101000a900473ffffffffffffffffffffffffffffffffffffffff1673ffffffffffffffffffffffffffffffffffffffff163373ffffffffffffffffffffffffffffffffffffffff161461140c576040517f08c379a000000000000000000000000000000000000000000000000000000000815260040161140390613226565b60405180910390fd5b6103e8600e541115611453576040517f08c379a000000000000000000000000000000000000000000000000000000000815260040161144a90613535565b60405180910390fd5b60005b8181101561151e5761146a33600d54611fd5565b611475600d5461162a565b600c6000600d548152602001908152602001600020908051906020019061149d92919061270e565b50600b60003373ffffffffffffffffffffffffffffffffffffffff1673ffffffffffffffffffffffffffffffffffffffff16815260200190815260200160002060008154809291906114ee9061340e565b9190505550600d60008154809291906115069061340e565b919050555080806115169061340e565b915050611456565b50600e60008154809291906115329061340e565b919050555050565b61154b611545611991565b83611a52565b61158a576040517f08c379a000000000000000000000000000000000000000000000000000000000815260040161158190613194565b60405180910390fd5b61159684848484612310565b50505050565b600880546115a990612f3a565b80601f01602080910402602001604051908101604052809291908181526020018280546115d590612f3a565b80156116225780601f106115f757610100808354040283529160200191611622565b820191906000526020600020905b81548152906001019060200180831161160557829003601f168201915b505050505081565b606061163582611925565b611674576040517f08c379a000000000000000000000000000000000000000000000000000000000815260040161166b906135c7565b60405180910390fd5b600061167e61236c565b9050600081511161169e57604051806020016040528060008152506116cc565b806116a8846123fe565b60086040516020016116bc939291906136b7565b6040516020818303038152906040525b915050919050565b600c60205280600052604060002060009150905080546116f390612f3a565b80601f016020809104026020016040519081016040528092919081815260200182805461171f90612f3a565b801561176c5780601f106117415761010080835404028352916020019161176c565b820191906000526020600020905b81548152906001019060200180831161174f57829003601f168201915b505050505081565b600e5481565b6000600560008473ffffffffffffffffffffffffffffffffffffffff1673ffffffffffffffffffffffffffffffffffffffff16815260200190815260200160002060008373ffffffffffffffffffffffffffffffffffffffff1673ffffffffffffffffffffffffffffffffffffffff16815260200190815260200160002060009054906101000a900460ff16905092915050565b600660009054906101000a900473ffffffffffffffffffffffffffffffffffffffff1673ffffffffffffffffffffffffffffffffffffffff163373ffffffffffffffffffffffffffffffffffffffff161461189e576040517f08c379a000000000000000000000000000000000000000000000000000000000815260040161189590613226565b60405180910390fd5b6000600f60006101000a81548160ff021916908315150217905550565b60007f01ffc9a7000000000000000000000000000000000000000000000000000000007bffffffffffffffffffffffffffffffffffffffffffffffffffffffff1916827bffffffffffffffffffffffffffffffffffffffffffffffffffffffff1916149050919050565b60008073ffffffffffffffffffffffffffffffffffffffff166002600084815260200190815260200160002060009054906101000a900473ffffffffffffffffffffffffffffffffffffffff1673ffffffffffffffffffffffffffffffffffffffff1614159050919050565b600033905090565b816004600083815260200190815260200160002060006101000a81548173ffffffffffffffffffffffffffffffffffffffff021916908373ffffffffffffffffffffffffffffffffffffffff160217905550808273ffffffffffffffffffffffffffffffffffffffff16611a0c83610da1565b73ffffffffffffffffffffffffffffffffffffffff167f8c5be1e5ebec7d5bd14f71427d1e84f3dd0314c0f7b2291e5b200ac8c7c3b92560405160405180910390a45050565b6000611a5d82611925565b611a9c576040517f08c379a0000000000000000000000000000000000000000000000000000000008152600401611a939061375a565b60405180910390fd5b6000611aa783610da1565b90508073ffffffffffffffffffffffffffffffffffffffff168473ffffffffffffffffffffffffffffffffffffffff161480611b1657508373ffffffffffffffffffffffffffffffffffffffff16611afe846108de565b73ffffffffffffffffffffffffffffffffffffffff16145b80611b275750611b26818561177a565b5b91505092915050565b8273ffffffffffffffffffffffffffffffffffffffff16611b5082610da1565b73ffffffffffffffffffffffffffffffffffffffff1614611ba6576040517f08c379a0000000000000000000000000000000000000000000000000000000008152600401611b9d906137ec565b60405180910390fd5b600073ffffffffffffffffffffffffffffffffffffffff168273ffffffffffffffffffffffffffffffffffffffff161415611c16576040517f08c379a0000000000000000000000000000000000000000000000000000000008152600401611c0d9061387e565b60405180910390fd5b611c2183838361255f565b611c2c600082611999565b6001600360008573ffffffffffffffffffffffffffffffffffffffff1673ffffffffffffffffffffffffffffffffffffffff1681526020019081526020016000206000828254611c7c919061389e565b925050819055506001600360008473ffffffffffffffffffffffffffffffffffffffff1673ffffffffffffffffffffffffffffffffffffffff1681526020019081526020016000206000828254611cd391906138d2565b92505081905550816002600083815260200190815260200160002060006101000a81548173ffffffffffffffffffffffffffffffffffffffff021916908373ffffffffffffffffffffffffffffffffffffffff160217905550808273ffffffffffffffffffffffffffffffffffffffff168473ffffffffffffffffffffffffffffffffffffffff167fddf252ad1be2c89b69c2b068fc378daa952ba7f163c4a11628f55a4df523b3ef60405160405180910390a4505050565b60011515600f60009054906101000a900460ff16151514611de2576040517f08c379a0000000000000000000000000000000000000000000000000000000008152600401611dd990613974565b60405180910390fd5b60011515600a60008373ffffffffffffffffffffffffffffffffffffffff1673ffffffffffffffffffffffffffffffffffffffff16815260200190815260200160002060009054906101000a900460ff16151514611e75576040517f08c379a0000000000000000000000000000000000000000000000000000000008152600401611e6c906139e0565b60405180910390fd5b60095482600b60008473ffffffffffffffffffffffffffffffffffffffff1673ffffffffffffffffffffffffffffffffffffffff16815260200190815260200160002054611ec391906138d2565b1115611f04576040517f08c379a0000000000000000000000000000000000000000000000000000000008152600401611efb90613a72565b60405180910390fd5b6009543073ffffffffffffffffffffffffffffffffffffffff166370a08231836040518263ffffffff1660e01b8152600401611f4091906129df565b60206040518083038186803b158015611f5857600080fd5b505afa158015611f6c573d6000803e3d6000fd5b505050506040513d601f19601f82011682018060405250810190611f909190613aa7565b1115611fd1576040517f08c379a0000000000000000000000000000000000000000000000000000000008152600401611fc890613b46565b60405180910390fd5b5050565b600073ffffffffffffffffffffffffffffffffffffffff168273ffffffffffffffffffffffffffffffffffffffff161415612045576040517f08c379a000000000000000000000000000000000000000000000000000000000815260040161203c90613bb2565b60405180910390fd5b61204e81611925565b1561208e576040517f08c379a000000000000000000000000000000000000000000000000000000000815260040161208590613c1e565b60405180910390fd5b61209a6000838361255f565b6001600360008473ffffffffffffffffffffffffffffffffffffffff1673ffffffffffffffffffffffffffffffffffffffff16815260200190815260200160002060008282546120ea91906138d2565b92505081905550816002600083815260200190815260200160002060006101000a81548173ffffffffffffffffffffffffffffffffffffffff021916908373ffffffffffffffffffffffffffffffffffffffff160217905550808273ffffffffffffffffffffffffffffffffffffffff16600073ffffffffffffffffffffffffffffffffffffffff167fddf252ad1be2c89b69c2b068fc378daa952ba7f163c4a11628f55a4df523b3ef60405160405180910390a45050565b8173ffffffffffffffffffffffffffffffffffffffff168373ffffffffffffffffffffffffffffffffffffffff161415612212576040517f08c379a000000000000000000000000000000000000000000000000000000000815260040161220990613c8a565b60405180910390fd5b80600560008573ffffffffffffffffffffffffffffffffffffffff1673ffffffffffffffffffffffffffffffffffffffff16815260200190815260200160002060008473ffffffffffffffffffffffffffffffffffffffff1673ffffffffffffffffffffffffffffffffffffffff16815260200190815260200160002060006101000a81548160ff0219169083151502179055508173ffffffffffffffffffffffffffffffffffffffff168373ffffffffffffffffffffffffffffffffffffffff167f17307eab39ab6107e8899845ad3d59bd9653f200f220920489ca2b5937696c31836040516123039190612865565b60405180910390a3505050565b61231b848484611b30565b61232784848484612564565b612366576040517f08c379a000000000000000000000000000000000000000000000000000000000815260040161235d90613d1c565b60405180910390fd5b50505050565b60606007805461237b90612f3a565b80601f01602080910402602001604051908101604052809291908181526020018280546123a790612f3a565b80156123f45780601f106123c9576101008083540402835291602001916123f4565b820191906000526020600020905b8154815290600101906020018083116123d757829003601f168201915b5050505050905090565b60606000821415612446576040518060400160405280600181526020017f3000000000000000000000000000000000000000000000000000000000000000815250905061255a565b600082905060005b600082146124785780806124619061340e565b915050600a826124719190613d6b565b915061244e565b60008167ffffffffffffffff81111561249457612493612b1a565b5b6040519080825280601f01601f1916602001820160405280156124c65781602001600182028036833780820191505090505b5090505b60008514612553576001826124df919061389e565b9150600a856124ee9190613d9c565b60306124fa91906138d2565b60f81b8183815181106125105761250f6133b0565b5b60200101907effffffffffffffffffffffffffffffffffffffffffffffffffffffffffffff1916908160001a905350600a8561254c9190613d6b565b94506124ca565b8093505050505b919050565b505050565b60006125858473ffffffffffffffffffffffffffffffffffffffff166126fb565b156126ee578373ffffffffffffffffffffffffffffffffffffffff1663150b7a026125ae611991565b8786866040518563ffffffff1660e01b81526004016125d09493929190613e22565b602060405180830381600087803b1580156125ea57600080fd5b505af192505050801561261b57506040513d601f19601f820116820180604052508101906126189190613e83565b60015b61269e573d806000811461264b576040519150601f19603f3d011682016040523d82523d6000602084013e612650565b606091505b50600081511415612696576040517f08c379a000000000000000000000000000000000000000000000000000000000815260040161268d90613d1c565b60405180910390fd5b805181602001fd5b63150b7a0260e01b7bffffffffffffffffffffffffffffffffffffffffffffffffffffffff1916817bffffffffffffffffffffffffffffffffffffffffffffffffffffffff1916149150506126f3565b600190505b949350505050565b600080823b905060008111915050919050565b82805461271a90612f3a565b90600052602060002090601f01602090048101928261273c5760008555612783565b82601f1061275557805160ff1916838001178555612783565b82800160010185558215612783579182015b82811115612782578251825591602001919060010190612767565b5b5090506127909190612794565b5090565b5b808211156127ad576000816000905550600101612795565b5090565b6000604051905090565b600080fd5b600080fd5b60007fffffffff0000000000000000000000000000000000000000000000000000000082169050919050565b6127fa816127c5565b811461280557600080fd5b50565b600081359050612817816127f1565b92915050565b600060208284031215612833576128326127bb565b5b600061284184828501612808565b91505092915050565b60008115159050919050565b61285f8161284a565b82525050565b600060208201905061287a6000830184612856565b92915050565b600081519050919050565b600082825260208201905092915050565b60005b838110156128ba57808201518184015260208101905061289f565b838111156128c9576000848401525b50505050565b6000601f19601f8301169050919050565b60006128eb82612880565b6128f5818561288b565b935061290581856020860161289c565b61290e816128cf565b840191505092915050565b6000602082019050818103600083015261293381846128e0565b905092915050565b6000819050919050565b61294e8161293b565b811461295957600080fd5b50565b60008135905061296b81612945565b92915050565b600060208284031215612987576129866127bb565b5b60006129958482850161295c565b91505092915050565b600073ffffffffffffffffffffffffffffffffffffffff82169050919050565b60006129c98261299e565b9050919050565b6129d9816129be565b82525050565b60006020820190506129f460008301846129d0565b92915050565b612a03816129be565b8114612a0e57600080fd5b50565b600081359050612a20816129fa565b92915050565b60008060408385031215612a3d57612a3c6127bb565b5b6000612a4b85828601612a11565b9250506020612a5c8582860161295c565b9150509250929050565b612a6f8161293b565b82525050565b6000602082019050612a8a6000830184612a66565b92915050565b600080600060608486031215612aa957612aa86127bb565b5b6000612ab786828701612a11565b9350506020612ac886828701612a11565b9250506040612ad98682870161295c565b9150509250925092565b600060208284031215612af957612af86127bb565b5b6000612b0784828501612a11565b91505092915050565b600080fd5b600080fd5b7f4e487b7100000000000000000000000000000000000000000000000000000000600052604160045260246000fd5b612b52826128cf565b810181811067ffffffffffffffff82111715612b7157612b70612b1a565b5b80604052505050565b6000612b846127b1565b9050612b908282612b49565b919050565b600067ffffffffffffffff821115612bb057612baf612b1a565b5b612bb9826128cf565b9050602081019050919050565b82818337600083830152505050565b6000612be8612be384612b95565b612b7a565b905082815260208101848484011115612c0457612c03612b15565b5b612c0f848285612bc6565b509392505050565b600082601f830112612c2c57612c2b612b10565b5b8135612c3c848260208601612bd5565b91505092915050565b600060208284031215612c5b57612c5a6127bb565b5b600082013567ffffffffffffffff811115612c7957612c786127c0565b5b612c8584828501612c17565b91505092915050565b600080fd5b600080fd5b60008083601f840112612cae57612cad612b10565b5b8235905067ffffffffffffffff811115612ccb57612cca612c8e565b5b602083019150836020820283011115612ce757612ce6612c93565b5b9250929050565b60008060208385031215612d0557612d046127bb565b5b600083013567ffffffffffffffff811115612d2357612d226127c0565b5b612d2f85828601612c98565b92509250509250929050565b612d448161284a565b8114612d4f57600080fd5b50565b600081359050612d6181612d3b565b92915050565b60008060408385031215612d7e57612d7d6127bb565b5b6000612d8c85828601612a11565b9250506020612d9d85828601612d52565b9150509250929050565b600067ffffffffffffffff821115612dc257612dc1612b1a565b5b612dcb826128cf565b9050602081019050919050565b6000612deb612de684612da7565b612b7a565b905082815260208101848484011115612e0757612e06612b15565b5b612e12848285612bc6565b509392505050565b600082601f830112612e2f57612e2e612b10565b5b8135612e3f848260208601612dd8565b91505092915050565b60008060008060808587031215612e6257612e616127bb565b5b6000612e7087828801612a11565b9450506020612e8187828801612a11565b9350506040612e928782880161295c565b925050606085013567ffffffffffffffff811115612eb357612eb26127c0565b5b612ebf87828801612e1a565b91505092959194509250565b60008060408385031215612ee257612ee16127bb565b5b6000612ef085828601612a11565b9250506020612f0185828601612a11565b9150509250929050565b7f4e487b7100000000000000000000000000000000000000000000000000000000600052602260045260246000fd5b60006002820490506001821680612f5257607f821691505b60208210811415612f6657612f65612f0b565b5b50919050565b7f4552433732313a20617070726f76656420717565727920666f72206e6f6e657860008201527f697374656e7420746f6b656e0000000000000000000000000000000000000000602082015250565b6000612fc8602c8361288b565b9150612fd382612f6c565b604082019050919050565b60006020820190508181036000830152612ff781612fbb565b9050919050565b7f4552433732313a20617070726f76616c20746f2063757272656e74206f776e6560008201527f7200000000000000000000000000000000000000000000000000000000000000602082015250565b600061305a60218361288b565b915061306582612ffe565b604082019050919050565b600060208201905081810360008301526130898161304d565b9050919050565b7f4552433732313a20617070726f76652063616c6c6572206973206e6f74206f7760008201527f6e6572206e6f7220617070726f76656420666f7220616c6c0000000000000000602082015250565b60006130ec60388361288b565b91506130f782613090565b604082019050919050565b6000602082019050818103600083015261311b816130df565b9050919050565b7f4552433732313a207472616e736665722063616c6c6572206973206e6f74206f60008201527f776e6572206e6f7220617070726f766564000000000000000000000000000000602082015250565b600061317e60318361288b565b915061318982613122565b604082019050919050565b600060208201905081810360008301526131ad81613171565b9050919050565b7f6f6e6c79206f776e65722063616e20706572666f726d2074686973206163746960008201527f6f6e000000000000000000000000000000000000000000000000000000000000602082015250565b600061321060228361288b565b915061321b826131b4565b604082019050919050565b6000602082019050818103600083015261323f81613203565b9050919050565b600081905092915050565b50565b6000613261600083613246565b915061326c82613251565b600082019050919050565b600061328282613254565b9150819050919050565b7f4552433732313a206f776e657220717565727920666f72206e6f6e657869737460008201527f656e7420746f6b656e0000000000000000000000000000000000000000000000602082015250565b60006132e860298361288b565b91506132f38261328c565b604082019050919050565b60006020820190508181036000830152613317816132db565b9050919050565b7f4552433732313a2062616c616e636520717565727920666f7220746865207a6560008201527f726f206164647265737300000000000000000000000000000000000000000000602082015250565b600061337a602a8361288b565b91506133858261331e565b604082019050919050565b600060208201905081810360008301526133a98161336d565b9050919050565b7f4e487b7100000000000000000000000000000000000000000000000000000000600052603260045260246000fd5b7f4e487b7100000000000000000000000000000000000000000000000000000000600052601160045260246000fd5b60006134198261293b565b91507fffffffffffffffffffffffffffffffffffffffffffffffffffffffffffffffff82141561344c5761344b6133df565b5b600182019050919050565b7f4e6f206d6f7265206e66747320617661696c61626c6520746f206d696e740000600082015250565b600061348d601e8361288b565b915061349882613457565b602082019050919050565b600060208201905081810360008301526134bc81613480565b9050919050565b7f63616e206f6e6c79206d696e742031303030206d617820666f7220676976656160008201527f7761797300000000000000000000000000000000000000000000000000000000602082015250565b600061351f60248361288b565b915061352a826134c3565b604082019050919050565b6000602082019050818103600083015261354e81613512565b9050919050565b7f4552433732314d657461646174613a2055524920717565727920666f72206e6f60008201527f6e6578697374656e7420746f6b656e0000000000000000000000000000000000602082015250565b60006135b1602f8361288b565b91506135bc82613555565b604082019050919050565b600060208201905081810360008301526135e0816135a4565b9050919050565b600081905092915050565b60006135fd82612880565b61360781856135e7565b935061361781856020860161289c565b80840191505092915050565b60008190508160005260206000209050919050565b6000815461364581612f3a565b61364f81866135e7565b9450600182166000811461366a576001811461367b576136ae565b60ff198316865281860193506136ae565b61368485613623565b60005b838110156136a657815481890152600182019150602081019050613687565b838801955050505b50505092915050565b60006136c382866135f2565b91506136cf82856135f2565b91506136db8284613638565b9150819050949350505050565b7f4552433732313a206f70657261746f7220717565727920666f72206e6f6e657860008201527f697374656e7420746f6b656e0000000000000000000000000000000000000000602082015250565b6000613744602c8361288b565b915061374f826136e8565b604082019050919050565b6000602082019050818103600083015261377381613737565b9050919050565b7f4552433732313a207472616e73666572206f6620746f6b656e2074686174206960008201527f73206e6f74206f776e0000000000000000000000000000000000000000000000602082015250565b60006137d660298361288b565b91506137e18261377a565b604082019050919050565b60006020820190508181036000830152613805816137c9565b9050919050565b7f4552433732313a207472616e7366657220746f20746865207a65726f2061646460008201527f7265737300000000000000000000000000000000000000000000000000000000602082015250565b600061386860248361288b565b91506138738261380c565b604082019050919050565b600060208201905081810360008301526138978161385b565b9050919050565b60006138a98261293b565b91506138b48361293b565b9250828210156138c7576138c66133df565b5b828203905092915050565b60006138dd8261293b565b91506138e88361293b565b9250827fffffffffffffffffffffffffffffffffffffffffffffffffffffffffffffffff0382111561391d5761391c6133df565b5b828201905092915050565b7f4d696e74206973206e6f74206f6e000000000000000000000000000000000000600082015250565b600061395e600e8361288b565b915061396982613928565b602082019050919050565b6000602082019050818103600083015261398d81613951565b9050919050565b7f757365722061646472657373206973206e6f74206f6e2077686974656c697374600082015250565b60006139ca60208361288b565b91506139d582613994565b602082019050919050565b600060208201905081810360008301526139f9816139bd565b9050919050565b7f4163636f756e7420416464726573732072656163686564206c696d6974206f6e60008201527f20546f6b656e7300000000000000000000000000000000000000000000000000602082015250565b6000613a5c60278361288b565b9150613a6782613a00565b604082019050919050565b60006020820190508181036000830152613a8b81613a4f565b9050919050565b600081519050613aa181612945565b92915050565b600060208284031215613abd57613abc6127bb565b5b6000613acb84828501613a92565b91505092915050565b7f6d617820616d6f756e7420796f752063616e20686176652069732032206e667460008201527f7300000000000000000000000000000000000000000000000000000000000000602082015250565b6000613b3060218361288b565b9150613b3b82613ad4565b604082019050919050565b60006020820190508181036000830152613b5f81613b23565b9050919050565b7f4552433732313a206d696e7420746f20746865207a65726f2061646472657373600082015250565b6000613b9c60208361288b565b9150613ba782613b66565b602082019050919050565b60006020820190508181036000830152613bcb81613b8f565b9050919050565b7f4552433732313a20746f6b656e20616c7265616479206d696e74656400000000600082015250565b6000613c08601c8361288b565b9150613c1382613bd2565b602082019050919050565b60006020820190508181036000830152613c3781613bfb565b9050919050565b7f4552433732313a20617070726f766520746f2063616c6c657200000000000000600082015250565b6000613c7460198361288b565b9150613c7f82613c3e565b602082019050919050565b60006020820190508181036000830152613ca381613c67565b9050919050565b7f4552433732313a207472616e7366657220746f206e6f6e20455243373231526560008201527f63656976657220696d706c656d656e7465720000000000000000000000000000602082015250565b6000613d0660328361288b565b9150613d1182613caa565b604082019050919050565b60006020820190508181036000830152613d3581613cf9565b9050919050565b7f4e487b7100000000000000000000000000000000000000000000000000000000600052601260045260246000fd5b6000613d768261293b565b9150613d818361293b565b925082613d9157613d90613d3c565b5b828204905092915050565b6000613da78261293b565b9150613db28361293b565b925082613dc257613dc1613d3c565b5b828206905092915050565b600081519050919050565b600082825260208201905092915050565b6000613df482613dcd565b613dfe8185613dd8565b9350613e0e81856020860161289c565b613e17816128cf565b840191505092915050565b6000608082019050613e3760008301876129d0565b613e4460208301866129d0565b613e516040830185612a66565b8181036060830152613e638184613de9565b905095945050505050565b600081519050613e7d816127f1565b92915050565b600060208284031215613e9957613e986127bb565b5b6000613ea784828501613e6e565b9150509291505056fea2646970667358221220d56773132b1f5284b5e151fb294416bf299edbdfb1d4d6e1ea9e31e504f8492f64736f6c63430008090033",
  "linkReferences": {},
  "deployedLinkReferences": {}
}