{
  "_format": "hh-sol-artifact-1",
  "contractName": "F1_NFT",
  "sourceName": "contracts/F1_NFT.sol",
  "abi": [
    {
      "inputs": [
        {
          "internalType": "string",
          "name": "_newBaseURI",
          "type": "string"
        },
        {
          "internalType": "uint256",
          "name": "_max_mint_amount",
          "type": "uint256"
        }
      ],
      "stateMutability": "nonpayable",
      "type": "constructor"
    },
    {
      "anonymous": false,
      "inputs": [
        {
          "indexed": true,
          "internalType": "address",
          "name": "owner",
          "type": "address"
        },
        {
          "indexed": true,
          "internalType": "address",
          "name": "approved",
          "type": "address"
        },
        {
          "indexed": true,
          "internalType": "uint256",
          "name": "tokenId",
          "type": "uint256"
        }
      ],
      "name": "Approval",
      "type": "event"
    },
    {
      "anonymous": false,
      "inputs": [
        {
          "indexed": true,
          "internalType": "address",
          "name": "owner",
          "type": "address"
        },
        {
          "indexed": true,
          "internalType": "address",
          "name": "operator",
          "type": "address"
        },
        {
          "indexed": false,
          "internalType": "bool",
          "name": "approved",
          "type": "bool"
        }
      ],
      "name": "ApprovalForAll",
      "type": "event"
    },
    {
      "anonymous": false,
      "inputs": [
        {
          "indexed": true,
          "internalType": "address",
          "name": "from",
          "type": "address"
        },
        {
          "indexed": true,
          "internalType": "address",
          "name": "to",
          "type": "address"
        },
        {
          "indexed": true,
          "internalType": "uint256",
          "name": "tokenId",
          "type": "uint256"
        }
      ],
      "name": "Transfer",
      "type": "event"
    },
    {
      "inputs": [],
      "name": "active",
      "outputs": [
        {
          "internalType": "bool",
          "name": "",
          "type": "bool"
        }
      ],
      "stateMutability": "view",
      "type": "function"
    },
    {
      "inputs": [
        {
          "internalType": "address[]",
          "name": "addresses",
          "type": "address[]"
        }
      ],
      "name": "addToWhiteList",
      "outputs": [],
      "stateMutability": "nonpayable",
      "type": "function"
    },
    {
      "inputs": [
        {
          "internalType": "address",
          "name": "",
          "type": "address"
        }
      ],
      "name": "addressTokenCount",
      "outputs": [
        {
          "internalType": "uint256",
          "name": "",
          "type": "uint256"
        }
      ],
      "stateMutability": "view",
      "type": "function"
    },
    {
      "inputs": [
        {
          "internalType": "address",
          "name": "to",
          "type": "address"
        },
        {
          "internalType": "uint256",
          "name": "tokenId",
          "type": "uint256"
        }
      ],
      "name": "approve",
      "outputs": [],
      "stateMutability": "nonpayable",
      "type": "function"
    },
    {
      "inputs": [
        {
          "internalType": "address",
          "name": "owner",
          "type": "address"
        }
      ],
      "name": "balanceOf",
      "outputs": [
        {
          "internalType": "uint256",
          "name": "",
          "type": "uint256"
        }
      ],
      "stateMutability": "view",
      "type": "function"
    },
    {
      "inputs": [],
      "name": "baseExtension",
      "outputs": [
        {
          "internalType": "string",
          "name": "",
          "type": "string"
        }
      ],
      "stateMutability": "view",
      "type": "function"
    },
    {
      "inputs": [],
      "name": "baseURI",
      "outputs": [
        {
          "internalType": "string",
          "name": "",
          "type": "string"
        }
      ],
      "stateMutability": "view",
      "type": "function"
    },
    {
      "inputs": [
        {
          "internalType": "uint256",
          "name": "amount",
          "type": "uint256"
        }
      ],
      "name": "changeMintAmount",
      "outputs": [],
      "stateMutability": "nonpayable",
      "type": "function"
    },
    {
      "inputs": [
        {
          "internalType": "uint256",
          "name": "tokenId",
          "type": "uint256"
        }
      ],
      "name": "getApproved",
      "outputs": [
        {
          "internalType": "address",
          "name": "",
          "type": "address"
        }
      ],
      "stateMutability": "view",
      "type": "function"
    },
    {
      "inputs": [
        {
          "internalType": "address",
          "name": "owner",
          "type": "address"
        },
        {
          "internalType": "address",
          "name": "operator",
          "type": "address"
        }
      ],
      "name": "isApprovedForAll",
      "outputs": [
        {
          "internalType": "bool",
          "name": "",
          "type": "bool"
        }
      ],
      "stateMutability": "view",
      "type": "function"
    },
    {
      "inputs": [],
      "name": "max_mint_amount",
      "outputs": [
        {
          "internalType": "uint256",
          "name": "",
          "type": "uint256"
        }
      ],
      "stateMutability": "view",
      "type": "function"
    },
    {
      "inputs": [
        {
          "internalType": "uint256",
          "name": "nftAmountToMint",
          "type": "uint256"
        }
      ],
      "name": "mint",
      "outputs": [],
      "stateMutability": "payable",
      "type": "function"
    },
    {
      "inputs": [],
      "name": "mintForGiveAway",
      "outputs": [],
      "stateMutability": "nonpayable",
      "type": "function"
    },
    {
      "inputs": [],
      "name": "name",
      "outputs": [
        {
          "internalType": "string",
          "name": "",
          "type": "string"
        }
      ],
      "stateMutability": "view",
      "type": "function"
    },
    {
      "inputs": [],
      "name": "owner",
      "outputs": [
        {
          "internalType": "address",
          "name": "",
          "type": "address"
        }
      ],
      "stateMutability": "view",
      "type": "function"
    },
    {
      "inputs": [
        {
          "internalType": "uint256",
          "name": "tokenId",
          "type": "uint256"
        }
      ],
      "name": "ownerOf",
      "outputs": [
        {
          "internalType": "address",
          "name": "",
          "type": "address"
        }
      ],
      "stateMutability": "view",
      "type": "function"
    },
    {
      "inputs": [
        {
          "internalType": "address",
          "name": "from",
          "type": "address"
        },
        {
          "internalType": "address",
          "name": "to",
          "type": "address"
        },
        {
          "internalType": "uint256",
          "name": "tokenId",
          "type": "uint256"
        }
      ],
      "name": "safeTransferFrom",
      "outputs": [],
      "stateMutability": "nonpayable",
      "type": "function"
    },
    {
      "inputs": [
        {
          "internalType": "address",
          "name": "from",
          "type": "address"
        },
        {
          "internalType": "address",
          "name": "to",
          "type": "address"
        },
        {
          "internalType": "uint256",
          "name": "tokenId",
          "type": "uint256"
        },
        {
          "internalType": "bytes",
          "name": "_data",
          "type": "bytes"
        }
      ],
      "name": "safeTransferFrom",
      "outputs": [],
      "stateMutability": "nonpayable",
      "type": "function"
    },
    {
      "inputs": [
        {
          "internalType": "address",
          "name": "operator",
          "type": "address"
        },
        {
          "internalType": "bool",
          "name": "approved",
          "type": "bool"
        }
      ],
      "name": "setApprovalForAll",
      "outputs": [],
      "stateMutability": "nonpayable",
      "type": "function"
    },
    {
      "inputs": [
        {
          "internalType": "string",
          "name": "_newBaseURI",
          "type": "string"
        }
      ],
      "name": "setBaseURI",
      "outputs": [],
      "stateMutability": "nonpayable",
      "type": "function"
    },
    {
      "inputs": [
        {
          "internalType": "bytes4",
          "name": "interfaceId",
          "type": "bytes4"
        }
      ],
      "name": "supportsInterface",
      "outputs": [
        {
          "internalType": "bool",
          "name": "",
          "type": "bool"
        }
      ],
      "stateMutability": "view",
      "type": "function"
    },
    {
      "inputs": [],
      "name": "symbol",
      "outputs": [
        {
          "internalType": "string",
          "name": "",
          "type": "string"
        }
      ],
      "stateMutability": "view",
      "type": "function"
    },
    {
      "inputs": [],
      "name": "toggleOff",
      "outputs": [],
      "stateMutability": "nonpayable",
      "type": "function"
    },
    {
      "inputs": [],
      "name": "toggleOn",
      "outputs": [],
      "stateMutability": "nonpayable",
      "type": "function"
    },
    {
      "inputs": [],
      "name": "tokenID",
      "outputs": [
        {
          "internalType": "uint256",
          "name": "",
          "type": "uint256"
        }
      ],
      "stateMutability": "view",
      "type": "function"
    },
    {
      "inputs": [
        {
          "internalType": "uint256",
          "name": "tokenId",
          "type": "uint256"
        }
      ],
      "name": "tokenURI",
      "outputs": [
        {
          "internalType": "string",
          "name": "",
          "type": "string"
        }
      ],
      "stateMutability": "view",
      "type": "function"
    },
    {
      "inputs": [
        {
          "internalType": "address",
          "name": "from",
          "type": "address"
        },
        {
          "internalType": "address",
          "name": "to",
          "type": "address"
        },
        {
          "internalType": "uint256",
          "name": "tokenId",
          "type": "uint256"
        }
      ],
      "name": "transferFrom",
      "outputs": [],
      "stateMutability": "nonpayable",
      "type": "function"
    },
    {
      "inputs": [
        {
          "internalType": "uint256",
          "name": "",
          "type": "uint256"
        }
      ],
      "name": "uriMap",
      "outputs": [
        {
          "internalType": "string",
          "name": "",
          "type": "string"
        }
      ],
      "stateMutability": "view",
      "type": "function"
    },
    {
      "inputs": [
        {
          "internalType": "address",
          "name": "",
          "type": "address"
        }
      ],
      "name": "whiteListAddresses",
      "outputs": [
        {
          "internalType": "bool",
          "name": "",
          "type": "bool"
        }
      ],
      "stateMutability": "view",
      "type": "function"
    }
  ],
  "bytecode": "0x60806040526040518060400160405280600581526020017f2e6a736f6e00000000000000000000000000000000000000000000000000000081525060089080519060200190620000519291906200023a565b506001600d553480156200006457600080fd5b50604051620041873803806200418783398181016040528101906200008a9190620004c2565b6040518060400160405280600681526020017f66315f44414f00000000000000000000000000000000000000000000000000008152506040518060400160405280600281526020017f663100000000000000000000000000000000000000000000000000000000000081525081600090805190602001906200010e9291906200023a565b508060019080519060200190620001279291906200023a565b50505033600660006101000a81548173ffffffffffffffffffffffffffffffffffffffff021916908373ffffffffffffffffffffffffffffffffffffffff1602179055508060098190555062000183826200018b60201b60201c565b505062000636565b600660009054906101000a900473ffffffffffffffffffffffffffffffffffffffff1673ffffffffffffffffffffffffffffffffffffffff163373ffffffffffffffffffffffffffffffffffffffff16146200021e576040517f08c379a00000000000000000000000000000000000000000000000000000000081526004016200021590620005af565b60405180910390fd5b8060079080519060200190620002369291906200023a565b5050565b828054620002489062000600565b90600052602060002090601f0160209004810192826200026c5760008555620002b8565b82601f106200028757805160ff1916838001178555620002b8565b82800160010185558215620002b8579182015b82811115620002b75782518255916020019190600101906200029a565b5b509050620002c79190620002cb565b5090565b5b80821115620002e6576000816000905550600101620002cc565b5090565b6000604051905090565b600080fd5b600080fd5b600080fd5b600080fd5b6000601f19601f8301169050919050565b7f4e487b7100000000000000000000000000000000000000000000000000000000600052604160045260246000fd5b620003538262000308565b810181811067ffffffffffffffff8211171562000375576200037462000319565b5b80604052505050565b60006200038a620002ea565b905062000398828262000348565b919050565b600067ffffffffffffffff821115620003bb57620003ba62000319565b5b620003c68262000308565b9050602081019050919050565b60005b83811015620003f3578082015181840152602081019050620003d6565b8381111562000403576000848401525b50505050565b6000620004206200041a846200039d565b6200037e565b9050828152602081018484840111156200043f576200043e62000303565b5b6200044c848285620003d3565b509392505050565b600082601f8301126200046c576200046b620002fe565b5b81516200047e84826020860162000409565b91505092915050565b6000819050919050565b6200049c8162000487565b8114620004a857600080fd5b50565b600081519050620004bc8162000491565b92915050565b60008060408385031215620004dc57620004db620002f4565b5b600083015167ffffffffffffffff811115620004fd57620004fc620002f9565b5b6200050b8582860162000454565b92505060206200051e85828601620004ab565b9150509250929050565b600082825260208201905092915050565b7f6f6e6c79206f776e65722063616e20706572666f726d2074686973206163746960008201527f6f6e000000000000000000000000000000000000000000000000000000000000602082015250565b60006200059760228362000528565b9150620005a48262000539565b604082019050919050565b60006020820190508181036000830152620005ca8162000588565b9050919050565b7f4e487b7100000000000000000000000000000000000000000000000000000000600052602260045260246000fd5b600060028204905060018216806200061957607f821691505b6020821081141562000630576200062f620005d1565b5b50919050565b613b4180620006466000396000f3fe6080604052600436106101c25760003560e01c8063740d73f3116100f7578063a22cb46511610095578063c87b56dd11610064578063c87b56dd1461061f578063dd2eb9f31461065c578063e985e9c514610699578063f4c23667146106d6576101c2565b8063a22cb46514610577578063a5c42ef1146105a0578063b88d4fde146105cb578063c6682862146105f4576101c2565b80638da5cb5b116100d15780638da5cb5b146104c8578063920674dc146104f357806395d89b4114610530578063a0712d681461055b576101c2565b8063740d73f31461044b5780637d5092c91461047457806387eb2bea1461049d576101c2565b806342842e0e1161016457806355f804b31161013e57806355f804b31461037d5780636352211e146103a65780636c0360eb146103e357806370a082311461040e576101c2565b806342842e0e14610300578063474dd97d146103295780635464081314610366576101c2565b8063081812fc116101a0578063081812fc1461025a578063095ea7b31461029757806323b872dd146102c0578063267bcabd146102e9576101c2565b806301ffc9a7146101c757806302fb0c5e1461020457806306fdde031461022f575b600080fd5b3480156101d357600080fd5b506101ee60048036038101906101e99190612550565b6106ed565b6040516101fb9190612598565b60405180910390f35b34801561021057600080fd5b506102196107cf565b6040516102269190612598565b60405180910390f35b34801561023b57600080fd5b506102446107e2565b604051610251919061264c565b60405180910390f35b34801561026657600080fd5b50610281600480360381019061027c91906126a4565b610874565b60405161028e9190612712565b60405180910390f35b3480156102a357600080fd5b506102be60048036038101906102b99190612759565b6108f9565b005b3480156102cc57600080fd5b506102e760048036038101906102e29190612799565b610a11565b005b3480156102f557600080fd5b506102fe610a71565b005b34801561030c57600080fd5b5061032760048036038101906103229190612799565b610b1e565b005b34801561033557600080fd5b50610350600480360381019061034b91906127ec565b610b3e565b60405161035d9190612828565b60405180910390f35b34801561037257600080fd5b5061037b610b56565b005b34801561038957600080fd5b506103a4600480360381019061039f9190612978565b610be8565b005b3480156103b257600080fd5b506103cd60048036038101906103c891906126a4565b610c92565b6040516103da9190612712565b60405180910390f35b3480156103ef57600080fd5b506103f8610d44565b604051610405919061264c565b60405180910390f35b34801561041a57600080fd5b50610435600480360381019061043091906127ec565b610dd2565b6040516104429190612828565b60405180910390f35b34801561045757600080fd5b50610472600480360381019061046d9190612a21565b610e8a565b005b34801561048057600080fd5b5061049b600480360381019061049691906126a4565b610fbf565b005b3480156104a957600080fd5b506104b2611059565b6040516104bf9190612828565b60405180910390f35b3480156104d457600080fd5b506104dd61105f565b6040516104ea9190612712565b60405180910390f35b3480156104ff57600080fd5b5061051a600480360381019061051591906127ec565b611085565b6040516105279190612598565b60405180910390f35b34801561053c57600080fd5b506105456110a5565b604051610552919061264c565b60405180910390f35b610575600480360381019061057091906126a4565b611137565b005b34801561058357600080fd5b5061059e60048036038101906105999190612a9a565b611257565b005b3480156105ac57600080fd5b506105b561126d565b6040516105c29190612828565b60405180910390f35b3480156105d757600080fd5b506105f260048036038101906105ed9190612b7b565b611273565b005b34801561060057600080fd5b506106096112d5565b604051610616919061264c565b60405180910390f35b34801561062b57600080fd5b50610646600480360381019061064191906126a4565b611363565b604051610653919061264c565b60405180910390f35b34801561066857600080fd5b50610683600480360381019061067e91906126a4565b61140d565b604051610690919061264c565b60405180910390f35b3480156106a557600080fd5b506106c060048036038101906106bb9190612bfe565b6114ad565b6040516106cd9190612598565b60405180910390f35b3480156106e257600080fd5b506106eb611541565b005b60007f80ac58cd000000000000000000000000000000000000000000000000000000007bffffffffffffffffffffffffffffffffffffffffffffffffffffffff1916827bffffffffffffffffffffffffffffffffffffffffffffffffffffffff191614806107b857507f5b5e139f000000000000000000000000000000000000000000000000000000007bffffffffffffffffffffffffffffffffffffffffffffffffffffffff1916827bffffffffffffffffffffffffffffffffffffffffffffffffffffffff1916145b806107c857506107c7826115ee565b5b9050919050565b600e60009054906101000a900460ff1681565b6060600080546107f190612c6d565b80601f016020809104026020016040519081016040528092919081815260200182805461081d90612c6d565b801561086a5780601f1061083f5761010080835404028352916020019161086a565b820191906000526020600020905b81548152906001019060200180831161084d57829003601f168201915b5050505050905090565b600061087f82611658565b6108be576040517f08c379a00000000000000000000000000000000000000000000000000000000081526004016108b590612d11565b60405180910390fd5b6004600083815260200190815260200160002060009054906101000a900473ffffffffffffffffffffffffffffffffffffffff169050919050565b600061090482610c92565b90508073ffffffffffffffffffffffffffffffffffffffff168373ffffffffffffffffffffffffffffffffffffffff161415610975576040517f08c379a000000000000000000000000000000000000000000000000000000000815260040161096c90612da3565b60405180910390fd5b8073ffffffffffffffffffffffffffffffffffffffff166109946116c4565b73ffffffffffffffffffffffffffffffffffffffff1614806109c357506109c2816109bd6116c4565b6114ad565b5b610a02576040517f08c379a00000000000000000000000000000000000000000000000000000000081526004016109f990612e35565b60405180910390fd5b610a0c83836116cc565b505050565b610a22610a1c6116c4565b82611785565b610a61576040517f08c379a0000000000000000000000000000000000000000000000000000000008152600401610a5890612ec7565b60405180910390fd5b610a6c838383611863565b505050565b600660009054906101000a900473ffffffffffffffffffffffffffffffffffffffff1673ffffffffffffffffffffffffffffffffffffffff163373ffffffffffffffffffffffffffffffffffffffff1614610b01576040517f08c379a0000000000000000000000000000000000000000000000000000000008152600401610af890612f59565b60405180910390fd5b6001600e60006101000a81548160ff021916908315150217905550565b610b3983838360405180602001604052806000815250611273565b505050565b600b6020528060005260406000206000915090505481565b600660009054906101000a900473ffffffffffffffffffffffffffffffffffffffff1673ffffffffffffffffffffffffffffffffffffffff163373ffffffffffffffffffffffffffffffffffffffff1614610be6576040517f08c379a0000000000000000000000000000000000000000000000000000000008152600401610bdd90612f59565b60405180910390fd5b565b600660009054906101000a900473ffffffffffffffffffffffffffffffffffffffff1673ffffffffffffffffffffffffffffffffffffffff163373ffffffffffffffffffffffffffffffffffffffff1614610c78576040517f08c379a0000000000000000000000000000000000000000000000000000000008152600401610c6f90612f59565b60405180910390fd5b8060079080519060200190610c8e929190612441565b5050565b6000806002600084815260200190815260200160002060009054906101000a900473ffffffffffffffffffffffffffffffffffffffff169050600073ffffffffffffffffffffffffffffffffffffffff168173ffffffffffffffffffffffffffffffffffffffff161415610d3b576040517f08c379a0000000000000000000000000000000000000000000000000000000008152600401610d3290612feb565b60405180910390fd5b80915050919050565b60078054610d5190612c6d565b80601f0160208091040260200160405190810160405280929190818152602001828054610d7d90612c6d565b8015610dca5780601f10610d9f57610100808354040283529160200191610dca565b820191906000526020600020905b815481529060010190602001808311610dad57829003601f168201915b505050505081565b60008073ffffffffffffffffffffffffffffffffffffffff168273ffffffffffffffffffffffffffffffffffffffff161415610e43576040517f08c379a0000000000000000000000000000000000000000000000000000000008152600401610e3a9061307d565b60405180910390fd5b600360008373ffffffffffffffffffffffffffffffffffffffff1673ffffffffffffffffffffffffffffffffffffffff168152602001908152602001600020549050919050565b600660009054906101000a900473ffffffffffffffffffffffffffffffffffffffff1673ffffffffffffffffffffffffffffffffffffffff163373ffffffffffffffffffffffffffffffffffffffff1614610f1a576040517f08c379a0000000000000000000000000000000000000000000000000000000008152600401610f1190612f59565b60405180910390fd5b60005b82829050811015610fba576001600a6000858585818110610f4157610f4061309d565b5b9050602002016020810190610f5691906127ec565b73ffffffffffffffffffffffffffffffffffffffff1673ffffffffffffffffffffffffffffffffffffffff16815260200190815260200160002060006101000a81548160ff0219169083151502179055508080610fb2906130fb565b915050610f1d565b505050565b600660009054906101000a900473ffffffffffffffffffffffffffffffffffffffff1673ffffffffffffffffffffffffffffffffffffffff163373ffffffffffffffffffffffffffffffffffffffff161461104f576040517f08c379a000000000000000000000000000000000000000000000000000000000815260040161104690612f59565b60405180910390fd5b8060098190555050565b60095481565b600660009054906101000a900473ffffffffffffffffffffffffffffffffffffffff1681565b600a6020528060005260406000206000915054906101000a900460ff1681565b6060600180546110b490612c6d565b80601f01602080910402602001604051908101604052809291908181526020018280546110e090612c6d565b801561112d5780601f106111025761010080835404028352916020019161112d565b820191906000526020600020905b81548152906001019060200180831161111057829003601f168201915b5050505050905090565b612710600d54111561117e576040517f08c379a000000000000000000000000000000000000000000000000000000000815260040161117590613190565b60405180910390fd5b6111888133611abf565b60005b818110156112535761119f33600d54611d08565b6111aa600d54611363565b600c6000600d54815260200190815260200160002090805190602001906111d2929190612441565b50600b60003373ffffffffffffffffffffffffffffffffffffffff1673ffffffffffffffffffffffffffffffffffffffff1681526020019081526020016000206000815480929190611223906130fb565b9190505550600d600081548092919061123b906130fb565b9190505550808061124b906130fb565b91505061118b565b5050565b6112696112626116c4565b8383611ed6565b5050565b600d5481565b61128461127e6116c4565b83611785565b6112c3576040517f08c379a00000000000000000000000000000000000000000000000000000000081526004016112ba90612ec7565b60405180910390fd5b6112cf84848484612043565b50505050565b600880546112e290612c6d565b80601f016020809104026020016040519081016040528092919081815260200182805461130e90612c6d565b801561135b5780601f106113305761010080835404028352916020019161135b565b820191906000526020600020905b81548152906001019060200180831161133e57829003601f168201915b505050505081565b606061136e82611658565b6113ad576040517f08c379a00000000000000000000000000000000000000000000000000000000081526004016113a490613222565b60405180910390fd5b60006113b761209f565b905060008151116113d75760405180602001604052806000815250611405565b806113e184612131565b60086040516020016113f593929190613312565b6040516020818303038152906040525b915050919050565b600c602052806000526040600020600091509050805461142c90612c6d565b80601f016020809104026020016040519081016040528092919081815260200182805461145890612c6d565b80156114a55780601f1061147a576101008083540402835291602001916114a5565b820191906000526020600020905b81548152906001019060200180831161148857829003601f168201915b505050505081565b6000600560008473ffffffffffffffffffffffffffffffffffffffff1673ffffffffffffffffffffffffffffffffffffffff16815260200190815260200160002060008373ffffffffffffffffffffffffffffffffffffffff1673ffffffffffffffffffffffffffffffffffffffff16815260200190815260200160002060009054906101000a900460ff16905092915050565b600660009054906101000a900473ffffffffffffffffffffffffffffffffffffffff1673ffffffffffffffffffffffffffffffffffffffff163373ffffffffffffffffffffffffffffffffffffffff16146115d1576040517f08c379a00000000000000000000000000000000000000000000000000000000081526004016115c890612f59565b60405180910390fd5b6000600e60006101000a81548160ff021916908315150217905550565b60007f01ffc9a7000000000000000000000000000000000000000000000000000000007bffffffffffffffffffffffffffffffffffffffffffffffffffffffff1916827bffffffffffffffffffffffffffffffffffffffffffffffffffffffff1916149050919050565b60008073ffffffffffffffffffffffffffffffffffffffff166002600084815260200190815260200160002060009054906101000a900473ffffffffffffffffffffffffffffffffffffffff1673ffffffffffffffffffffffffffffffffffffffff1614159050919050565b600033905090565b816004600083815260200190815260200160002060006101000a81548173ffffffffffffffffffffffffffffffffffffffff021916908373ffffffffffffffffffffffffffffffffffffffff160217905550808273ffffffffffffffffffffffffffffffffffffffff1661173f83610c92565b73ffffffffffffffffffffffffffffffffffffffff167f8c5be1e5ebec7d5bd14f71427d1e84f3dd0314c0f7b2291e5b200ac8c7c3b92560405160405180910390a45050565b600061179082611658565b6117cf576040517f08c379a00000000000000000000000000000000000000000000000000000000081526004016117c6906133b5565b60405180910390fd5b60006117da83610c92565b90508073ffffffffffffffffffffffffffffffffffffffff168473ffffffffffffffffffffffffffffffffffffffff16148061184957508373ffffffffffffffffffffffffffffffffffffffff1661183184610874565b73ffffffffffffffffffffffffffffffffffffffff16145b8061185a575061185981856114ad565b5b91505092915050565b8273ffffffffffffffffffffffffffffffffffffffff1661188382610c92565b73ffffffffffffffffffffffffffffffffffffffff16146118d9576040517f08c379a00000000000000000000000000000000000000000000000000000000081526004016118d090613447565b60405180910390fd5b600073ffffffffffffffffffffffffffffffffffffffff168273ffffffffffffffffffffffffffffffffffffffff161415611949576040517f08c379a0000000000000000000000000000000000000000000000000000000008152600401611940906134d9565b60405180910390fd5b611954838383612292565b61195f6000826116cc565b6001600360008573ffffffffffffffffffffffffffffffffffffffff1673ffffffffffffffffffffffffffffffffffffffff16815260200190815260200160002060008282546119af91906134f9565b925050819055506001600360008473ffffffffffffffffffffffffffffffffffffffff1673ffffffffffffffffffffffffffffffffffffffff1681526020019081526020016000206000828254611a06919061352d565b92505081905550816002600083815260200190815260200160002060006101000a81548173ffffffffffffffffffffffffffffffffffffffff021916908373ffffffffffffffffffffffffffffffffffffffff160217905550808273ffffffffffffffffffffffffffffffffffffffff168473ffffffffffffffffffffffffffffffffffffffff167fddf252ad1be2c89b69c2b068fc378daa952ba7f163c4a11628f55a4df523b3ef60405160405180910390a4505050565b60011515600e60009054906101000a900460ff16151514611b15576040517f08c379a0000000000000000000000000000000000000000000000000000000008152600401611b0c906135cf565b60405180910390fd5b60011515600a60008373ffffffffffffffffffffffffffffffffffffffff1673ffffffffffffffffffffffffffffffffffffffff16815260200190815260200160002060009054906101000a900460ff16151514611ba8576040517f08c379a0000000000000000000000000000000000000000000000000000000008152600401611b9f9061363b565b60405180910390fd5b60095482600b60008473ffffffffffffffffffffffffffffffffffffffff1673ffffffffffffffffffffffffffffffffffffffff16815260200190815260200160002054611bf6919061352d565b1115611c37576040517f08c379a0000000000000000000000000000000000000000000000000000000008152600401611c2e906136cd565b60405180910390fd5b6009543073ffffffffffffffffffffffffffffffffffffffff166370a08231836040518263ffffffff1660e01b8152600401611c739190612712565b60206040518083038186803b158015611c8b57600080fd5b505afa158015611c9f573d6000803e3d6000fd5b505050506040513d601f19601f82011682018060405250810190611cc39190613702565b1115611d04576040517f08c379a0000000000000000000000000000000000000000000000000000000008152600401611cfb906137a1565b60405180910390fd5b5050565b600073ffffffffffffffffffffffffffffffffffffffff168273ffffffffffffffffffffffffffffffffffffffff161415611d78576040517f08c379a0000000000000000000000000000000000000000000000000000000008152600401611d6f9061380d565b60405180910390fd5b611d8181611658565b15611dc1576040517f08c379a0000000000000000000000000000000000000000000000000000000008152600401611db890613879565b60405180910390fd5b611dcd60008383612292565b6001600360008473ffffffffffffffffffffffffffffffffffffffff1673ffffffffffffffffffffffffffffffffffffffff1681526020019081526020016000206000828254611e1d919061352d565b92505081905550816002600083815260200190815260200160002060006101000a81548173ffffffffffffffffffffffffffffffffffffffff021916908373ffffffffffffffffffffffffffffffffffffffff160217905550808273ffffffffffffffffffffffffffffffffffffffff16600073ffffffffffffffffffffffffffffffffffffffff167fddf252ad1be2c89b69c2b068fc378daa952ba7f163c4a11628f55a4df523b3ef60405160405180910390a45050565b8173ffffffffffffffffffffffffffffffffffffffff168373ffffffffffffffffffffffffffffffffffffffff161415611f45576040517f08c379a0000000000000000000000000000000000000000000000000000000008152600401611f3c906138e5565b60405180910390fd5b80600560008573ffffffffffffffffffffffffffffffffffffffff1673ffffffffffffffffffffffffffffffffffffffff16815260200190815260200160002060008473ffffffffffffffffffffffffffffffffffffffff1673ffffffffffffffffffffffffffffffffffffffff16815260200190815260200160002060006101000a81548160ff0219169083151502179055508173ffffffffffffffffffffffffffffffffffffffff168373ffffffffffffffffffffffffffffffffffffffff167f17307eab39ab6107e8899845ad3d59bd9653f200f220920489ca2b5937696c31836040516120369190612598565b60405180910390a3505050565b61204e848484611863565b61205a84848484612297565b612099576040517f08c379a000000000000000000000000000000000000000000000000000000000815260040161209090613977565b60405180910390fd5b50505050565b6060600780546120ae90612c6d565b80601f01602080910402602001604051908101604052809291908181526020018280546120da90612c6d565b80156121275780601f106120fc57610100808354040283529160200191612127565b820191906000526020600020905b81548152906001019060200180831161210a57829003601f168201915b5050505050905090565b60606000821415612179576040518060400160405280600181526020017f3000000000000000000000000000000000000000000000000000000000000000815250905061228d565b600082905060005b600082146121ab578080612194906130fb565b915050600a826121a491906139c6565b9150612181565b60008167ffffffffffffffff8111156121c7576121c661284d565b5b6040519080825280601f01601f1916602001820160405280156121f95781602001600182028036833780820191505090505b5090505b600085146122865760018261221291906134f9565b9150600a8561222191906139f7565b603061222d919061352d565b60f81b8183815181106122435761224261309d565b5b60200101907effffffffffffffffffffffffffffffffffffffffffffffffffffffffffffff1916908160001a905350600a8561227f91906139c6565b94506121fd565b8093505050505b919050565b505050565b60006122b88473ffffffffffffffffffffffffffffffffffffffff1661242e565b15612421578373ffffffffffffffffffffffffffffffffffffffff1663150b7a026122e16116c4565b8786866040518563ffffffff1660e01b81526004016123039493929190613a7d565b602060405180830381600087803b15801561231d57600080fd5b505af192505050801561234e57506040513d601f19601f8201168201806040525081019061234b9190613ade565b60015b6123d1573d806000811461237e576040519150601f19603f3d011682016040523d82523d6000602084013e612383565b606091505b506000815114156123c9576040517f08c379a00000000000000000000000000000000000000000000000000000000081526004016123c090613977565b60405180910390fd5b805181602001fd5b63150b7a0260e01b7bffffffffffffffffffffffffffffffffffffffffffffffffffffffff1916817bffffffffffffffffffffffffffffffffffffffffffffffffffffffff191614915050612426565b600190505b949350505050565b600080823b905060008111915050919050565b82805461244d90612c6d565b90600052602060002090601f01602090048101928261246f57600085556124b6565b82601f1061248857805160ff19168380011785556124b6565b828001600101855582156124b6579182015b828111156124b557825182559160200191906001019061249a565b5b5090506124c391906124c7565b5090565b5b808211156124e05760008160009055506001016124c8565b5090565b6000604051905090565b600080fd5b600080fd5b60007fffffffff0000000000000000000000000000000000000000000000000000000082169050919050565b61252d816124f8565b811461253857600080fd5b50565b60008135905061254a81612524565b92915050565b600060208284031215612566576125656124ee565b5b60006125748482850161253b565b91505092915050565b60008115159050919050565b6125928161257d565b82525050565b60006020820190506125ad6000830184612589565b92915050565b600081519050919050565b600082825260208201905092915050565b60005b838110156125ed5780820151818401526020810190506125d2565b838111156125fc576000848401525b50505050565b6000601f19601f8301169050919050565b600061261e826125b3565b61262881856125be565b93506126388185602086016125cf565b61264181612602565b840191505092915050565b600060208201905081810360008301526126668184612613565b905092915050565b6000819050919050565b6126818161266e565b811461268c57600080fd5b50565b60008135905061269e81612678565b92915050565b6000602082840312156126ba576126b96124ee565b5b60006126c88482850161268f565b91505092915050565b600073ffffffffffffffffffffffffffffffffffffffff82169050919050565b60006126fc826126d1565b9050919050565b61270c816126f1565b82525050565b60006020820190506127276000830184612703565b92915050565b612736816126f1565b811461274157600080fd5b50565b6000813590506127538161272d565b92915050565b600080604083850312156127705761276f6124ee565b5b600061277e85828601612744565b925050602061278f8582860161268f565b9150509250929050565b6000806000606084860312156127b2576127b16124ee565b5b60006127c086828701612744565b93505060206127d186828701612744565b92505060406127e28682870161268f565b9150509250925092565b600060208284031215612802576128016124ee565b5b600061281084828501612744565b91505092915050565b6128228161266e565b82525050565b600060208201905061283d6000830184612819565b92915050565b600080fd5b600080fd5b7f4e487b7100000000000000000000000000000000000000000000000000000000600052604160045260246000fd5b61288582612602565b810181811067ffffffffffffffff821117156128a4576128a361284d565b5b80604052505050565b60006128b76124e4565b90506128c3828261287c565b919050565b600067ffffffffffffffff8211156128e3576128e261284d565b5b6128ec82612602565b9050602081019050919050565b82818337600083830152505050565b600061291b612916846128c8565b6128ad565b90508281526020810184848401111561293757612936612848565b5b6129428482856128f9565b509392505050565b600082601f83011261295f5761295e612843565b5b813561296f848260208601612908565b91505092915050565b60006020828403121561298e5761298d6124ee565b5b600082013567ffffffffffffffff8111156129ac576129ab6124f3565b5b6129b88482850161294a565b91505092915050565b600080fd5b600080fd5b60008083601f8401126129e1576129e0612843565b5b8235905067ffffffffffffffff8111156129fe576129fd6129c1565b5b602083019150836020820283011115612a1a57612a196129c6565b5b9250929050565b60008060208385031215612a3857612a376124ee565b5b600083013567ffffffffffffffff811115612a5657612a556124f3565b5b612a62858286016129cb565b92509250509250929050565b612a778161257d565b8114612a8257600080fd5b50565b600081359050612a9481612a6e565b92915050565b60008060408385031215612ab157612ab06124ee565b5b6000612abf85828601612744565b9250506020612ad085828601612a85565b9150509250929050565b600067ffffffffffffffff821115612af557612af461284d565b5b612afe82612602565b9050602081019050919050565b6000612b1e612b1984612ada565b6128ad565b905082815260208101848484011115612b3a57612b39612848565b5b612b458482856128f9565b509392505050565b600082601f830112612b6257612b61612843565b5b8135612b72848260208601612b0b565b91505092915050565b60008060008060808587031215612b9557612b946124ee565b5b6000612ba387828801612744565b9450506020612bb487828801612744565b9350506040612bc58782880161268f565b925050606085013567ffffffffffffffff811115612be657612be56124f3565b5b612bf287828801612b4d565b91505092959194509250565b60008060408385031215612c1557612c146124ee565b5b6000612c2385828601612744565b9250506020612c3485828601612744565b9150509250929050565b7f4e487b7100000000000000000000000000000000000000000000000000000000600052602260045260246000fd5b60006002820490506001821680612c8557607f821691505b60208210811415612c9957612c98612c3e565b5b50919050565b7f4552433732313a20617070726f76656420717565727920666f72206e6f6e657860008201527f697374656e7420746f6b656e0000000000000000000000000000000000000000602082015250565b6000612cfb602c836125be565b9150612d0682612c9f565b604082019050919050565b60006020820190508181036000830152612d2a81612cee565b9050919050565b7f4552433732313a20617070726f76616c20746f2063757272656e74206f776e6560008201527f7200000000000000000000000000000000000000000000000000000000000000602082015250565b6000612d8d6021836125be565b9150612d9882612d31565b604082019050919050565b60006020820190508181036000830152612dbc81612d80565b9050919050565b7f4552433732313a20617070726f76652063616c6c6572206973206e6f74206f7760008201527f6e6572206e6f7220617070726f76656420666f7220616c6c0000000000000000602082015250565b6000612e1f6038836125be565b9150612e2a82612dc3565b604082019050919050565b60006020820190508181036000830152612e4e81612e12565b9050919050565b7f4552433732313a207472616e736665722063616c6c6572206973206e6f74206f60008201527f776e6572206e6f7220617070726f766564000000000000000000000000000000602082015250565b6000612eb16031836125be565b9150612ebc82612e55565b604082019050919050565b60006020820190508181036000830152612ee081612ea4565b9050919050565b7f6f6e6c79206f776e65722063616e20706572666f726d2074686973206163746960008201527f6f6e000000000000000000000000000000000000000000000000000000000000602082015250565b6000612f436022836125be565b9150612f4e82612ee7565b604082019050919050565b60006020820190508181036000830152612f7281612f36565b9050919050565b7f4552433732313a206f776e657220717565727920666f72206e6f6e657869737460008201527f656e7420746f6b656e0000000000000000000000000000000000000000000000602082015250565b6000612fd56029836125be565b9150612fe082612f79565b604082019050919050565b6000602082019050818103600083015261300481612fc8565b9050919050565b7f4552433732313a2062616c616e636520717565727920666f7220746865207a6560008201527f726f206164647265737300000000000000000000000000000000000000000000602082015250565b6000613067602a836125be565b91506130728261300b565b604082019050919050565b600060208201905081810360008301526130968161305a565b9050919050565b7f4e487b7100000000000000000000000000000000000000000000000000000000600052603260045260246000fd5b7f4e487b7100000000000000000000000000000000000000000000000000000000600052601160045260246000fd5b60006131068261266e565b91507fffffffffffffffffffffffffffffffffffffffffffffffffffffffffffffffff821415613139576131386130cc565b5b600182019050919050565b7f4e6f206d6f7265206e66747320617661696c61626c6520746f206d696e740000600082015250565b600061317a601e836125be565b915061318582613144565b602082019050919050565b600060208201905081810360008301526131a98161316d565b9050919050565b7f4552433732314d657461646174613a2055524920717565727920666f72206e6f60008201527f6e6578697374656e7420746f6b656e0000000000000000000000000000000000602082015250565b600061320c602f836125be565b9150613217826131b0565b604082019050919050565b6000602082019050818103600083015261323b816131ff565b9050919050565b600081905092915050565b6000613258826125b3565b6132628185613242565b93506132728185602086016125cf565b80840191505092915050565b60008190508160005260206000209050919050565b600081546132a081612c6d565b6132aa8186613242565b945060018216600081146132c557600181146132d657613309565b60ff19831686528186019350613309565b6132df8561327e565b60005b83811015613301578154818901526001820191506020810190506132e2565b838801955050505b50505092915050565b600061331e828661324d565b915061332a828561324d565b91506133368284613293565b9150819050949350505050565b7f4552433732313a206f70657261746f7220717565727920666f72206e6f6e657860008201527f697374656e7420746f6b656e0000000000000000000000000000000000000000602082015250565b600061339f602c836125be565b91506133aa82613343565b604082019050919050565b600060208201905081810360008301526133ce81613392565b9050919050565b7f4552433732313a207472616e73666572206f6620746f6b656e2074686174206960008201527f73206e6f74206f776e0000000000000000000000000000000000000000000000602082015250565b60006134316029836125be565b915061343c826133d5565b604082019050919050565b6000602082019050818103600083015261346081613424565b9050919050565b7f4552433732313a207472616e7366657220746f20746865207a65726f2061646460008201527f7265737300000000000000000000000000000000000000000000000000000000602082015250565b60006134c36024836125be565b91506134ce82613467565b604082019050919050565b600060208201905081810360008301526134f2816134b6565b9050919050565b60006135048261266e565b915061350f8361266e565b925082821015613522576135216130cc565b5b828203905092915050565b60006135388261266e565b91506135438361266e565b9250827fffffffffffffffffffffffffffffffffffffffffffffffffffffffffffffffff03821115613578576135776130cc565b5b828201905092915050565b7f4d696e74206973206e6f74206f6e000000000000000000000000000000000000600082015250565b60006135b9600e836125be565b91506135c482613583565b602082019050919050565b600060208201905081810360008301526135e8816135ac565b9050919050565b7f757365722061646472657373206973206e6f74206f6e2077686974656c697374600082015250565b60006136256020836125be565b9150613630826135ef565b602082019050919050565b6000602082019050818103600083015261365481613618565b9050919050565b7f4163636f756e7420416464726573732072656163686564206c696d6974206f6e60008201527f20546f6b656e7300000000000000000000000000000000000000000000000000602082015250565b60006136b76027836125be565b91506136c28261365b565b604082019050919050565b600060208201905081810360008301526136e6816136aa565b9050919050565b6000815190506136fc81612678565b92915050565b600060208284031215613718576137176124ee565b5b6000613726848285016136ed565b91505092915050565b7f6d617820616d6f756e7420796f752063616e20686176652069732032206e667460008201527f7300000000000000000000000000000000000000000000000000000000000000602082015250565b600061378b6021836125be565b91506137968261372f565b604082019050919050565b600060208201905081810360008301526137ba8161377e565b9050919050565b7f4552433732313a206d696e7420746f20746865207a65726f2061646472657373600082015250565b60006137f76020836125be565b9150613802826137c1565b602082019050919050565b60006020820190508181036000830152613826816137ea565b9050919050565b7f4552433732313a20746f6b656e20616c7265616479206d696e74656400000000600082015250565b6000613863601c836125be565b915061386e8261382d565b602082019050919050565b6000602082019050818103600083015261389281613856565b9050919050565b7f4552433732313a20617070726f766520746f2063616c6c657200000000000000600082015250565b60006138cf6019836125be565b91506138da82613899565b602082019050919050565b600060208201905081810360008301526138fe816138c2565b9050919050565b7f4552433732313a207472616e7366657220746f206e6f6e20455243373231526560008201527f63656976657220696d706c656d656e7465720000000000000000000000000000602082015250565b60006139616032836125be565b915061396c82613905565b604082019050919050565b6000602082019050818103600083015261399081613954565b9050919050565b7f4e487b7100000000000000000000000000000000000000000000000000000000600052601260045260246000fd5b60006139d18261266e565b91506139dc8361266e565b9250826139ec576139eb613997565b5b828204905092915050565b6000613a028261266e565b9150613a0d8361266e565b925082613a1d57613a1c613997565b5b828206905092915050565b600081519050919050565b600082825260208201905092915050565b6000613a4f82613a28565b613a598185613a33565b9350613a698185602086016125cf565b613a7281612602565b840191505092915050565b6000608082019050613a926000830187612703565b613a9f6020830186612703565b613aac6040830185612819565b8181036060830152613abe8184613a44565b905095945050505050565b600081519050613ad881612524565b92915050565b600060208284031215613af457613af36124ee565b5b6000613b0284828501613ac9565b9150509291505056fea264697066735822122051315453123a8c8bd3bf86788983e8b336decf71bcde228061311cdfaaf6cc3064736f6c63430008090033",
  "linkReferences": {},
  "deployedLinkReferences": {}
}