{
  "_format": "hh-sol-artifact-1",
  "contractName": "F1_NFT",
  "sourceName": "contracts/F1_NFT.sol",
  "abi": [
    {
      "inputs": [
        {
          "internalType": "string",
          "name": "_newBaseURI",
          "type": "string"
        },
        {
          "internalType": "uint256",
          "name": "_max_mint_amount",
          "type": "uint256"
        }
      ],
      "stateMutability": "nonpayable",
      "type": "constructor"
    },
    {
      "anonymous": false,
      "inputs": [
        {
          "indexed": true,
          "internalType": "address",
          "name": "owner",
          "type": "address"
        },
        {
          "indexed": true,
          "internalType": "address",
          "name": "approved",
          "type": "address"
        },
        {
          "indexed": true,
          "internalType": "uint256",
          "name": "tokenId",
          "type": "uint256"
        }
      ],
      "name": "Approval",
      "type": "event"
    },
    {
      "anonymous": false,
      "inputs": [
        {
          "indexed": true,
          "internalType": "address",
          "name": "owner",
          "type": "address"
        },
        {
          "indexed": true,
          "internalType": "address",
          "name": "operator",
          "type": "address"
        },
        {
          "indexed": false,
          "internalType": "bool",
          "name": "approved",
          "type": "bool"
        }
      ],
      "name": "ApprovalForAll",
      "type": "event"
    },
    {
      "anonymous": false,
      "inputs": [
        {
          "indexed": true,
          "internalType": "address",
          "name": "from",
          "type": "address"
        },
        {
          "indexed": true,
          "internalType": "address",
          "name": "to",
          "type": "address"
        },
        {
          "indexed": true,
          "internalType": "uint256",
          "name": "tokenId",
          "type": "uint256"
        }
      ],
      "name": "Transfer",
      "type": "event"
    },
    {
      "inputs": [],
      "name": "active",
      "outputs": [
        {
          "internalType": "bool",
          "name": "",
          "type": "bool"
        }
      ],
      "stateMutability": "view",
      "type": "function"
    },
    {
      "inputs": [
        {
          "internalType": "address[]",
          "name": "addresses",
          "type": "address[]"
        }
      ],
      "name": "addToWhiteList",
      "outputs": [],
      "stateMutability": "nonpayable",
      "type": "function"
    },
    {
      "inputs": [
        {
          "internalType": "address",
          "name": "",
          "type": "address"
        }
      ],
      "name": "addressTokenCount",
      "outputs": [
        {
          "internalType": "uint256",
          "name": "",
          "type": "uint256"
        }
      ],
      "stateMutability": "view",
      "type": "function"
    },
    {
      "inputs": [
        {
          "internalType": "address",
          "name": "to",
          "type": "address"
        },
        {
          "internalType": "uint256",
          "name": "tokenId",
          "type": "uint256"
        }
      ],
      "name": "approve",
      "outputs": [],
      "stateMutability": "nonpayable",
      "type": "function"
    },
    {
      "inputs": [
        {
          "internalType": "address",
          "name": "owner",
          "type": "address"
        }
      ],
      "name": "balanceOf",
      "outputs": [
        {
          "internalType": "uint256",
          "name": "",
          "type": "uint256"
        }
      ],
      "stateMutability": "view",
      "type": "function"
    },
    {
      "inputs": [],
      "name": "baseExtension",
      "outputs": [
        {
          "internalType": "string",
          "name": "",
          "type": "string"
        }
      ],
      "stateMutability": "view",
      "type": "function"
    },
    {
      "inputs": [],
      "name": "baseURI",
      "outputs": [
        {
          "internalType": "string",
          "name": "",
          "type": "string"
        }
      ],
      "stateMutability": "view",
      "type": "function"
    },
    {
      "inputs": [
        {
          "internalType": "uint256",
          "name": "amount",
          "type": "uint256"
        }
      ],
      "name": "changeMintAmount",
      "outputs": [],
      "stateMutability": "nonpayable",
      "type": "function"
    },
    {
      "inputs": [
        {
          "internalType": "uint256",
          "name": "tokenId",
          "type": "uint256"
        }
      ],
      "name": "getApproved",
      "outputs": [
        {
          "internalType": "address",
          "name": "",
          "type": "address"
        }
      ],
      "stateMutability": "view",
      "type": "function"
    },
    {
      "inputs": [
        {
          "internalType": "address",
          "name": "owner",
          "type": "address"
        },
        {
          "internalType": "address",
          "name": "operator",
          "type": "address"
        }
      ],
      "name": "isApprovedForAll",
      "outputs": [
        {
          "internalType": "bool",
          "name": "",
          "type": "bool"
        }
      ],
      "stateMutability": "view",
      "type": "function"
    },
    {
      "inputs": [],
      "name": "max_mint_amount",
      "outputs": [
        {
          "internalType": "uint256",
          "name": "",
          "type": "uint256"
        }
      ],
      "stateMutability": "view",
      "type": "function"
    },
    {
      "inputs": [
        {
          "internalType": "uint256",
          "name": "nftAmountToMint",
          "type": "uint256"
        }
      ],
      "name": "mint",
      "outputs": [],
      "stateMutability": "payable",
      "type": "function"
    },
    {
      "inputs": [],
      "name": "name",
      "outputs": [
        {
          "internalType": "string",
          "name": "",
          "type": "string"
        }
      ],
      "stateMutability": "view",
      "type": "function"
    },
    {
      "inputs": [],
      "name": "owner",
      "outputs": [
        {
          "internalType": "address",
          "name": "",
          "type": "address"
        }
      ],
      "stateMutability": "view",
      "type": "function"
    },
    {
      "inputs": [
        {
          "internalType": "uint256",
          "name": "tokenId",
          "type": "uint256"
        }
      ],
      "name": "ownerOf",
      "outputs": [
        {
          "internalType": "address",
          "name": "",
          "type": "address"
        }
      ],
      "stateMutability": "view",
      "type": "function"
    },
    {
      "inputs": [
        {
          "internalType": "address",
          "name": "from",
          "type": "address"
        },
        {
          "internalType": "address",
          "name": "to",
          "type": "address"
        },
        {
          "internalType": "uint256",
          "name": "tokenId",
          "type": "uint256"
        }
      ],
      "name": "safeTransferFrom",
      "outputs": [],
      "stateMutability": "nonpayable",
      "type": "function"
    },
    {
      "inputs": [
        {
          "internalType": "address",
          "name": "from",
          "type": "address"
        },
        {
          "internalType": "address",
          "name": "to",
          "type": "address"
        },
        {
          "internalType": "uint256",
          "name": "tokenId",
          "type": "uint256"
        },
        {
          "internalType": "bytes",
          "name": "_data",
          "type": "bytes"
        }
      ],
      "name": "safeTransferFrom",
      "outputs": [],
      "stateMutability": "nonpayable",
      "type": "function"
    },
    {
      "inputs": [
        {
          "internalType": "address",
          "name": "operator",
          "type": "address"
        },
        {
          "internalType": "bool",
          "name": "approved",
          "type": "bool"
        }
      ],
      "name": "setApprovalForAll",
      "outputs": [],
      "stateMutability": "nonpayable",
      "type": "function"
    },
    {
      "inputs": [
        {
          "internalType": "string",
          "name": "_newBaseURI",
          "type": "string"
        }
      ],
      "name": "setBaseURI",
      "outputs": [],
      "stateMutability": "nonpayable",
      "type": "function"
    },
    {
      "inputs": [
        {
          "internalType": "bytes4",
          "name": "interfaceId",
          "type": "bytes4"
        }
      ],
      "name": "supportsInterface",
      "outputs": [
        {
          "internalType": "bool",
          "name": "",
          "type": "bool"
        }
      ],
      "stateMutability": "view",
      "type": "function"
    },
    {
      "inputs": [],
      "name": "symbol",
      "outputs": [
        {
          "internalType": "string",
          "name": "",
          "type": "string"
        }
      ],
      "stateMutability": "view",
      "type": "function"
    },
    {
      "inputs": [],
      "name": "toggleOff",
      "outputs": [],
      "stateMutability": "nonpayable",
      "type": "function"
    },
    {
      "inputs": [],
      "name": "toggleOn",
      "outputs": [],
      "stateMutability": "nonpayable",
      "type": "function"
    },
    {
      "inputs": [],
      "name": "tokenID",
      "outputs": [
        {
          "internalType": "uint256",
          "name": "",
          "type": "uint256"
        }
      ],
      "stateMutability": "view",
      "type": "function"
    },
    {
      "inputs": [
        {
          "internalType": "uint256",
          "name": "tokenId",
          "type": "uint256"
        }
      ],
      "name": "tokenURI",
      "outputs": [
        {
          "internalType": "string",
          "name": "",
          "type": "string"
        }
      ],
      "stateMutability": "view",
      "type": "function"
    },
    {
      "inputs": [
        {
          "internalType": "address",
          "name": "from",
          "type": "address"
        },
        {
          "internalType": "address",
          "name": "to",
          "type": "address"
        },
        {
          "internalType": "uint256",
          "name": "tokenId",
          "type": "uint256"
        }
      ],
      "name": "transferFrom",
      "outputs": [],
      "stateMutability": "nonpayable",
      "type": "function"
    },
    {
      "inputs": [
        {
          "internalType": "uint256",
          "name": "",
          "type": "uint256"
        }
      ],
      "name": "uriMap",
      "outputs": [
        {
          "internalType": "string",
          "name": "",
          "type": "string"
        }
      ],
      "stateMutability": "view",
      "type": "function"
    },
    {
      "inputs": [
        {
          "internalType": "address",
          "name": "",
          "type": "address"
        }
      ],
      "name": "whiteListAddresses",
      "outputs": [
        {
          "internalType": "bool",
          "name": "",
          "type": "bool"
        }
      ],
      "stateMutability": "view",
      "type": "function"
    }
  ],
  "bytecode": "0x60806040526040518060400160405280600581526020017f2e6a736f6e00000000000000000000000000000000000000000000000000000081525060089080519060200190620000519291906200023a565b506001600d553480156200006457600080fd5b50604051620040203803806200402083398181016040528101906200008a9190620004c2565b6040518060400160405280600681526020017f66315f44414f00000000000000000000000000000000000000000000000000008152506040518060400160405280600281526020017f663100000000000000000000000000000000000000000000000000000000000081525081600090805190602001906200010e9291906200023a565b508060019080519060200190620001279291906200023a565b50505033600660006101000a81548173ffffffffffffffffffffffffffffffffffffffff021916908373ffffffffffffffffffffffffffffffffffffffff1602179055508060098190555062000183826200018b60201b60201c565b505062000636565b600660009054906101000a900473ffffffffffffffffffffffffffffffffffffffff1673ffffffffffffffffffffffffffffffffffffffff163373ffffffffffffffffffffffffffffffffffffffff16146200021e576040517f08c379a00000000000000000000000000000000000000000000000000000000081526004016200021590620005af565b60405180910390fd5b8060079080519060200190620002369291906200023a565b5050565b828054620002489062000600565b90600052602060002090601f0160209004810192826200026c5760008555620002b8565b82601f106200028757805160ff1916838001178555620002b8565b82800160010185558215620002b8579182015b82811115620002b75782518255916020019190600101906200029a565b5b509050620002c79190620002cb565b5090565b5b80821115620002e6576000816000905550600101620002cc565b5090565b6000604051905090565b600080fd5b600080fd5b600080fd5b600080fd5b6000601f19601f8301169050919050565b7f4e487b7100000000000000000000000000000000000000000000000000000000600052604160045260246000fd5b620003538262000308565b810181811067ffffffffffffffff8211171562000375576200037462000319565b5b80604052505050565b60006200038a620002ea565b905062000398828262000348565b919050565b600067ffffffffffffffff821115620003bb57620003ba62000319565b5b620003c68262000308565b9050602081019050919050565b60005b83811015620003f3578082015181840152602081019050620003d6565b8381111562000403576000848401525b50505050565b6000620004206200041a846200039d565b6200037e565b9050828152602081018484840111156200043f576200043e62000303565b5b6200044c848285620003d3565b509392505050565b600082601f8301126200046c576200046b620002fe565b5b81516200047e84826020860162000409565b91505092915050565b6000819050919050565b6200049c8162000487565b8114620004a857600080fd5b50565b600081519050620004bc8162000491565b92915050565b60008060408385031215620004dc57620004db620002f4565b5b600083015167ffffffffffffffff811115620004fd57620004fc620002f9565b5b6200050b8582860162000454565b92505060206200051e85828601620004ab565b9150509250929050565b600082825260208201905092915050565b7f6f6e6c79206f776e65722063616e20706572666f726d2074686973206163746960008201527f6f6e000000000000000000000000000000000000000000000000000000000000602082015250565b60006200059760228362000528565b9150620005a48262000539565b604082019050919050565b60006020820190508181036000830152620005ca8162000588565b9050919050565b7f4e487b7100000000000000000000000000000000000000000000000000000000600052602260045260246000fd5b600060028204905060018216806200061957607f821691505b6020821081141562000630576200062f620005d1565b5b50919050565b6139da80620006466000396000f3fe6080604052600436106101b75760003560e01c80637d5092c9116100ec578063a5c42ef11161008a578063c87b56dd11610064578063c87b56dd146105fd578063dd2eb9f31461063a578063e985e9c514610677578063f4c23667146106b4576101b7565b8063a5c42ef11461057e578063b88d4fde146105a9578063c6682862146105d2576101b7565b8063920674dc116100c6578063920674dc146104d157806395d89b411461050e578063a0712d6814610539578063a22cb46514610555576101b7565b80637d5092c91461045257806387eb2bea1461047b5780638da5cb5b146104a6576101b7565b806342842e0e116101595780636352211e116101335780636352211e146103845780636c0360eb146103c157806370a08231146103ec578063740d73f314610429576101b7565b806342842e0e146102f5578063474dd97d1461031e57806355f804b31461035b576101b7565b8063081812fc11610195578063081812fc1461024f578063095ea7b31461028c57806323b872dd146102b5578063267bcabd146102de576101b7565b806301ffc9a7146101bc57806302fb0c5e146101f957806306fdde0314610224575b600080fd5b3480156101c857600080fd5b506101e360048036038101906101de9190612455565b6106cb565b6040516101f0919061249d565b60405180910390f35b34801561020557600080fd5b5061020e6107ad565b60405161021b919061249d565b60405180910390f35b34801561023057600080fd5b506102396107c0565b6040516102469190612551565b60405180910390f35b34801561025b57600080fd5b50610276600480360381019061027191906125a9565b610852565b6040516102839190612617565b60405180910390f35b34801561029857600080fd5b506102b360048036038101906102ae919061265e565b6108d7565b005b3480156102c157600080fd5b506102dc60048036038101906102d7919061269e565b6109ef565b005b3480156102ea57600080fd5b506102f3610a4f565b005b34801561030157600080fd5b5061031c6004803603810190610317919061269e565b610afc565b005b34801561032a57600080fd5b50610345600480360381019061034091906126f1565b610b1c565b604051610352919061272d565b60405180910390f35b34801561036757600080fd5b50610382600480360381019061037d919061287d565b610b34565b005b34801561039057600080fd5b506103ab60048036038101906103a691906125a9565b610bde565b6040516103b89190612617565b60405180910390f35b3480156103cd57600080fd5b506103d6610c90565b6040516103e39190612551565b60405180910390f35b3480156103f857600080fd5b50610413600480360381019061040e91906126f1565b610d1e565b604051610420919061272d565b60405180910390f35b34801561043557600080fd5b50610450600480360381019061044b9190612926565b610dd6565b005b34801561045e57600080fd5b50610479600480360381019061047491906125a9565b610f0b565b005b34801561048757600080fd5b50610490610fa5565b60405161049d919061272d565b60405180910390f35b3480156104b257600080fd5b506104bb610fab565b6040516104c89190612617565b60405180910390f35b3480156104dd57600080fd5b506104f860048036038101906104f391906126f1565b610fd1565b604051610505919061249d565b60405180910390f35b34801561051a57600080fd5b50610523610ff1565b6040516105309190612551565b60405180910390f35b610553600480360381019061054e91906125a9565b611083565b005b34801561056157600080fd5b5061057c6004803603810190610577919061299f565b61115c565b005b34801561058a57600080fd5b50610593611172565b6040516105a0919061272d565b60405180910390f35b3480156105b557600080fd5b506105d060048036038101906105cb9190612a80565b611178565b005b3480156105de57600080fd5b506105e76111da565b6040516105f49190612551565b60405180910390f35b34801561060957600080fd5b50610624600480360381019061061f91906125a9565b611268565b6040516106319190612551565b60405180910390f35b34801561064657600080fd5b50610661600480360381019061065c91906125a9565b611312565b60405161066e9190612551565b60405180910390f35b34801561068357600080fd5b5061069e60048036038101906106999190612b03565b6113b2565b6040516106ab919061249d565b60405180910390f35b3480156106c057600080fd5b506106c9611446565b005b60007f80ac58cd000000000000000000000000000000000000000000000000000000007bffffffffffffffffffffffffffffffffffffffffffffffffffffffff1916827bffffffffffffffffffffffffffffffffffffffffffffffffffffffff1916148061079657507f5b5e139f000000000000000000000000000000000000000000000000000000007bffffffffffffffffffffffffffffffffffffffffffffffffffffffff1916827bffffffffffffffffffffffffffffffffffffffffffffffffffffffff1916145b806107a657506107a5826114f3565b5b9050919050565b600e60009054906101000a900460ff1681565b6060600080546107cf90612b72565b80601f01602080910402602001604051908101604052809291908181526020018280546107fb90612b72565b80156108485780601f1061081d57610100808354040283529160200191610848565b820191906000526020600020905b81548152906001019060200180831161082b57829003601f168201915b5050505050905090565b600061085d8261155d565b61089c576040517f08c379a000000000000000000000000000000000000000000000000000000000815260040161089390612c16565b60405180910390fd5b6004600083815260200190815260200160002060009054906101000a900473ffffffffffffffffffffffffffffffffffffffff169050919050565b60006108e282610bde565b90508073ffffffffffffffffffffffffffffffffffffffff168373ffffffffffffffffffffffffffffffffffffffff161415610953576040517f08c379a000000000000000000000000000000000000000000000000000000000815260040161094a90612ca8565b60405180910390fd5b8073ffffffffffffffffffffffffffffffffffffffff166109726115c9565b73ffffffffffffffffffffffffffffffffffffffff1614806109a157506109a08161099b6115c9565b6113b2565b5b6109e0576040517f08c379a00000000000000000000000000000000000000000000000000000000081526004016109d790612d3a565b60405180910390fd5b6109ea83836115d1565b505050565b610a006109fa6115c9565b8261168a565b610a3f576040517f08c379a0000000000000000000000000000000000000000000000000000000008152600401610a3690612dcc565b60405180910390fd5b610a4a838383611768565b505050565b600660009054906101000a900473ffffffffffffffffffffffffffffffffffffffff1673ffffffffffffffffffffffffffffffffffffffff163373ffffffffffffffffffffffffffffffffffffffff1614610adf576040517f08c379a0000000000000000000000000000000000000000000000000000000008152600401610ad690612e5e565b60405180910390fd5b6001600e60006101000a81548160ff021916908315150217905550565b610b1783838360405180602001604052806000815250611178565b505050565b600b6020528060005260406000206000915090505481565b600660009054906101000a900473ffffffffffffffffffffffffffffffffffffffff1673ffffffffffffffffffffffffffffffffffffffff163373ffffffffffffffffffffffffffffffffffffffff1614610bc4576040517f08c379a0000000000000000000000000000000000000000000000000000000008152600401610bbb90612e5e565b60405180910390fd5b8060079080519060200190610bda929190612346565b5050565b6000806002600084815260200190815260200160002060009054906101000a900473ffffffffffffffffffffffffffffffffffffffff169050600073ffffffffffffffffffffffffffffffffffffffff168173ffffffffffffffffffffffffffffffffffffffff161415610c87576040517f08c379a0000000000000000000000000000000000000000000000000000000008152600401610c7e90612ef0565b60405180910390fd5b80915050919050565b60078054610c9d90612b72565b80601f0160208091040260200160405190810160405280929190818152602001828054610cc990612b72565b8015610d165780601f10610ceb57610100808354040283529160200191610d16565b820191906000526020600020905b815481529060010190602001808311610cf957829003601f168201915b505050505081565b60008073ffffffffffffffffffffffffffffffffffffffff168273ffffffffffffffffffffffffffffffffffffffff161415610d8f576040517f08c379a0000000000000000000000000000000000000000000000000000000008152600401610d8690612f82565b60405180910390fd5b600360008373ffffffffffffffffffffffffffffffffffffffff1673ffffffffffffffffffffffffffffffffffffffff168152602001908152602001600020549050919050565b600660009054906101000a900473ffffffffffffffffffffffffffffffffffffffff1673ffffffffffffffffffffffffffffffffffffffff163373ffffffffffffffffffffffffffffffffffffffff1614610e66576040517f08c379a0000000000000000000000000000000000000000000000000000000008152600401610e5d90612e5e565b60405180910390fd5b60005b82829050811015610f06576001600a6000858585818110610e8d57610e8c612fa2565b5b9050602002016020810190610ea291906126f1565b73ffffffffffffffffffffffffffffffffffffffff1673ffffffffffffffffffffffffffffffffffffffff16815260200190815260200160002060006101000a81548160ff0219169083151502179055508080610efe90613000565b915050610e69565b505050565b600660009054906101000a900473ffffffffffffffffffffffffffffffffffffffff1673ffffffffffffffffffffffffffffffffffffffff163373ffffffffffffffffffffffffffffffffffffffff1614610f9b576040517f08c379a0000000000000000000000000000000000000000000000000000000008152600401610f9290612e5e565b60405180910390fd5b8060098190555050565b60095481565b600660009054906101000a900473ffffffffffffffffffffffffffffffffffffffff1681565b600a6020528060005260406000206000915054906101000a900460ff1681565b60606001805461100090612b72565b80601f016020809104026020016040519081016040528092919081815260200182805461102c90612b72565b80156110795780601f1061104e57610100808354040283529160200191611079565b820191906000526020600020905b81548152906001019060200180831161105c57829003601f168201915b5050505050905090565b61108d81336119c4565b60005b81811015611158576110a433600d54611c0d565b6110af600d54611268565b600c6000600d54815260200190815260200160002090805190602001906110d7929190612346565b50600b60003373ffffffffffffffffffffffffffffffffffffffff1673ffffffffffffffffffffffffffffffffffffffff168152602001908152602001600020600081548092919061112890613000565b9190505550600d600081548092919061114090613000565b9190505550808061115090613000565b915050611090565b5050565b61116e6111676115c9565b8383611ddb565b5050565b600d5481565b6111896111836115c9565b8361168a565b6111c8576040517f08c379a00000000000000000000000000000000000000000000000000000000081526004016111bf90612dcc565b60405180910390fd5b6111d484848484611f48565b50505050565b600880546111e790612b72565b80601f016020809104026020016040519081016040528092919081815260200182805461121390612b72565b80156112605780601f1061123557610100808354040283529160200191611260565b820191906000526020600020905b81548152906001019060200180831161124357829003601f168201915b505050505081565b60606112738261155d565b6112b2576040517f08c379a00000000000000000000000000000000000000000000000000000000081526004016112a9906130bb565b60405180910390fd5b60006112bc611fa4565b905060008151116112dc576040518060200160405280600081525061130a565b806112e684612036565b60086040516020016112fa939291906131ab565b6040516020818303038152906040525b915050919050565b600c602052806000526040600020600091509050805461133190612b72565b80601f016020809104026020016040519081016040528092919081815260200182805461135d90612b72565b80156113aa5780601f1061137f576101008083540402835291602001916113aa565b820191906000526020600020905b81548152906001019060200180831161138d57829003601f168201915b505050505081565b6000600560008473ffffffffffffffffffffffffffffffffffffffff1673ffffffffffffffffffffffffffffffffffffffff16815260200190815260200160002060008373ffffffffffffffffffffffffffffffffffffffff1673ffffffffffffffffffffffffffffffffffffffff16815260200190815260200160002060009054906101000a900460ff16905092915050565b600660009054906101000a900473ffffffffffffffffffffffffffffffffffffffff1673ffffffffffffffffffffffffffffffffffffffff163373ffffffffffffffffffffffffffffffffffffffff16146114d6576040517f08c379a00000000000000000000000000000000000000000000000000000000081526004016114cd90612e5e565b60405180910390fd5b6000600e60006101000a81548160ff021916908315150217905550565b60007f01ffc9a7000000000000000000000000000000000000000000000000000000007bffffffffffffffffffffffffffffffffffffffffffffffffffffffff1916827bffffffffffffffffffffffffffffffffffffffffffffffffffffffff1916149050919050565b60008073ffffffffffffffffffffffffffffffffffffffff166002600084815260200190815260200160002060009054906101000a900473ffffffffffffffffffffffffffffffffffffffff1673ffffffffffffffffffffffffffffffffffffffff1614159050919050565b600033905090565b816004600083815260200190815260200160002060006101000a81548173ffffffffffffffffffffffffffffffffffffffff021916908373ffffffffffffffffffffffffffffffffffffffff160217905550808273ffffffffffffffffffffffffffffffffffffffff1661164483610bde565b73ffffffffffffffffffffffffffffffffffffffff167f8c5be1e5ebec7d5bd14f71427d1e84f3dd0314c0f7b2291e5b200ac8c7c3b92560405160405180910390a45050565b60006116958261155d565b6116d4576040517f08c379a00000000000000000000000000000000000000000000000000000000081526004016116cb9061324e565b60405180910390fd5b60006116df83610bde565b90508073ffffffffffffffffffffffffffffffffffffffff168473ffffffffffffffffffffffffffffffffffffffff16148061174e57508373ffffffffffffffffffffffffffffffffffffffff1661173684610852565b73ffffffffffffffffffffffffffffffffffffffff16145b8061175f575061175e81856113b2565b5b91505092915050565b8273ffffffffffffffffffffffffffffffffffffffff1661178882610bde565b73ffffffffffffffffffffffffffffffffffffffff16146117de576040517f08c379a00000000000000000000000000000000000000000000000000000000081526004016117d5906132e0565b60405180910390fd5b600073ffffffffffffffffffffffffffffffffffffffff168273ffffffffffffffffffffffffffffffffffffffff16141561184e576040517f08c379a000000000000000000000000000000000000000000000000000000000815260040161184590613372565b60405180910390fd5b611859838383612197565b6118646000826115d1565b6001600360008573ffffffffffffffffffffffffffffffffffffffff1673ffffffffffffffffffffffffffffffffffffffff16815260200190815260200160002060008282546118b49190613392565b925050819055506001600360008473ffffffffffffffffffffffffffffffffffffffff1673ffffffffffffffffffffffffffffffffffffffff168152602001908152602001600020600082825461190b91906133c6565b92505081905550816002600083815260200190815260200160002060006101000a81548173ffffffffffffffffffffffffffffffffffffffff021916908373ffffffffffffffffffffffffffffffffffffffff160217905550808273ffffffffffffffffffffffffffffffffffffffff168473ffffffffffffffffffffffffffffffffffffffff167fddf252ad1be2c89b69c2b068fc378daa952ba7f163c4a11628f55a4df523b3ef60405160405180910390a4505050565b60011515600e60009054906101000a900460ff16151514611a1a576040517f08c379a0000000000000000000000000000000000000000000000000000000008152600401611a1190613468565b60405180910390fd5b60011515600a60008373ffffffffffffffffffffffffffffffffffffffff1673ffffffffffffffffffffffffffffffffffffffff16815260200190815260200160002060009054906101000a900460ff16151514611aad576040517f08c379a0000000000000000000000000000000000000000000000000000000008152600401611aa4906134d4565b60405180910390fd5b60095482600b60008473ffffffffffffffffffffffffffffffffffffffff1673ffffffffffffffffffffffffffffffffffffffff16815260200190815260200160002054611afb91906133c6565b1115611b3c576040517f08c379a0000000000000000000000000000000000000000000000000000000008152600401611b3390613566565b60405180910390fd5b6009543073ffffffffffffffffffffffffffffffffffffffff166370a08231836040518263ffffffff1660e01b8152600401611b789190612617565b60206040518083038186803b158015611b9057600080fd5b505afa158015611ba4573d6000803e3d6000fd5b505050506040513d601f19601f82011682018060405250810190611bc8919061359b565b1115611c09576040517f08c379a0000000000000000000000000000000000000000000000000000000008152600401611c009061363a565b60405180910390fd5b5050565b600073ffffffffffffffffffffffffffffffffffffffff168273ffffffffffffffffffffffffffffffffffffffff161415611c7d576040517f08c379a0000000000000000000000000000000000000000000000000000000008152600401611c74906136a6565b60405180910390fd5b611c868161155d565b15611cc6576040517f08c379a0000000000000000000000000000000000000000000000000000000008152600401611cbd90613712565b60405180910390fd5b611cd260008383612197565b6001600360008473ffffffffffffffffffffffffffffffffffffffff1673ffffffffffffffffffffffffffffffffffffffff1681526020019081526020016000206000828254611d2291906133c6565b92505081905550816002600083815260200190815260200160002060006101000a81548173ffffffffffffffffffffffffffffffffffffffff021916908373ffffffffffffffffffffffffffffffffffffffff160217905550808273ffffffffffffffffffffffffffffffffffffffff16600073ffffffffffffffffffffffffffffffffffffffff167fddf252ad1be2c89b69c2b068fc378daa952ba7f163c4a11628f55a4df523b3ef60405160405180910390a45050565b8173ffffffffffffffffffffffffffffffffffffffff168373ffffffffffffffffffffffffffffffffffffffff161415611e4a576040517f08c379a0000000000000000000000000000000000000000000000000000000008152600401611e419061377e565b60405180910390fd5b80600560008573ffffffffffffffffffffffffffffffffffffffff1673ffffffffffffffffffffffffffffffffffffffff16815260200190815260200160002060008473ffffffffffffffffffffffffffffffffffffffff1673ffffffffffffffffffffffffffffffffffffffff16815260200190815260200160002060006101000a81548160ff0219169083151502179055508173ffffffffffffffffffffffffffffffffffffffff168373ffffffffffffffffffffffffffffffffffffffff167f17307eab39ab6107e8899845ad3d59bd9653f200f220920489ca2b5937696c3183604051611f3b919061249d565b60405180910390a3505050565b611f53848484611768565b611f5f8484848461219c565b611f9e576040517f08c379a0000000000000000000000000000000000000000000000000000000008152600401611f9590613810565b60405180910390fd5b50505050565b606060078054611fb390612b72565b80601f0160208091040260200160405190810160405280929190818152602001828054611fdf90612b72565b801561202c5780601f106120015761010080835404028352916020019161202c565b820191906000526020600020905b81548152906001019060200180831161200f57829003601f168201915b5050505050905090565b6060600082141561207e576040518060400160405280600181526020017f30000000000000000000000000000000000000000000000000000000000000008152509050612192565b600082905060005b600082146120b057808061209990613000565b915050600a826120a9919061385f565b9150612086565b60008167ffffffffffffffff8111156120cc576120cb612752565b5b6040519080825280601f01601f1916602001820160405280156120fe5781602001600182028036833780820191505090505b5090505b6000851461218b576001826121179190613392565b9150600a856121269190613890565b603061213291906133c6565b60f81b81838151811061214857612147612fa2565b5b60200101907effffffffffffffffffffffffffffffffffffffffffffffffffffffffffffff1916908160001a905350600a85612184919061385f565b9450612102565b8093505050505b919050565b505050565b60006121bd8473ffffffffffffffffffffffffffffffffffffffff16612333565b15612326578373ffffffffffffffffffffffffffffffffffffffff1663150b7a026121e66115c9565b8786866040518563ffffffff1660e01b81526004016122089493929190613916565b602060405180830381600087803b15801561222257600080fd5b505af192505050801561225357506040513d601f19601f820116820180604052508101906122509190613977565b60015b6122d6573d8060008114612283576040519150601f19603f3d011682016040523d82523d6000602084013e612288565b606091505b506000815114156122ce576040517f08c379a00000000000000000000000000000000000000000000000000000000081526004016122c590613810565b60405180910390fd5b805181602001fd5b63150b7a0260e01b7bffffffffffffffffffffffffffffffffffffffffffffffffffffffff1916817bffffffffffffffffffffffffffffffffffffffffffffffffffffffff19161491505061232b565b600190505b949350505050565b600080823b905060008111915050919050565b82805461235290612b72565b90600052602060002090601f01602090048101928261237457600085556123bb565b82601f1061238d57805160ff19168380011785556123bb565b828001600101855582156123bb579182015b828111156123ba57825182559160200191906001019061239f565b5b5090506123c891906123cc565b5090565b5b808211156123e55760008160009055506001016123cd565b5090565b6000604051905090565b600080fd5b600080fd5b60007fffffffff0000000000000000000000000000000000000000000000000000000082169050919050565b612432816123fd565b811461243d57600080fd5b50565b60008135905061244f81612429565b92915050565b60006020828403121561246b5761246a6123f3565b5b600061247984828501612440565b91505092915050565b60008115159050919050565b61249781612482565b82525050565b60006020820190506124b2600083018461248e565b92915050565b600081519050919050565b600082825260208201905092915050565b60005b838110156124f25780820151818401526020810190506124d7565b83811115612501576000848401525b50505050565b6000601f19601f8301169050919050565b6000612523826124b8565b61252d81856124c3565b935061253d8185602086016124d4565b61254681612507565b840191505092915050565b6000602082019050818103600083015261256b8184612518565b905092915050565b6000819050919050565b61258681612573565b811461259157600080fd5b50565b6000813590506125a38161257d565b92915050565b6000602082840312156125bf576125be6123f3565b5b60006125cd84828501612594565b91505092915050565b600073ffffffffffffffffffffffffffffffffffffffff82169050919050565b6000612601826125d6565b9050919050565b612611816125f6565b82525050565b600060208201905061262c6000830184612608565b92915050565b61263b816125f6565b811461264657600080fd5b50565b60008135905061265881612632565b92915050565b60008060408385031215612675576126746123f3565b5b600061268385828601612649565b925050602061269485828601612594565b9150509250929050565b6000806000606084860312156126b7576126b66123f3565b5b60006126c586828701612649565b93505060206126d686828701612649565b92505060406126e786828701612594565b9150509250925092565b600060208284031215612707576127066123f3565b5b600061271584828501612649565b91505092915050565b61272781612573565b82525050565b6000602082019050612742600083018461271e565b92915050565b600080fd5b600080fd5b7f4e487b7100000000000000000000000000000000000000000000000000000000600052604160045260246000fd5b61278a82612507565b810181811067ffffffffffffffff821117156127a9576127a8612752565b5b80604052505050565b60006127bc6123e9565b90506127c88282612781565b919050565b600067ffffffffffffffff8211156127e8576127e7612752565b5b6127f182612507565b9050602081019050919050565b82818337600083830152505050565b600061282061281b846127cd565b6127b2565b90508281526020810184848401111561283c5761283b61274d565b5b6128478482856127fe565b509392505050565b600082601f83011261286457612863612748565b5b813561287484826020860161280d565b91505092915050565b600060208284031215612893576128926123f3565b5b600082013567ffffffffffffffff8111156128b1576128b06123f8565b5b6128bd8482850161284f565b91505092915050565b600080fd5b600080fd5b60008083601f8401126128e6576128e5612748565b5b8235905067ffffffffffffffff811115612903576129026128c6565b5b60208301915083602082028301111561291f5761291e6128cb565b5b9250929050565b6000806020838503121561293d5761293c6123f3565b5b600083013567ffffffffffffffff81111561295b5761295a6123f8565b5b612967858286016128d0565b92509250509250929050565b61297c81612482565b811461298757600080fd5b50565b60008135905061299981612973565b92915050565b600080604083850312156129b6576129b56123f3565b5b60006129c485828601612649565b92505060206129d58582860161298a565b9150509250929050565b600067ffffffffffffffff8211156129fa576129f9612752565b5b612a0382612507565b9050602081019050919050565b6000612a23612a1e846129df565b6127b2565b905082815260208101848484011115612a3f57612a3e61274d565b5b612a4a8482856127fe565b509392505050565b600082601f830112612a6757612a66612748565b5b8135612a77848260208601612a10565b91505092915050565b60008060008060808587031215612a9a57612a996123f3565b5b6000612aa887828801612649565b9450506020612ab987828801612649565b9350506040612aca87828801612594565b925050606085013567ffffffffffffffff811115612aeb57612aea6123f8565b5b612af787828801612a52565b91505092959194509250565b60008060408385031215612b1a57612b196123f3565b5b6000612b2885828601612649565b9250506020612b3985828601612649565b9150509250929050565b7f4e487b7100000000000000000000000000000000000000000000000000000000600052602260045260246000fd5b60006002820490506001821680612b8a57607f821691505b60208210811415612b9e57612b9d612b43565b5b50919050565b7f4552433732313a20617070726f76656420717565727920666f72206e6f6e657860008201527f697374656e7420746f6b656e0000000000000000000000000000000000000000602082015250565b6000612c00602c836124c3565b9150612c0b82612ba4565b604082019050919050565b60006020820190508181036000830152612c2f81612bf3565b9050919050565b7f4552433732313a20617070726f76616c20746f2063757272656e74206f776e6560008201527f7200000000000000000000000000000000000000000000000000000000000000602082015250565b6000612c926021836124c3565b9150612c9d82612c36565b604082019050919050565b60006020820190508181036000830152612cc181612c85565b9050919050565b7f4552433732313a20617070726f76652063616c6c6572206973206e6f74206f7760008201527f6e6572206e6f7220617070726f76656420666f7220616c6c0000000000000000602082015250565b6000612d246038836124c3565b9150612d2f82612cc8565b604082019050919050565b60006020820190508181036000830152612d5381612d17565b9050919050565b7f4552433732313a207472616e736665722063616c6c6572206973206e6f74206f60008201527f776e6572206e6f7220617070726f766564000000000000000000000000000000602082015250565b6000612db66031836124c3565b9150612dc182612d5a565b604082019050919050565b60006020820190508181036000830152612de581612da9565b9050919050565b7f6f6e6c79206f776e65722063616e20706572666f726d2074686973206163746960008201527f6f6e000000000000000000000000000000000000000000000000000000000000602082015250565b6000612e486022836124c3565b9150612e5382612dec565b604082019050919050565b60006020820190508181036000830152612e7781612e3b565b9050919050565b7f4552433732313a206f776e657220717565727920666f72206e6f6e657869737460008201527f656e7420746f6b656e0000000000000000000000000000000000000000000000602082015250565b6000612eda6029836124c3565b9150612ee582612e7e565b604082019050919050565b60006020820190508181036000830152612f0981612ecd565b9050919050565b7f4552433732313a2062616c616e636520717565727920666f7220746865207a6560008201527f726f206164647265737300000000000000000000000000000000000000000000602082015250565b6000612f6c602a836124c3565b9150612f7782612f10565b604082019050919050565b60006020820190508181036000830152612f9b81612f5f565b9050919050565b7f4e487b7100000000000000000000000000000000000000000000000000000000600052603260045260246000fd5b7f4e487b7100000000000000000000000000000000000000000000000000000000600052601160045260246000fd5b600061300b82612573565b91507fffffffffffffffffffffffffffffffffffffffffffffffffffffffffffffffff82141561303e5761303d612fd1565b5b600182019050919050565b7f4552433732314d657461646174613a2055524920717565727920666f72206e6f60008201527f6e6578697374656e7420746f6b656e0000000000000000000000000000000000602082015250565b60006130a5602f836124c3565b91506130b082613049565b604082019050919050565b600060208201905081810360008301526130d481613098565b9050919050565b600081905092915050565b60006130f1826124b8565b6130fb81856130db565b935061310b8185602086016124d4565b80840191505092915050565b60008190508160005260206000209050919050565b6000815461313981612b72565b61314381866130db565b9450600182166000811461315e576001811461316f576131a2565b60ff198316865281860193506131a2565b61317885613117565b60005b8381101561319a5781548189015260018201915060208101905061317b565b838801955050505b50505092915050565b60006131b782866130e6565b91506131c382856130e6565b91506131cf828461312c565b9150819050949350505050565b7f4552433732313a206f70657261746f7220717565727920666f72206e6f6e657860008201527f697374656e7420746f6b656e0000000000000000000000000000000000000000602082015250565b6000613238602c836124c3565b9150613243826131dc565b604082019050919050565b600060208201905081810360008301526132678161322b565b9050919050565b7f4552433732313a207472616e73666572206f6620746f6b656e2074686174206960008201527f73206e6f74206f776e0000000000000000000000000000000000000000000000602082015250565b60006132ca6029836124c3565b91506132d58261326e565b604082019050919050565b600060208201905081810360008301526132f9816132bd565b9050919050565b7f4552433732313a207472616e7366657220746f20746865207a65726f2061646460008201527f7265737300000000000000000000000000000000000000000000000000000000602082015250565b600061335c6024836124c3565b915061336782613300565b604082019050919050565b6000602082019050818103600083015261338b8161334f565b9050919050565b600061339d82612573565b91506133a883612573565b9250828210156133bb576133ba612fd1565b5b828203905092915050565b60006133d182612573565b91506133dc83612573565b9250827fffffffffffffffffffffffffffffffffffffffffffffffffffffffffffffffff0382111561341157613410612fd1565b5b828201905092915050565b7f4d696e74206973206e6f74206f6e000000000000000000000000000000000000600082015250565b6000613452600e836124c3565b915061345d8261341c565b602082019050919050565b6000602082019050818103600083015261348181613445565b9050919050565b7f757365722061646472657373206973206e6f74206f6e2077686974656c697374600082015250565b60006134be6020836124c3565b91506134c982613488565b602082019050919050565b600060208201905081810360008301526134ed816134b1565b9050919050565b7f4163636f756e7420416464726573732072656163686564206c696d6974206f6e60008201527f20546f6b656e7300000000000000000000000000000000000000000000000000602082015250565b60006135506027836124c3565b915061355b826134f4565b604082019050919050565b6000602082019050818103600083015261357f81613543565b9050919050565b6000815190506135958161257d565b92915050565b6000602082840312156135b1576135b06123f3565b5b60006135bf84828501613586565b91505092915050565b7f6d617820616d6f756e7420796f752063616e20686176652069732032206e667460008201527f7300000000000000000000000000000000000000000000000000000000000000602082015250565b60006136246021836124c3565b915061362f826135c8565b604082019050919050565b6000602082019050818103600083015261365381613617565b9050919050565b7f4552433732313a206d696e7420746f20746865207a65726f2061646472657373600082015250565b60006136906020836124c3565b915061369b8261365a565b602082019050919050565b600060208201905081810360008301526136bf81613683565b9050919050565b7f4552433732313a20746f6b656e20616c7265616479206d696e74656400000000600082015250565b60006136fc601c836124c3565b9150613707826136c6565b602082019050919050565b6000602082019050818103600083015261372b816136ef565b9050919050565b7f4552433732313a20617070726f766520746f2063616c6c657200000000000000600082015250565b60006137686019836124c3565b915061377382613732565b602082019050919050565b600060208201905081810360008301526137978161375b565b9050919050565b7f4552433732313a207472616e7366657220746f206e6f6e20455243373231526560008201527f63656976657220696d706c656d656e7465720000000000000000000000000000602082015250565b60006137fa6032836124c3565b91506138058261379e565b604082019050919050565b60006020820190508181036000830152613829816137ed565b9050919050565b7f4e487b7100000000000000000000000000000000000000000000000000000000600052601260045260246000fd5b600061386a82612573565b915061387583612573565b92508261388557613884613830565b5b828204905092915050565b600061389b82612573565b91506138a683612573565b9250826138b6576138b5613830565b5b828206905092915050565b600081519050919050565b600082825260208201905092915050565b60006138e8826138c1565b6138f281856138cc565b93506139028185602086016124d4565b61390b81612507565b840191505092915050565b600060808201905061392b6000830187612608565b6139386020830186612608565b613945604083018561271e565b818103606083015261395781846138dd565b905095945050505050565b60008151905061397181612429565b92915050565b60006020828403121561398d5761398c6123f3565b5b600061399b84828501613962565b9150509291505056fea2646970667358221220ead846d7dd19515fd857afb179218a845bfea656fdcd6f5c2ff4a95cb720adc864736f6c63430008090033",
  "linkReferences": {},
  "deployedLinkReferences": {}
}